{
  "contractName": "Games",
  "abi": [
    {
      "inputs": [
        {
          "internalType": "string",
          "name": "teams",
          "type": "string"
        }
      ],
      "stateMutability": "nonpayable",
      "type": "constructor"
    },
    {
      "anonymous": false,
      "inputs": [
        {
          "indexed": false,
          "internalType": "enum Games.Selection",
          "name": "selection",
          "type": "uint8"
        }
      ],
      "name": "GameWinner",
      "type": "event"
    },
    {
      "anonymous": false,
      "inputs": [],
      "name": "NewStatus",
      "type": "event"
    },
    {
      "anonymous": false,
      "inputs": [
        {
          "indexed": false,
          "internalType": "address",
          "name": "_backer",
          "type": "address"
        },
        {
          "indexed": false,
          "internalType": "address",
          "name": "_layer",
          "type": "address"
        },
        {
          "indexed": false,
          "internalType": "uint256",
          "name": "odds",
          "type": "uint256"
        },
        {
          "indexed": false,
          "internalType": "enum Games.Selection",
          "name": "_selection",
          "type": "uint8"
        }
      ],
      "name": "betMatched",
      "type": "event"
    },
    {
      "anonymous": false,
      "inputs": [
        {
          "indexed": false,
          "internalType": "address",
          "name": "_player",
          "type": "address"
        },
        {
          "indexed": false,
          "internalType": "uint256",
          "name": "_odds",
          "type": "uint256"
        },
        {
          "indexed": false,
          "internalType": "enum Games.Selection",
          "name": "_selection",
          "type": "uint8"
        },
        {
          "indexed": false,
          "internalType": "enum Games.BetType",
          "name": "_betType",
          "type": "uint8"
        }
      ],
      "name": "unmatchedBetCreated",
      "type": "event"
    },
    {
      "inputs": [],
      "name": "admin",
      "outputs": [
        {
          "internalType": "address payable",
          "name": "",
          "type": "address"
        }
      ],
      "stateMutability": "view",
      "type": "function",
      "constant": true
    },
    {
      "inputs": [
        {
          "internalType": "uint256",
          "name": "",
          "type": "uint256"
        }
      ],
      "name": "allBets",
      "outputs": [
        {
          "internalType": "address payable",
          "name": "player",
          "type": "address"
        },
        {
          "internalType": "enum Games.BetType",
          "name": "betType",
          "type": "uint8"
        },
        {
          "internalType": "enum Games.Selection",
          "name": "selection",
          "type": "uint8"
        },
        {
          "internalType": "uint256",
          "name": "odds",
          "type": "uint256"
        },
        {
          "internalType": "enum Games.BetStatus",
          "name": "status",
          "type": "uint8"
        },
        {
          "internalType": "uint256",
          "name": "betId",
          "type": "uint256"
        }
      ],
      "stateMutability": "view",
      "type": "function",
      "constant": true
    },
    {
      "inputs": [],
      "name": "betCount",
      "outputs": [
        {
          "internalType": "uint256",
          "name": "",
          "type": "uint256"
        }
      ],
      "stateMutability": "view",
      "type": "function",
      "constant": true
    },
    {
      "inputs": [],
      "name": "game",
      "outputs": [
        {
          "internalType": "address payable",
          "name": "owner",
          "type": "address"
        },
        {
          "internalType": "string",
          "name": "teams",
          "type": "string"
        },
        {
          "internalType": "enum Games.GameStatus",
          "name": "status",
          "type": "uint8"
        },
        {
          "internalType": "enum Games.Selection",
          "name": "winner",
          "type": "uint8"
        }
      ],
      "stateMutability": "view",
      "type": "function",
      "constant": true
    },
    {
      "inputs": [],
      "name": "gameId",
      "outputs": [
        {
          "internalType": "uint256",
          "name": "",
          "type": "uint256"
        }
      ],
      "stateMutability": "view",
      "type": "function",
      "constant": true
    },
    {
      "inputs": [
        {
          "internalType": "enum Games.Selection",
          "name": "winner",
          "type": "uint8"
        }
      ],
      "name": "changeGameStatus",
      "outputs": [
        {
          "internalType": "bool",
          "name": "",
          "type": "bool"
        }
      ],
      "stateMutability": "nonpayable",
      "type": "function"
    },
    {
      "inputs": [
        {
          "internalType": "enum Games.BetType",
          "name": "_betType",
          "type": "uint8"
        },
        {
          "internalType": "enum Games.Selection",
          "name": "_selection",
          "type": "uint8"
        },
        {
          "internalType": "uint256",
          "name": "_odds",
          "type": "uint256"
        }
      ],
      "name": "placeBet",
      "outputs": [],
      "stateMutability": "payable",
      "type": "function",
      "payable": true
    },
    {
      "inputs": [
        {
          "internalType": "address payable",
          "name": "_player",
          "type": "address"
        },
        {
          "internalType": "enum Games.Selection",
          "name": "_selection",
          "type": "uint8"
        }
      ],
      "name": "getPayout",
      "outputs": [
        {
          "internalType": "uint256",
          "name": "",
          "type": "uint256"
        }
      ],
      "stateMutability": "view",
      "type": "function",
      "constant": true
    },
    {
      "inputs": [
        {
          "internalType": "enum Games.Selection",
          "name": "_selection",
          "type": "uint8"
        },
        {
          "internalType": "uint256",
          "name": "_odds",
          "type": "uint256"
        }
      ],
      "name": "getBackBetsAvailable",
      "outputs": [
        {
          "internalType": "uint256",
          "name": "",
          "type": "uint256"
        }
      ],
      "stateMutability": "view",
      "type": "function",
      "constant": true
    },
    {
      "inputs": [
        {
          "internalType": "enum Games.Selection",
          "name": "_selection",
          "type": "uint8"
        },
        {
          "internalType": "uint256",
          "name": "_odds",
          "type": "uint256"
        }
      ],
      "name": "getLayBetsAvailable",
      "outputs": [
        {
          "internalType": "uint256",
          "name": "",
          "type": "uint256"
        }
      ],
      "stateMutability": "view",
      "type": "function",
      "constant": true
    },
    {
      "inputs": [
        {
          "internalType": "address",
          "name": "_player",
          "type": "address"
        }
      ],
      "name": "getPlayerNumberOfBets",
      "outputs": [
        {
          "internalType": "uint256",
          "name": "",
          "type": "uint256"
        }
      ],
      "stateMutability": "view",
      "type": "function",
      "constant": true
    },
    {
      "inputs": [
        {
          "internalType": "uint256",
          "name": "_betId",
          "type": "uint256"
        }
      ],
      "name": "getBet",
      "outputs": [
        {
          "components": [
            {
              "internalType": "address payable",
              "name": "player",
              "type": "address"
            },
            {
              "internalType": "enum Games.BetType",
              "name": "betType",
              "type": "uint8"
            },
            {
              "internalType": "enum Games.Selection",
              "name": "selection",
              "type": "uint8"
            },
            {
              "internalType": "uint256",
              "name": "odds",
              "type": "uint256"
            },
            {
              "internalType": "enum Games.BetStatus",
              "name": "status",
              "type": "uint8"
            },
            {
              "internalType": "uint256",
              "name": "betId",
              "type": "uint256"
            }
          ],
          "internalType": "struct Games.Bet",
          "name": "",
          "type": "tuple"
        }
      ],
      "stateMutability": "view",
      "type": "function",
      "constant": true
    },
    {
      "inputs": [
        {
          "internalType": "address",
          "name": "_player",
          "type": "address"
        },
        {
          "internalType": "uint256",
          "name": "_betNumber",
          "type": "uint256"
        }
      ],
      "name": "getPlayerBet",
      "outputs": [
        {
          "components": [
            {
              "internalType": "address payable",
              "name": "player",
              "type": "address"
            },
            {
              "internalType": "enum Games.BetType",
              "name": "betType",
              "type": "uint8"
            },
            {
              "internalType": "enum Games.Selection",
              "name": "selection",
              "type": "uint8"
            },
            {
              "internalType": "uint256",
              "name": "odds",
              "type": "uint256"
            },
            {
              "internalType": "enum Games.BetStatus",
              "name": "status",
              "type": "uint8"
            },
            {
              "internalType": "uint256",
              "name": "betId",
              "type": "uint256"
            }
          ],
          "internalType": "struct Games.Bet",
          "name": "",
          "type": "tuple"
        }
      ],
      "stateMutability": "view",
      "type": "function",
      "constant": true
    },
    {
      "inputs": [],
      "name": "getTeams",
      "outputs": [
        {
          "internalType": "string",
          "name": "",
          "type": "string"
        }
      ],
      "stateMutability": "view",
      "type": "function",
      "constant": true
    },
    {
      "inputs": [
        {
          "internalType": "uint256",
          "name": "_betId",
          "type": "uint256"
        }
      ],
      "name": "getBetStatus",
      "outputs": [
        {
          "internalType": "enum Games.BetStatus",
          "name": "",
          "type": "uint8"
        }
      ],
      "stateMutability": "view",
      "type": "function",
      "constant": true
    },
    {
      "inputs": [],
      "name": "payout",
      "outputs": [
        {
          "internalType": "bool",
          "name": "",
          "type": "bool"
        }
      ],
      "stateMutability": "nonpayable",
      "type": "function"
    }
  ],
  "bytecode": "0x60806040523480156200001157600080fd5b50604051620046f9380380620046f98339818101604052810190620000379190620003ab565b336000806101000a81548173ffffffffffffffffffffffffffffffffffffffff021916908373ffffffffffffffffffffffffffffffffffffffff16021790555060008054906101000a900473ffffffffffffffffffffffffffffffffffffffff16600260000160006101000a81548173ffffffffffffffffffffffffffffffffffffffff021916908373ffffffffffffffffffffffffffffffffffffffff1602179055508060026001019080519060200190620000f69291906200015e565b5060006002800160006101000a81548160ff02191690836001811115620001225762000121620003fc565b5b021790555060006002800160016101000a81548160ff02191690836003811115620001525762000151620003fc565b5b02179055505062000490565b8280546200016c906200045a565b90600052602060002090601f016020900481019282620001905760008555620001dc565b82601f10620001ab57805160ff1916838001178555620001dc565b82800160010185558215620001dc579182015b82811115620001db578251825591602001919060010190620001be565b5b509050620001eb9190620001ef565b5090565b5b808211156200020a576000816000905550600101620001f0565b5090565b6000604051905090565b600080fd5b600080fd5b600080fd5b600080fd5b6000601f19601f8301169050919050565b7f4e487b7100000000000000000000000000000000000000000000000000000000600052604160045260246000fd5b62000277826200022c565b810181811067ffffffffffffffff821117156200029957620002986200023d565b5b80604052505050565b6000620002ae6200020e565b9050620002bc82826200026c565b919050565b600067ffffffffffffffff821115620002df57620002de6200023d565b5b620002ea826200022c565b9050602081019050919050565b60005b8381101562000317578082015181840152602081019050620002fa565b8381111562000327576000848401525b50505050565b6000620003446200033e84620002c1565b620002a2565b90508281526020810184848401111562000363576200036262000227565b5b62000370848285620002f7565b509392505050565b600082601f83011262000390576200038f62000222565b5b8151620003a28482602086016200032d565b91505092915050565b600060208284031215620003c457620003c362000218565b5b600082015167ffffffffffffffff811115620003e557620003e46200021d565b5b620003f38482850162000378565b91505092915050565b7f4e487b7100000000000000000000000000000000000000000000000000000000600052602160045260246000fd5b7f4e487b7100000000000000000000000000000000000000000000000000000000600052602260045260246000fd5b600060028204905060018216806200047357607f821691505b602082108114156200048a57620004896200042b565b5b50919050565b61425980620004a06000396000f3fe6080604052600436106100f35760003560e01c8063c3fe3e281161008a578063ea413f4611610059578063ea413f4614610373578063f4ec521e146103b0578063f851a440146103db578063fad9169b14610406576100f3565b8063c3fe3e28146102ad578063cf094497146102db578063d7c81b5514610306578063e0ced0e114610331576100f3565b80637d85e4f4116100c65780637d85e4f4146101b95780638c4200aa146101f6578063a1a27b2614610233578063b4ead79614610270576100f3565b8063061e494f146100f8578063399b5c461461013557806361f14f111461015157806363bd1d4a1461018e575b600080fd5b34801561010457600080fd5b5061011f600480360381019061011a9190613462565b610443565b60405161012c9190613661565b60405180910390f35b61014f600480360381019061014a91906136c6565b610630565b005b34801561015d57600080fd5b5061017860048036038101906101739190613462565b61148b565b6040516101859190613728565b60405180910390f35b34801561019a57600080fd5b506101a3611518565b6040516101b0919061375e565b60405180910390f35b3480156101c557600080fd5b506101e060048036038101906101db91906137b7565b611a28565b6040516101ed9190613661565b60405180910390f35b34801561020257600080fd5b5061021d600480360381019061021891906137f7565b611c72565b60405161022a919061375e565b60405180910390f35b34801561023f57600080fd5b5061025a60048036038101906102559190613850565b612176565b604051610267919061389f565b60405180910390f35b34801561027c57600080fd5b50610297600480360381019061029291906138ba565b6121fa565b6040516102a4919061389f565b60405180910390f35b3480156102b957600080fd5b506102c2612252565b6040516102d294939291906139f9565b60405180910390f35b3480156102e757600080fd5b506102f0612332565b6040516102fd919061389f565b60405180910390f35b34801561031257600080fd5b5061031b612338565b604051610328919061389f565b60405180910390f35b34801561033d57600080fd5b5061035860048036038101906103539190613462565b61233e565b60405161036a96959493929190613a54565b60405180910390f35b34801561037f57600080fd5b5061039a600480360381019061039591906138ba565b6123d1565b6040516103a7919061389f565b60405180910390f35b3480156103bc57600080fd5b506103c5612429565b6040516103d29190613ab5565b60405180910390f35b3480156103e757600080fd5b506103f06124be565b6040516103fd9190613ad7565b60405180910390f35b34801561041257600080fd5b5061042d60048036038101906104289190613af2565b6124e2565b60405161043a919061389f565b60405180910390f35b61044b6133a5565b816000811161048f576040517f08c379a000000000000000000000000000000000000000000000000000000000815260040161048690613b6b565b60405180910390fd5b6005548311156104d4576040517f08c379a00000000000000000000000000000000000000000000000000000000081526004016104cb90613bd7565b60405180910390fd5b60066001846104e39190613c26565b815481106104f4576104f3613c5a565b5b90600052602060002090600402016040518060c00160405290816000820160009054906101000a900473ffffffffffffffffffffffffffffffffffffffff1673ffffffffffffffffffffffffffffffffffffffff1673ffffffffffffffffffffffffffffffffffffffff1681526020016000820160149054906101000a900460ff166001811115610588576105876134d0565b5b600181111561059a576105996134d0565b5b81526020016000820160159054906101000a900460ff1660038111156105c3576105c26134d0565b5b60038111156105d5576105d46134d0565b5b8152602001600182015481526020016002820160009054906101000a900460ff166004811115610608576106076134d0565b5b600481111561061a576106196134d0565b5b8152602001600382015481525050915050919050565b828160006001811115610646576106456134d0565b5b826001811115610659576106586134d0565b5b14156106ad5766038d7ea4c6800034146106a8576040517f08c379a000000000000000000000000000000000000000000000000000000000815260040161069f90613cd5565b60405180910390fd5b61074d565b6001808111156106c0576106bf6134d0565b5b8260018111156106d3576106d26134d0565b5b141561074c576000606466038d7ea4c680006064846106f29190613c26565b6106fc9190613cf5565b6107069190613d7e565b905080341461074a576040517f08c379a000000000000000000000000000000000000000000000000000000000815260040161074190613cd5565b60405180910390fd5b505b5b8360006003811115610762576107616134d0565b5b816003811115610775576107746134d0565b5b14156107b6576040517f08c379a00000000000000000000000000000000000000000000000000000000081526004016107ad90613dfb565b60405180910390fd5b600060018111156107ca576107c96134d0565b5b6002800160009054906101000a900460ff1660018111156107ee576107ed6134d0565b5b1461082e576040517f08c379a000000000000000000000000000000000000000000000000000000000815260040161082590613e67565b60405180910390fd5b6005600081548092919061084190613e87565b919050555060006040518060c001604052803373ffffffffffffffffffffffffffffffffffffffff168152602001886001811115610882576108816134d0565b5b815260200187600381111561089a576108996134d0565b5b8152602001868152602001600060048111156108b9576108b86134d0565b5b81526020016005548152509050600681908060018154018082558091505060019003906000526020600020906004020160009091909190915060008201518160000160006101000a81548173ffffffffffffffffffffffffffffffffffffffff021916908373ffffffffffffffffffffffffffffffffffffffff16021790555060208201518160000160146101000a81548160ff02191690836001811115610964576109636134d0565b5b021790555060408201518160000160156101000a81548160ff02191690836003811115610994576109936134d0565b5b02179055506060820151816001015560808201518160020160006101000a81548160ff021916908360048111156109ce576109cd6134d0565b5b021790555060a082015181600301555050600760003373ffffffffffffffffffffffffffffffffffffffff1673ffffffffffffffffffffffffffffffffffffffff1681526020019081526020016000206005549080600181540180825580915050600190039060005260206000200160009091909190915055600f60003373ffffffffffffffffffffffffffffffffffffffff1673ffffffffffffffffffffffffffffffffffffffff1681526020019081526020016000206000815480929190610a9790613e87565b919050555060006001811115610ab057610aaf6134d0565b5b876001811115610ac357610ac26134d0565b5b1415610f9157600a6000876003811115610ae057610adf6134d0565b5b6003811115610af257610af16134d0565b5b815260200190815260200160002060008681526020019081526020016000206005549080600181540180825580915050600190039060005260206000200160009091909190915055600060096000886003811115610b5357610b526134d0565b5b6003811115610b6557610b646134d0565b5b81526020019081526020016000206000878152602001908152602001600020541115610e90576000600d6000886003811115610ba457610ba36134d0565b5b6003811115610bb657610bb56134d0565b5b815260200190815260200160002060008781526020019081526020016000205490506000600b6000896003811115610bf157610bf06134d0565b5b6003811115610c0357610c026134d0565b5b815260200190815260200160002060008881526020019081526020016000208281548110610c3457610c33613c5a565b5b90600052602060002001549050600160066001600554610c549190613c26565b81548110610c6557610c64613c5a565b5b906000526020600020906004020160020160006101000a81548160ff02191690836004811115610c9857610c976134d0565b5b021790555060016006600183610cae9190613c26565b81548110610cbf57610cbe613c5a565b5b906000526020600020906004020160020160006101000a81548160ff02191690836004811115610cf257610cf16134d0565b5b0217905550600d6000896003811115610d0e57610d0d6134d0565b5b6003811115610d2057610d1f6134d0565b5b815260200190815260200160002060008881526020019081526020016000206000815480929190610d5090613e87565b91905055506001600960008a6003811115610d6e57610d6d6134d0565b5b6003811115610d8057610d7f6134d0565b5b815260200190815260200160002060008981526020019081526020016000206000828254610dae9190613c26565b9250508190555060006006600183610dc69190613c26565b81548110610dd757610dd6613c5a565b5b906000526020600020906004020160000160009054906101000a900473ffffffffffffffffffffffffffffffffffffffff169050610e1833898b600061252b565b610e2433896000612a49565b610e3133898b6000612e87565b610e3e81898b6001612e87565b610e4b81898b600161252b565b7ff66785aca3eaaaa4130bc839e565fcb095bf58a8f1e22451a717e7784994b32233828a8c604051610e809493929190613f3e565b60405180910390a1505050610f8c565b600060096000886003811115610ea957610ea86134d0565b5b6003811115610ebb57610eba6134d0565b5b81526020019081526020016000206000878152602001908152602001600020541415610f8b57600160086000886003811115610efa57610ef96134d0565b5b6003811115610f0c57610f0b6134d0565b5b815260200190815260200160002060008781526020019081526020016000206000828254610f3a9190613f83565b92505081905550610f4d33866000612a49565b7f803916dc5649ac7050635003228d26949d720ab5586be36da6cbb9f58a47eee43386888a604051610f829493929190613fd9565b60405180910390a15b5b611482565b600180811115610fa457610fa36134d0565b5b876001811115610fb757610fb66134d0565b5b141561148157600a6000876003811115610fd457610fd36134d0565b5b6003811115610fe657610fe56134d0565b5b815260200190815260200160002060008681526020019081526020016000206005549080600181540180825580915050600190039060005260206000200160009091909190915055600060086000886003811115611047576110466134d0565b5b6003811115611059576110586134d0565b5b81526020019081526020016000206000878152602001908152602001600020541115611384576000600c6000886003811115611098576110976134d0565b5b60038111156110aa576110a96134d0565b5b815260200190815260200160002060008781526020019081526020016000205490506000600a60008960038111156110e5576110e46134d0565b5b60038111156110f7576110f66134d0565b5b81526020019081526020016000206000888152602001908152602001600020828154811061112857611127613c5a565b5b906000526020600020015490506001600660016005546111489190613c26565b8154811061115957611158613c5a565b5b906000526020600020906004020160020160006101000a81548160ff0219169083600481111561118c5761118b6134d0565b5b0217905550600160066001836111a29190613c26565b815481106111b3576111b2613c5a565b5b906000526020600020906004020160020160006101000a81548160ff021916908360048111156111e6576111e56134d0565b5b0217905550600c6000896003811115611202576112016134d0565b5b6003811115611214576112136134d0565b5b81526020019081526020016000206000888152602001908152602001600020600081548092919061124490613e87565b91905055506001600860008a6003811115611262576112616134d0565b5b6003811115611274576112736134d0565b5b8152602001908152602001600020600089815260200190815260200160002060008282546112a29190613c26565b92505081905550600060066001836112ba9190613c26565b815481106112cb576112ca613c5a565b5b906000526020600020906004020160000160009054906101000a900473ffffffffffffffffffffffffffffffffffffffff16905061130c33898b600161252b565b61131833896001612a49565b61132533898b6001612e87565b61133281898b6000612e87565b61133f81898b600061252b565b7ff66785aca3eaaaa4130bc839e565fcb095bf58a8f1e22451a717e7784994b32281338a8c604051611374949392919061401e565b60405180910390a1505050611480565b60006008600088600381111561139d5761139c6134d0565b5b60038111156113af576113ae6134d0565b5b8152602001908152602001600020600087815260200190815260200160002054141561147f576001600960008860038111156113ee576113ed6134d0565b5b6003811115611400576113ff6134d0565b5b81526020019081526020016000206000878152602001908152602001600020600082825461142e9190613f83565b9250508190555061144133866001612a49565b7f803916dc5649ac7050635003228d26949d720ab5586be36da6cbb9f58a47eee43386888a6040516114769493929190613fd9565b60405180910390a15b5b5b5b50505050505050565b600081600081116114d1576040517f08c379a00000000000000000000000000000000000000000000000000000000081526004016114c890613b6b565b60405180910390fd5b60066001846114e09190613c26565b815481106114f1576114f0613c5a565b5b906000526020600020906004020160020160009054906101000a900460ff16915050919050565b600060018081111561152d5761152c6134d0565b5b6002800160009054906101000a900460ff166001811115611551576115506134d0565b5b14611591576040517f08c379a0000000000000000000000000000000000000000000000000000000008152600401611588906140af565b60405180910390fd5b60003390506000600160038111156115ac576115ab6134d0565b5b6002800160019054906101000a900460ff1660038111156115d0576115cf6134d0565b5b141561171b57600e60008373ffffffffffffffffffffffffffffffffffffffff1673ffffffffffffffffffffffffffffffffffffffff16815260200190815260200160002060006001600381111561162b5761162a6134d0565b5b600381111561163d5761163c6134d0565b5b81526020019081526020016000205490506000600e60008473ffffffffffffffffffffffffffffffffffffffff1673ffffffffffffffffffffffffffffffffffffffff1681526020019081526020016000206000600160038111156116a5576116a46134d0565b5b60038111156116b7576116b66134d0565b5b8152602001908152602001600020819055508173ffffffffffffffffffffffffffffffffffffffff166108fc829081150290604051600060405180830381858888f1935050505015801561170f573d6000803e3d6000fd5b50600192505050611a25565b6002600381111561172f5761172e6134d0565b5b6002800160019054906101000a900460ff166003811115611753576117526134d0565b5b141561189e57600e60008373ffffffffffffffffffffffffffffffffffffffff1673ffffffffffffffffffffffffffffffffffffffff1681526020019081526020016000206000600260038111156117ae576117ad6134d0565b5b60038111156117c0576117bf6134d0565b5b81526020019081526020016000205490506000600e60008473ffffffffffffffffffffffffffffffffffffffff1673ffffffffffffffffffffffffffffffffffffffff168152602001908152602001600020600060026003811115611828576118276134d0565b5b600381111561183a576118396134d0565b5b8152602001908152602001600020819055508173ffffffffffffffffffffffffffffffffffffffff166108fc829081150290604051600060405180830381858888f19350505050158015611892573d6000803e3d6000fd5b50600192505050611a25565b6003808111156118b1576118b06134d0565b5b6002800160019054906101000a900460ff1660038111156118d5576118d46134d0565b5b1415611a1e57600e60008373ffffffffffffffffffffffffffffffffffffffff1673ffffffffffffffffffffffffffffffffffffffff168152602001908152602001600020600060038081111561192f5761192e6134d0565b5b6003811115611941576119406134d0565b5b81526020019081526020016000205490506000600e60008473ffffffffffffffffffffffffffffffffffffffff1673ffffffffffffffffffffffffffffffffffffffff16815260200190815260200160002060006003808111156119a8576119a76134d0565b5b60038111156119ba576119b96134d0565b5b8152602001908152602001600020819055508173ffffffffffffffffffffffffffffffffffffffff166108fc829081150290604051600060405180830381858888f19350505050158015611a12573d6000803e3d6000fd5b50600192505050611a25565b6000925050505b90565b611a306133a5565b818381600f60008373ffffffffffffffffffffffffffffffffffffffff1673ffffffffffffffffffffffffffffffffffffffff1681526020019081526020016000205411611ab3576040517f08c379a0000000000000000000000000000000000000000000000000000000008152600401611aaa9061411b565b60405180910390fd5b60006001600760008873ffffffffffffffffffffffffffffffffffffffff1673ffffffffffffffffffffffffffffffffffffffff1681526020019081526020016000208681548110611b0857611b07613c5a565b5b9060005260206000200154611b1d9190613c26565b905060068181548110611b3357611b32613c5a565b5b90600052602060002090600402016040518060c00160405290816000820160009054906101000a900473ffffffffffffffffffffffffffffffffffffffff1673ffffffffffffffffffffffffffffffffffffffff1673ffffffffffffffffffffffffffffffffffffffff1681526020016000820160149054906101000a900460ff166001811115611bc757611bc66134d0565b5b6001811115611bd957611bd86134d0565b5b81526020016000820160159054906101000a900460ff166003811115611c0257611c016134d0565b5b6003811115611c1457611c136134d0565b5b8152602001600182015481526020016002820160009054906101000a900460ff166004811115611c4757611c466134d0565b5b6004811115611c5957611c586134d0565b5b8152602001600382015481525050935050505092915050565b60003360008054906101000a900473ffffffffffffffffffffffffffffffffffffffff1673ffffffffffffffffffffffffffffffffffffffff168173ffffffffffffffffffffffffffffffffffffffff1614611d03576040517f08c379a0000000000000000000000000000000000000000000000000000000008152600401611cfa90614187565b60405180910390fd5b60006001811115611d1757611d166134d0565b5b6002800160009054906101000a900460ff166001811115611d3b57611d3a6134d0565b5b14611d7b576040517f08c379a0000000000000000000000000000000000000000000000000000000008152600401611d7290613e67565b60405180910390fd5b60016002800160006101000a81548160ff02191690836001811115611da357611da26134d0565b5b0217905550826002800160016101000a81548160ff02191690836003811115611dcf57611dce6134d0565b5b02179055506000600680549050905060005b818110156121335760006004811115611dfd57611dfc6134d0565b5b60068281548110611e1157611e10613c5a565b5b906000526020600020906004020160020160009054906101000a900460ff166004811115611e4257611e416134d0565b5b1415611e9b57600260068281548110611e5e57611e5d613c5a565b5b906000526020600020906004020160020160006101000a81548160ff02191690836004811115611e9157611e906134d0565b5b0217905550612120565b60016004811115611eaf57611eae6134d0565b5b60068281548110611ec357611ec2613c5a565b5b906000526020600020906004020160020160009054906101000a900460ff166004811115611ef457611ef36134d0565b5b141561211f57846003811115611f0d57611f0c6134d0565b5b60068281548110611f2157611f20613c5a565b5b906000526020600020906004020160000160159054906101000a900460ff166003811115611f5257611f516134d0565b5b148015611fb5575060006001811115611f6e57611f6d6134d0565b5b60068281548110611f8257611f81613c5a565b5b906000526020600020906004020160000160149054906101000a900460ff166001811115611fb357611fb26134d0565b5b145b806120775750846003811115611fce57611fcd6134d0565b5b60068281548110611fe257611fe1613c5a565b5b906000526020600020906004020160000160159054906101000a900460ff166003811115612013576120126134d0565b5b14158015612076575060018081111561202f5761202e6134d0565b5b6006828154811061204357612042613c5a565b5b906000526020600020906004020160000160149054906101000a900460ff166001811115612074576120736134d0565b5b145b5b156120cf5760036006828154811061209257612091613c5a565b5b906000526020600020906004020160020160006101000a81548160ff021916908360048111156120c5576120c46134d0565b5b021790555061211e565b6004600682815481106120e5576120e4613c5a565b5b906000526020600020906004020160020160006101000a81548160ff02191690836004811115612118576121176134d0565b5b02179055505b5b5b808061212b90613e87565b915050611de1565b507f644bb802c5494cabb5b122d2a385455270a23cd15163ac9d122727afa12940828460405161216391906141a7565b60405180910390a1600192505050919050565b600080600e60008573ffffffffffffffffffffffffffffffffffffffff1673ffffffffffffffffffffffffffffffffffffffff16815260200190815260200160002060008460038111156121cd576121cc6134d0565b5b60038111156121df576121de6134d0565b5b81526020019081526020016000205490508091505092915050565b60008060086000856003811115612214576122136134d0565b5b6003811115612226576122256134d0565b5b815260200190815260200160002060008481526020019081526020016000205490508091505092915050565b60028060000160009054906101000a900473ffffffffffffffffffffffffffffffffffffffff1690806001018054612289906141f1565b80601f01602080910402602001604051908101604052809291908181526020018280546122b5906141f1565b80156123025780601f106122d757610100808354040283529160200191612302565b820191906000526020600020905b8154815290600101906020018083116122e557829003601f168201915b5050505050908060020160009054906101000a900460ff16908060020160019054906101000a900460ff16905084565b60055481565b60015481565b6006818154811061234e57600080fd5b90600052602060002090600402016000915090508060000160009054906101000a900473ffffffffffffffffffffffffffffffffffffffff16908060000160149054906101000a900460ff16908060000160159054906101000a900460ff16908060010154908060020160009054906101000a900460ff16908060030154905086565b600080600960008560038111156123eb576123ea6134d0565b5b60038111156123fd576123fc6134d0565b5b815260200190815260200160002060008481526020019081526020016000205490508091505092915050565b60606002600101805461243b906141f1565b80601f0160208091040260200160405190810160405280929190818152602001828054612467906141f1565b80156124b45780601f10612489576101008083540402835291602001916124b4565b820191906000526020600020905b81548152906001019060200180831161249757829003601f168201915b5050505050905090565b60008054906101000a900473ffffffffffffffffffffffffffffffffffffffff1681565b6000600f60008373ffffffffffffffffffffffffffffffffffffffff1673ffffffffffffffffffffffffffffffffffffffff168152602001908152602001600020549050919050565b6000600181111561253f5761253e6134d0565b5b816001811115612552576125516134d0565b5b141561261257606466038d7ea4c6800060648561256f9190613c26565b6125799190613cf5565b6125839190613d7e565b600e60008673ffffffffffffffffffffffffffffffffffffffff1673ffffffffffffffffffffffffffffffffffffffff16815260200190815260200160002060008460038111156125d7576125d66134d0565b5b60038111156125e9576125e86134d0565b5b815260200190815260200160002060008282546126069190613f83565b92505081905550612a43565b600180811115612625576126246134d0565b5b816001811115612638576126376134d0565b5b1415612a425760016003811115612652576126516134d0565b5b826003811115612665576126646134d0565b5b14156127955766038d7ea4c68000600e60008673ffffffffffffffffffffffffffffffffffffffff1673ffffffffffffffffffffffffffffffffffffffff1681526020019081526020016000206000600260038111156126c8576126c76134d0565b5b60038111156126da576126d96134d0565b5b815260200190815260200160002060008282546126f79190613f83565b9250508190555066038d7ea4c68000600e60008673ffffffffffffffffffffffffffffffffffffffff1673ffffffffffffffffffffffffffffffffffffffff168152602001908152602001600020600060038081111561275a576127596134d0565b5b600381111561276c5761276b6134d0565b5b815260200190815260200160002060008282546127899190613f83565b92505081905550612a41565b600260038111156127a9576127a86134d0565b5b8260038111156127bc576127bb6134d0565b5b14156128ec5766038d7ea4c68000600e60008673ffffffffffffffffffffffffffffffffffffffff1673ffffffffffffffffffffffffffffffffffffffff16815260200190815260200160002060006001600381111561281f5761281e6134d0565b5b6003811115612831576128306134d0565b5b8152602001908152602001600020600082825461284e9190613f83565b9250508190555066038d7ea4c68000600e60008673ffffffffffffffffffffffffffffffffffffffff1673ffffffffffffffffffffffffffffffffffffffff16815260200190815260200160002060006003808111156128b1576128b06134d0565b5b60038111156128c3576128c26134d0565b5b815260200190815260200160002060008282546128e09190613f83565b92505081905550612a40565b6003808111156128ff576128fe6134d0565b5b826003811115612912576129116134d0565b5b1415612a3f5766038d7ea4c68000600e60008673ffffffffffffffffffffffffffffffffffffffff1673ffffffffffffffffffffffffffffffffffffffff168152602001908152602001600020600060016003811115612975576129746134d0565b5b6003811115612987576129866134d0565b5b815260200190815260200160002060008282546129a49190613f83565b9250508190555066038d7ea4c68000600e60008673ffffffffffffffffffffffffffffffffffffffff1673ffffffffffffffffffffffffffffffffffffffff168152602001908152602001600020600060026003811115612a0857612a076134d0565b5b6003811115612a1a57612a196134d0565b5b81526020019081526020016000206000828254612a379190613f83565b925050819055505b5b5b5b5b50505050565b60006001811115612a5d57612a5c6134d0565b5b816001811115612a7057612a6f6134d0565b5b1415612c335766038d7ea4c68000600e60008573ffffffffffffffffffffffffffffffffffffffff1673ffffffffffffffffffffffffffffffffffffffff168152602001908152602001600020600060026003811115612ad357612ad26134d0565b5b6003811115612ae557612ae46134d0565b5b81526020019081526020016000206000828254612b029190613f83565b9250508190555066038d7ea4c68000600e60008573ffffffffffffffffffffffffffffffffffffffff1673ffffffffffffffffffffffffffffffffffffffff1681526020019081526020016000206000600380811115612b6557612b646134d0565b5b6003811115612b7757612b766134d0565b5b81526020019081526020016000206000828254612b949190613f83565b9250508190555066038d7ea4c68000600e60008573ffffffffffffffffffffffffffffffffffffffff1673ffffffffffffffffffffffffffffffffffffffff168152602001908152602001600020600060016003811115612bf857612bf76134d0565b5b6003811115612c0a57612c096134d0565b5b81526020019081526020016000206000828254612c279190613f83565b92505081905550612e82565b600180811115612c4657612c456134d0565b5b816001811115612c5957612c586134d0565b5b1415612e8157606466038d7ea4c68000606484612c769190613c26565b612c809190613cf5565b612c8a9190613d7e565b600e60008573ffffffffffffffffffffffffffffffffffffffff1673ffffffffffffffffffffffffffffffffffffffff1681526020019081526020016000206000600380811115612cde57612cdd6134d0565b5b6003811115612cf057612cef6134d0565b5b81526020019081526020016000206000828254612d0d9190613f83565b92505081905550606466038d7ea4c68000606484612d2b9190613c26565b612d359190613cf5565b612d3f9190613d7e565b600e60008573ffffffffffffffffffffffffffffffffffffffff1673ffffffffffffffffffffffffffffffffffffffff168152602001908152602001600020600060016003811115612d9457612d936134d0565b5b6003811115612da657612da56134d0565b5b81526020019081526020016000206000828254612dc39190613f83565b92505081905550606466038d7ea4c68000606484612de19190613c26565b612deb9190613cf5565b612df59190613d7e565b600e60008573ffffffffffffffffffffffffffffffffffffffff1673ffffffffffffffffffffffffffffffffffffffff168152602001908152602001600020600060026003811115612e4a57612e496134d0565b5b6003811115612e5c57612e5b6134d0565b5b81526020019081526020016000206000828254612e799190613f83565b925050819055505b5b505050565b60006001811115612e9b57612e9a6134d0565b5b816001811115612eae57612ead6134d0565b5b14156132bc5760016003811115612ec857612ec76134d0565b5b826003811115612edb57612eda6134d0565b5b141561300b5766038d7ea4c68000600e60008673ffffffffffffffffffffffffffffffffffffffff1673ffffffffffffffffffffffffffffffffffffffff168152602001908152602001600020600060026003811115612f3e57612f3d6134d0565b5b6003811115612f5057612f4f6134d0565b5b81526020019081526020016000206000828254612f6d9190613c26565b9250508190555066038d7ea4c68000600e60008673ffffffffffffffffffffffffffffffffffffffff1673ffffffffffffffffffffffffffffffffffffffff1681526020019081526020016000206000600380811115612fd057612fcf6134d0565b5b6003811115612fe257612fe16134d0565b5b81526020019081526020016000206000828254612fff9190613c26565b925050819055506132b7565b6002600381111561301f5761301e6134d0565b5b826003811115613032576130316134d0565b5b14156131625766038d7ea4c68000600e60008673ffffffffffffffffffffffffffffffffffffffff1673ffffffffffffffffffffffffffffffffffffffff168152602001908152602001600020600060016003811115613095576130946134d0565b5b60038111156130a7576130a66134d0565b5b815260200190815260200160002060008282546130c49190613c26565b9250508190555066038d7ea4c68000600e60008673ffffffffffffffffffffffffffffffffffffffff1673ffffffffffffffffffffffffffffffffffffffff1681526020019081526020016000206000600380811115613127576131266134d0565b5b6003811115613139576131386134d0565b5b815260200190815260200160002060008282546131569190613c26565b925050819055506132b6565b600380811115613175576131746134d0565b5b826003811115613188576131876134d0565b5b14156132b55766038d7ea4c68000600e60008673ffffffffffffffffffffffffffffffffffffffff1673ffffffffffffffffffffffffffffffffffffffff1681526020019081526020016000206000600160038111156131eb576131ea6134d0565b5b60038111156131fd576131fc6134d0565b5b8152602001908152602001600020600082825461321a9190613c26565b9250508190555066038d7ea4c68000600e60008673ffffffffffffffffffffffffffffffffffffffff1673ffffffffffffffffffffffffffffffffffffffff16815260200190815260200160002060006002600381111561327e5761327d6134d0565b5b60038111156132905761328f6134d0565b5b815260200190815260200160002060008282546132ad9190613c26565b925050819055505b5b5b61339f565b6001808111156132cf576132ce6134d0565b5b8160018111156132e2576132e16134d0565b5b141561339e57606466038d7ea4c680006064856132ff9190613c26565b6133099190613cf5565b6133139190613d7e565b600e60008673ffffffffffffffffffffffffffffffffffffffff1673ffffffffffffffffffffffffffffffffffffffff1681526020019081526020016000206000846003811115613367576133666134d0565b5b6003811115613379576133786134d0565b5b815260200190815260200160002060008282546133969190613c26565b925050819055505b5b50505050565b6040518060c00160405280600073ffffffffffffffffffffffffffffffffffffffff168152602001600060018111156133e1576133e06134d0565b5b8152602001600060038111156133fa576133f96134d0565b5b8152602001600081526020016000600481111561341a576134196134d0565b5b8152602001600081525090565b600080fd5b6000819050919050565b61343f8161342c565b811461344a57600080fd5b50565b60008135905061345c81613436565b92915050565b60006020828403121561347857613477613427565b5b60006134868482850161344d565b91505092915050565b600073ffffffffffffffffffffffffffffffffffffffff82169050919050565b60006134ba8261348f565b9050919050565b6134ca816134af565b82525050565b7f4e487b7100000000000000000000000000000000000000000000000000000000600052602160045260246000fd5b600281106135105761350f6134d0565b5b50565b6000819050613521826134ff565b919050565b600061353182613513565b9050919050565b61354181613526565b82525050565b60048110613558576135576134d0565b5b50565b600081905061356982613547565b919050565b60006135798261355b565b9050919050565b6135898161356e565b82525050565b6135988161342c565b82525050565b600581106135af576135ae6134d0565b5b50565b60008190506135c08261359e565b919050565b60006135d0826135b2565b9050919050565b6135e0816135c5565b82525050565b60c0820160008201516135fc60008501826134c1565b50602082015161360f6020850182613538565b5060408201516136226040850182613580565b506060820151613635606085018261358f565b50608082015161364860808501826135d7565b5060a082015161365b60a085018261358f565b50505050565b600060c08201905061367660008301846135e6565b92915050565b6002811061368957600080fd5b50565b60008135905061369b8161367c565b92915050565b600481106136ae57600080fd5b50565b6000813590506136c0816136a1565b92915050565b6000806000606084860312156136df576136de613427565b5b60006136ed8682870161368c565b93505060206136fe868287016136b1565b925050604061370f8682870161344d565b9150509250925092565b613722816135c5565b82525050565b600060208201905061373d6000830184613719565b92915050565b60008115159050919050565b61375881613743565b82525050565b6000602082019050613773600083018461374f565b92915050565b60006137848261348f565b9050919050565b61379481613779565b811461379f57600080fd5b50565b6000813590506137b18161378b565b92915050565b600080604083850312156137ce576137cd613427565b5b60006137dc858286016137a2565b92505060206137ed8582860161344d565b9150509250929050565b60006020828403121561380d5761380c613427565b5b600061381b848285016136b1565b91505092915050565b61382d816134af565b811461383857600080fd5b50565b60008135905061384a81613824565b92915050565b6000806040838503121561386757613866613427565b5b60006138758582860161383b565b9250506020613886858286016136b1565b9150509250929050565b6138998161342c565b82525050565b60006020820190506138b46000830184613890565b92915050565b600080604083850312156138d1576138d0613427565b5b60006138df858286016136b1565b92505060206138f08582860161344d565b9150509250929050565b613903816134af565b82525050565b600081519050919050565b600082825260208201905092915050565b60005b83811015613943578082015181840152602081019050613928565b83811115613952576000848401525b50505050565b6000601f19601f8301169050919050565b600061397482613909565b61397e8185613914565b935061398e818560208601613925565b61399781613958565b840191505092915050565b600281106139b3576139b26134d0565b5b50565b60008190506139c4826139a2565b919050565b60006139d4826139b6565b9050919050565b6139e4816139c9565b82525050565b6139f38161356e565b82525050565b6000608082019050613a0e60008301876138fa565b8181036020830152613a208186613969565b9050613a2f60408301856139db565b613a3c60608301846139ea565b95945050505050565b613a4e81613526565b82525050565b600060c082019050613a6960008301896138fa565b613a766020830188613a45565b613a8360408301876139ea565b613a906060830186613890565b613a9d6080830185613719565b613aaa60a0830184613890565b979650505050505050565b60006020820190508181036000830152613acf8184613969565b905092915050565b6000602082019050613aec60008301846138fa565b92915050565b600060208284031215613b0857613b07613427565b5b6000613b16848285016137a2565b91505092915050565b7f756e76616c696420496400000000000000000000000000000000000000000000600082015250565b6000613b55600a83613914565b9150613b6082613b1f565b602082019050919050565b60006020820190508181036000830152613b8481613b48565b9050919050565b7f4e6f742073756368204265742077697468207468697320426574204964000000600082015250565b6000613bc1601d83613914565b9150613bcc82613b8b565b602082019050919050565b60006020820190508181036000830152613bf081613bb4565b9050919050565b7f4e487b7100000000000000000000000000000000000000000000000000000000600052601160045260246000fd5b6000613c318261342c565b9150613c3c8361342c565b925082821015613c4f57613c4e613bf7565b5b828203905092915050565b7f4e487b7100000000000000000000000000000000000000000000000000000000600052603260045260246000fd5b7f6e6f74207269676874207374616b650000000000000000000000000000000000600082015250565b6000613cbf600f83613914565b9150613cca82613c89565b602082019050919050565b60006020820190508181036000830152613cee81613cb2565b9050919050565b6000613d008261342c565b9150613d0b8361342c565b9250817fffffffffffffffffffffffffffffffffffffffffffffffffffffffffffffffff0483118215151615613d4457613d43613bf7565b5b828202905092915050565b7f4e487b7100000000000000000000000000000000000000000000000000000000600052601260045260246000fd5b6000613d898261342c565b9150613d948361342c565b925082613da457613da3613d4f565b5b828204905092915050565b7f6e6f7420612076616c6964206265740000000000000000000000000000000000600082015250565b6000613de5600f83613914565b9150613df082613daf565b602082019050919050565b60006020820190508181036000830152613e1481613dd8565b9050919050565b7f47616d65206973204f7665720000000000000000000000000000000000000000600082015250565b6000613e51600c83613914565b9150613e5c82613e1b565b602082019050919050565b60006020820190508181036000830152613e8081613e44565b9050919050565b6000613e928261342c565b91507fffffffffffffffffffffffffffffffffffffffffffffffffffffffffffffffff821415613ec557613ec4613bf7565b5b600182019050919050565b613ed981613779565b82525050565b6000819050919050565b6000613f04613eff613efa8461348f565b613edf565b61348f565b9050919050565b6000613f1682613ee9565b9050919050565b6000613f2882613f0b565b9050919050565b613f3881613f1d565b82525050565b6000608082019050613f536000830187613ed0565b613f606020830186613f2f565b613f6d6040830185613890565b613f7a60608301846139ea565b95945050505050565b6000613f8e8261342c565b9150613f998361342c565b9250827fffffffffffffffffffffffffffffffffffffffffffffffffffffffffffffffff03821115613fce57613fcd613bf7565b5b828201905092915050565b6000608082019050613fee6000830187613ed0565b613ffb6020830186613890565b61400860408301856139ea565b6140156060830184613a45565b95945050505050565b60006080820190506140336000830187613f2f565b6140406020830186613ed0565b61404d6040830185613890565b61405a60608301846139ea565b95945050505050565b7f67616d65206973206e6f74206f76657200000000000000000000000000000000600082015250565b6000614099601083613914565b91506140a482614063565b602082019050919050565b600060208201905081810360008301526140c88161408c565b9050919050565b7f756e76616c696420426574204e756d6265720000000000000000000000000000600082015250565b6000614105601283613914565b9150614110826140cf565b602082019050919050565b60006020820190508181036000830152614134816140f8565b9050919050565b7f796f7520617265206e6f7420616c6c6f77656400000000000000000000000000600082015250565b6000614171601383613914565b915061417c8261413b565b602082019050919050565b600060208201905081810360008301526141a081614164565b9050919050565b60006020820190506141bc60008301846139ea565b92915050565b7f4e487b7100000000000000000000000000000000000000000000000000000000600052602260045260246000fd5b6000600282049050600182168061420957607f821691505b6020821081141561421d5761421c6141c2565b5b5091905056fea2646970667358221220078e960a84e40f9cd331cea89ca05c654ddffd747014ccd5be00b4ca539caaab64736f6c63430008090033",
  "immutableReferences": {},
  "source": "// SPDX-License-Identifier: MIT\npragma solidity >=0.8.0 <0.9.0;\n\ncontract Games {\n\n    address payable public admin;\n    uint public gameId;\n    Game public game;\n    //uint backBetId;\n    //uint layBetId;\n    // bet counts\n    uint public betCount;\n    // hold all bets\n    Bet[] public allBets;\n\n    mapping(address => uint[]) playerBets; // tracks the id of players bets\n    mapping(Selection => mapping(uint => uint)) backBetsAvailable; // tracks amount of back bet availble : Selection => Odds => amount\n    mapping(Selection => mapping(uint => uint)) layBetsAvailable;// tracks amount of lay bet availble :  Selection => Odds => amount\n    mapping(Selection => mapping(uint => uint[])) backBetsId; // tracks the Bet id of the backBets : Selection => Odds => uint => Id\n    mapping(Selection => mapping(uint => uint[])) layBetsId; // tracks the Lay id of the backBets : Selection => Odds => uint => Id\n    mapping(Selection => mapping(uint => uint)) firstIndexOfBackBet; // track Id of first back bet available in the backBetsId[selection][odds],  Selection => Odds => Id\n    mapping(Selection => mapping(uint => uint)) firstIndexOfLayBet; // track Id of first back bet available in the backBetsId[selection][odds],  Selection => Odds => Id\n    mapping(address => mapping(Selection => uint)) playerPayout; // \n    mapping(address => uint) playerNumberOfBets; // tracks the amount of bets the player placed\n\n    enum BetType {Back, Lay}\n    enum Selection {Open, Home, Draw, Away}\n    enum GameStatus {Open, Over}\n    enum BetStatus {Unmatched, Matched, Closed, Win, Lose}\n\n   \n    event NewStatus();\n    event GameWinner(Selection selection);\n    event unmatchedBetCreated(address _player, uint256 _odds, Selection _selection, BetType _betType);\n    event betMatched(address _backer, address _layer, uint odds, Selection _selection);\n\n    struct Game {\n        address payable owner;\n        string teams;\n        GameStatus status;\n        Selection winner;\n\n    }\n\n    struct Bet {\n        address payable player;\n        BetType betType;\n        Selection selection;\n        //uint stake; gonna assume only 0.001 ether bet allowed\n        uint odds;\n        BetStatus status;\n        uint betId;\n\n       \n    }\n\n     // Check if caller is the admin\n    modifier isAdmin(address addr) {\n        require(addr==admin, \"you are not allowed\");\n        _;\n\n    }\n    // Check if the selection of the bet is correct \n    modifier isValidBet(Selection selection) {\n        require(selection != Selection.Open, \"not a valid bet\");\n        _;\n    }\n    // check if the game is over\n    modifier isOver() {\n        require(game.status == GameStatus.Over ,\"game is not over\");\n        _;\n    }\n \n    // check if game is still open\n    modifier isOpen() {\n        require(game.status == GameStatus.Open, \"Game is Over\");\n        _;\n    }\n\n    modifier isUnmatched(Bet memory bet) {\n        require(bet.status == BetStatus.Unmatched, \"Cant add already matched bet \");\n        _;\n    }\n\n    modifier isValidStake(BetType betType, uint _odds) {\n        if (betType == BetType.Back){\n            require(msg.value == 0.001 ether, \"not right stake\");\n        }\n        else if (betType == BetType.Lay) {\n            uint amount = ( _odds -100) * 0.001 ether / 100;\n            require(msg.value == amount, \"not right stake\");\n\n        }\n        _;\n    }\n\n   // we take _odds >100 then real odds is _odds /100 e.g 350 correspond to 3.5 odds\n    modifier isValidOdds(uint _odds) {\n        require(_odds>100, \"unvalid odds\");\n        _;\n    }\n    \n      // we take _odds >100 then real odds is _odds /100 e.g 350 correspond to 3.5 odds\n    modifier isValidId(uint _betId) {\n        require(_betId>0, \"unvalid Id\");\n        _;\n    }\n    \n    modifier isValidBetNumber(uint _betNumber, address _player) {\n        require(playerNumberOfBets[_player]>_betNumber, \"unvalid Bet Number\");\n        _;\n    }\n\n\n    constructor(string memory teams)  {\n        \n        admin = payable(msg.sender);\n        game.owner = admin;\n        game.teams = teams;\n        game.status = GameStatus.Open;\n        game.winner = Selection.Open;\n\n    }\n      \n// admin change game status\n   function changeGameStatus( Selection winner) public isAdmin(msg.sender) isOpen() returns(bool) {\n        game.status = GameStatus.Over;\n        game.winner = winner;\n        uint totalBets = allBets.length;\n        \n        for(uint i=0; i<totalBets; i++) {\n            if(allBets[i].status == BetStatus.Unmatched){\n                allBets[i].status = BetStatus.Closed;\n            } else if (allBets[i].status == BetStatus.Matched) {\n                if ((allBets[i].selection == winner && allBets[i].betType== BetType.Back) || (allBets[i].selection!= winner && allBets[i].betType== BetType.Lay)){\n                    allBets[i].status = BetStatus.Win;\n                } else {\n                     allBets[i].status = BetStatus.Lose;\n                }\n            }\n        \n        }\n        \n        emit GameWinner( winner);\n        \n        return true;\n\n\n\n    }\n\n// function for placing the bet\n    function placeBet(BetType _betType, Selection _selection, uint _odds) public payable isValidStake(_betType, _odds) isValidBet(_selection) isOpen()   {\n        betCount++;\n        Bet memory playerBet = Bet(payable(msg.sender), _betType, _selection, _odds, BetStatus.Unmatched, betCount);\n        allBets.push(playerBet);\n        playerBets[payable(msg.sender)].push(betCount);\n        playerNumberOfBets[payable(msg.sender)]++;\n\n         \n\n        if(_betType == BetType.Back){\n            backBetsId[_selection][_odds].push(betCount);\n            // Check if possible to match the bet\n            if (layBetsAvailable[_selection][_odds]>0) {\n\n                uint layId = firstIndexOfLayBet[_selection][_odds];\n                uint layBetId = layBetsId[_selection][_odds][layId]; // get Id of the lay bet\n                allBets[betCount-1].status = BetStatus.Matched;\n                allBets[layBetId-1].status = BetStatus.Matched;\n                firstIndexOfLayBet[_selection][_odds] ++; // increment the index\n                layBetsAvailable[_selection][_odds]-=1; // decrement number of laybet available\n                address payable layPlayer = allBets[layBetId-1].player;\n                incrementPotentialPayout(payable(msg.sender), _odds,  _selection, BetType.Back);\n                incrementWithStake(payable(msg.sender), _odds, BetType.Back);\n                decrementWithStake(payable(msg.sender), _odds, _selection, BetType.Back);\n                decrementWithStake(layPlayer, _odds, _selection, BetType.Lay);\n                incrementPotentialPayout(layPlayer, _odds,  _selection, BetType.Lay);\n                emit betMatched(msg.sender, layPlayer,  _odds,  _selection);\n            \n            }\n           \n\n            else if (layBetsAvailable[_selection][_odds] == 0) {\n                backBetsAvailable[_selection][_odds]+=1;\n                // do something for first index\n\n\n                incrementWithStake(payable(msg.sender), _odds,  BetType.Back);\n                emit unmatchedBetCreated(msg.sender,  _odds,  _selection,  _betType);\n            }\n            \n\n                \n            \n        }\n\n        else if (_betType == BetType.Lay) {\n\n            backBetsId[_selection][_odds].push(betCount);\n\n            // Check if possible to match the bet\n            if (backBetsAvailable[_selection][_odds]>0) {\n\n                uint backId = firstIndexOfBackBet[_selection][_odds];\n                uint backBetId = backBetsId[_selection][_odds][backId]; // get Id of the back bet\n                allBets[betCount-1].status = BetStatus.Matched;\n                allBets[backBetId-1].status = BetStatus.Matched;\n                firstIndexOfBackBet[_selection][_odds] ++; // increment the index\n                backBetsAvailable[_selection][_odds]-=1; // decrement number of laybet available\n                address payable backPlayer = allBets[backBetId-1].player;\n\n                \n                incrementPotentialPayout(payable(msg.sender), _odds,  _selection, BetType.Lay);\n                incrementWithStake(payable(msg.sender), _odds,  BetType.Lay);\n                decrementWithStake(payable(msg.sender), _odds, _selection, BetType.Lay);\n                decrementWithStake(backPlayer, _odds, _selection, BetType.Back);\n                incrementPotentialPayout(backPlayer, _odds,  _selection, BetType.Back);\n                emit betMatched(backPlayer, msg.sender,  _odds,  _selection);\n                \n\n            \n            }\n           \n\n            else if (backBetsAvailable[_selection][_odds] == 0) {\n                layBetsAvailable[_selection][_odds]+=1;\n                incrementWithStake(payable(msg.sender), _odds,  BetType.Lay);\n                emit unmatchedBetCreated(msg.sender,  _odds,  _selection,  _betType);\n            }\n            \n        }\n        \n        \n\n\n    }\n    \n    \n\n\n\n// increments the playerPayout of the player with potential winning \n    function incrementPotentialPayout(address payable _player, uint _odds, Selection _selection, BetType _betType) internal {\n        if (_betType == BetType.Back) {\n            playerPayout[_player][_selection] += (_odds - 100)* 0.001 ether/100;\n        }\n\n        else if (_betType == BetType.Lay) {\n            if(_selection == Selection.Home) {\n                playerPayout[_player][Selection.Draw] += 0.001 ether;\n                playerPayout[_player][Selection.Away] += 0.001 ether;\n            }\n            else if(_selection == Selection.Draw) {\n                playerPayout[_player][Selection.Home] += 0.001 ether;\n                playerPayout[_player][Selection.Away] += 0.001 ether;\n            }\n            else if(_selection == Selection.Away) {\n                playerPayout[_player][Selection.Home] += 0.001 ether;\n                playerPayout[_player][Selection.Draw] += 0.001 ether;\n            }\n        }\n    }\n\n// increment playerPayout with his stake\n    function incrementWithStake(address payable _player, uint _odds,  BetType _betType) internal {\n        if (_betType == BetType.Back) {\n            playerPayout[_player][Selection.Draw] += 0.001 ether;\n            playerPayout[_player][Selection.Away] += 0.001 ether;\n            playerPayout[_player][Selection.Home] += 0.001 ether;\n        }\n\n        else if (_betType == BetType.Lay) {\n            playerPayout[_player][Selection.Away] += (_odds -100) * 0.001 ether / 100;\n            playerPayout[_player][Selection.Home] += (_odds -100) * 0.001 ether / 100;\n            playerPayout[_player][Selection.Draw] += (_odds -100) * 0.001 ether / 100;\n\n        }\n    }\n// decrements playerPayout to take into account the bet is matched\n    function decrementWithStake(address payable _player, uint _odds, Selection _selection, BetType _betType) internal {\n        if (_betType == BetType.Back) {\n            if(_selection == Selection.Home) {\n                playerPayout[_player][Selection.Draw] -= 0.001 ether;\n                playerPayout[_player][Selection.Away] -= 0.001 ether;\n            }\n            else if(_selection == Selection.Draw) {\n                playerPayout[_player][Selection.Home] -= 0.001 ether;\n                playerPayout[_player][Selection.Away] -= 0.001 ether;\n            }\n            else if(_selection == Selection.Away) {\n                playerPayout[_player][Selection.Home] -= 0.001 ether;\n                playerPayout[_player][Selection.Draw] -= 0.001 ether;\n            }\n        }\n            \n        \n\n        else if (_betType == BetType.Lay) {\n            playerPayout[_player][_selection] -= (_odds -100) * 0.001 ether / 100;\n            \n\n        }\n\n\n    }\n\n\n\n//   returns current player current payout\n    function getPayout(address payable _player, Selection _selection) public view returns(uint) {\n        uint _payout = playerPayout[_player][_selection];\n        return _payout;\n    }  \n\n    function getBackBetsAvailable(Selection _selection, uint _odds) public view returns(uint) {\n        uint backbets = backBetsAvailable[_selection][_odds];\n        return backbets;\n    }\n\n    function getLayBetsAvailable(Selection _selection, uint _odds) public view returns(uint) {\n        uint laybets = layBetsAvailable[_selection][_odds];\n        return laybets;\n    }\n\n    function getPlayerNumberOfBets(address _player) public view returns(uint) {\n        return playerNumberOfBets[_player];\n    }\n\n    //function getPlayerBet(address _player, uint _betId) public view returns(Bet memory) {\n       // return 0;\n  // }\n    function getBet(uint _betId) public view isValidId(_betId) returns( Bet memory) {\n        require(_betId <= betCount, \"Not such Bet with this Bet Id\");\n        return allBets[_betId-1];\n        \n    }\n    \n    function getPlayerBet(address _player, uint _betNumber) public view isValidBetNumber(_betNumber, _player) returns(Bet memory) {\n        uint _betId = playerBets[_player][_betNumber] -1;\n        return allBets[_betId];\n        \n    }\n    \n    function getTeams() public view returns(string memory)  {\n        return game.teams;\n    }\n    \n    function getBetStatus(uint _betId)  public view isValidId(_betId) returns(BetStatus)  {\n        return allBets[_betId-1].status;\n    }\n\n\n\n    // player call payout to get paid\n    function payout() public isOver() returns(bool) {\n        address payable _player = payable(msg.sender);\n        uint _payoutAmount;\n        if (game.winner == Selection.Home){\n            _payoutAmount = playerPayout[_player][Selection.Home];\n            playerPayout[_player][Selection.Home] = 0;\n            _player.transfer(_payoutAmount);\n            return true;\n\n\n        }\n\n        else if (game.winner == Selection.Draw){\n            _payoutAmount = playerPayout[_player][Selection.Draw];\n            playerPayout[_player][Selection.Draw] = 0;\n            _player.transfer(_payoutAmount);\n            return true;\n\n\n        }\n\n        else if (game.winner == Selection.Away){\n            _payoutAmount = playerPayout[_player][Selection.Away];\n            playerPayout[_player][Selection.Away] = 0;\n            _player.transfer(_payoutAmount);\n            return true;\n\n\n        }\n        return false;\n\n    }\n\n\n  \n\n\n}",
  "sourcePath": "/Users/baraa/Github/blockchain-developer-bootcamp-final-project/contracts/Games.sol",
  "compiler": {
    "name": "solc",
    "version": "0.8.9+commit.e5eed63a.Emscripten.clang"
  },
  "schemaVersion": "3.4.3",
  "updatedAt": "2021-11-06T19:07:37.570Z",
  "networkType": "ethereum",
  "devdoc": {
    "kind": "dev",
    "methods": {},
    "version": 1
  },
  "userdoc": {
    "kind": "user",
    "methods": {},
    "version": 1
  }
}