{
  "contractName": "PlaceBet",
  "abi": [
    {
      "inputs": [
        {
          "internalType": "string",
          "name": "teams",
          "type": "string"
        }
      ],
      "stateMutability": "nonpayable",
      "type": "constructor"
    },
    {
      "inputs": [],
      "name": "admin",
      "outputs": [
        {
          "internalType": "address",
          "name": "",
          "type": "address"
        }
      ],
      "stateMutability": "view",
      "type": "function"
    },
    {
      "inputs": [],
      "name": "betCount",
      "outputs": [
        {
          "internalType": "uint256",
          "name": "",
          "type": "uint256"
        }
      ],
      "stateMutability": "view",
      "type": "function"
    },
    {
      "inputs": [
        {
          "internalType": "enum PlaceBet.BetType",
          "name": "_betType",
          "type": "uint8"
        },
        {
          "internalType": "enum PlaceBet.Selection",
          "name": "_selection",
          "type": "uint8"
        },
        {
          "internalType": "uint256",
          "name": "_odds",
          "type": "uint256"
        }
      ],
      "name": "placeBet",
      "outputs": [],
      "stateMutability": "payable",
      "type": "function"
    }
  ],
  "bytecode": "0x60806040523480156200001157600080fd5b50604051620012f1380380620012f18339818101604052810190620000379190620003b3565b336000806101000a81548173ffffffffffffffffffffffffffffffffffffffff021916908373ffffffffffffffffffffffffffffffffffffffff16021790555060008054906101000a900473ffffffffffffffffffffffffffffffffffffffff16600260000160006101000a81548173ffffffffffffffffffffffffffffffffffffffff021916908373ffffffffffffffffffffffffffffffffffffffff1602179055508060026001019080519060200190620000f692919062000166565b5060006002800160006101000a81548160ff0219169083600181111562000122576200012162000404565b5b021790555060006002800160016101000a81548160ff0219169083600381111562000152576200015162000404565b5b021790555060006005819055505062000498565b828054620001749062000462565b90600052602060002090601f016020900481019282620001985760008555620001e4565b82601f10620001b357805160ff1916838001178555620001e4565b82800160010185558215620001e4579182015b82811115620001e3578251825591602001919060010190620001c6565b5b509050620001f39190620001f7565b5090565b5b8082111562000212576000816000905550600101620001f8565b5090565b6000604051905090565b600080fd5b600080fd5b600080fd5b600080fd5b6000601f19601f8301169050919050565b7f4e487b7100000000000000000000000000000000000000000000000000000000600052604160045260246000fd5b6200027f8262000234565b810181811067ffffffffffffffff82111715620002a157620002a062000245565b5b80604052505050565b6000620002b662000216565b9050620002c4828262000274565b919050565b600067ffffffffffffffff821115620002e757620002e662000245565b5b620002f28262000234565b9050602081019050919050565b60005b838110156200031f57808201518184015260208101905062000302565b838111156200032f576000848401525b50505050565b60006200034c6200034684620002c9565b620002aa565b9050828152602081018484840111156200036b576200036a6200022f565b5b62000378848285620002ff565b509392505050565b600082601f8301126200039857620003976200022a565b5b8151620003aa84826020860162000335565b91505092915050565b600060208284031215620003cc57620003cb62000220565b5b600082015167ffffffffffffffff811115620003ed57620003ec62000225565b5b620003fb8482850162000380565b91505092915050565b7f4e487b7100000000000000000000000000000000000000000000000000000000600052602160045260246000fd5b7f4e487b7100000000000000000000000000000000000000000000000000000000600052602260045260246000fd5b600060028204905060018216806200047b57607f821691505b6020821081141562000492576200049162000433565b5b50919050565b610e4980620004a86000396000f3fe6080604052600436106100345760003560e01c8063399b5c4614610039578063cf09449714610055578063f851a44014610080575b600080fd5b610053600480360381019061004e9190610bda565b6100ab565b005b34801561006157600080fd5b5061006a610b2b565b6040516100779190610c3c565b60405180910390f35b34801561008c57600080fd5b50610095610b31565b6040516100a29190610c98565b60405180910390f35b600560008154809291906100be90610ce2565b919050555060006040518060c001604052803373ffffffffffffffffffffffffffffffffffffffff1681526020018560018111156100ff576100fe610d2b565b5b815260200184600381111561011757610116610d2b565b5b81526020018381526020016000600481111561013657610135610d2b565b5b815260200160055481525090508060066005548154811061015a57610159610d5a565b5b906000526020600020906004020160008201518160000160006101000a81548173ffffffffffffffffffffffffffffffffffffffff021916908373ffffffffffffffffffffffffffffffffffffffff16021790555060208201518160000160146101000a81548160ff021916908360018111156101da576101d9610d2b565b5b021790555060408201518160000160156101000a81548160ff0219169083600381111561020a57610209610d2b565b5b02179055506060820151816001015560808201518160020160006101000a81548160ff0219169083600481111561024457610243610d2b565b5b021790555060a08201518160030155905050600760003373ffffffffffffffffffffffffffffffffffffffff1673ffffffffffffffffffffffffffffffffffffffff1681526020019081526020016000206005549080600181540180825580915050600190039060005260206000200160009091909190915055600f60003373ffffffffffffffffffffffffffffffffffffffff1673ffffffffffffffffffffffffffffffffffffffff168152602001908152602001600020600081548092919061030e90610ce2565b91905055506000600181111561032757610326610d2b565b5b84600181111561033a57610339610d2b565b5b141561071e57600a600084600381111561035757610356610d2b565b5b600381111561036957610368610d2b565b5b8152602001908152602001600020600083815260200190815260200160002060055490806001815401808255809150506001900390600052602060002001600090919091909150556000600960008560038111156103ca576103c9610d2b565b5b60038111156103dc576103db610d2b565b5b81526020019081526020016000206000848152602001908152602001600020541115610666576000600d600085600381111561041b5761041a610d2b565b5b600381111561042d5761042c610d2b565b5b815260200190815260200160002060008481526020019081526020016000205490506000600b600086600381111561046857610467610d2b565b5b600381111561047a57610479610d2b565b5b8152602001908152602001600020600085815260200190815260200160002082815481106104ab576104aa610d5a565b5b9060005260206000200154905060016006600554815481106104d0576104cf610d5a565b5b906000526020600020906004020160020160006101000a81548160ff0219169083600481111561050357610502610d2b565b5b021790555060016006828154811061051e5761051d610d5a565b5b906000526020600020906004020160020160006101000a81548160ff0219169083600481111561055157610550610d2b565b5b0217905550600d600086600381111561056d5761056c610d2b565b5b600381111561057f5761057e610d2b565b5b8152602001908152602001600020600085815260200190815260200160002060008154809291906105af90610ce2565b91905055506001600960008760038111156105cd576105cc610d2b565b5b60038111156105df576105de610d2b565b5b81526020019081526020016000206000868152602001908152602001600020600082825461060d9190610d89565b9250508190555060006006828154811061062a57610629610d5a565b5b906000526020600020906004020160000160009054906101000a900473ffffffffffffffffffffffffffffffffffffffff169050505050610719565b60006009600085600381111561067f5761067e610d2b565b5b600381111561069157610690610d2b565b5b81526020019081526020016000206000848152602001908152602001600020541415610718576001600860008560038111156106d0576106cf610d2b565b5b60038111156106e2576106e1610d2b565b5b8152602001908152602001600020600084815260200190815260200160002060008282546107109190610dbd565b925050819055505b5b610b25565b60018081111561073157610730610d2b565b5b84600181111561074457610743610d2b565b5b1415610b2457600a600084600381111561076157610760610d2b565b5b600381111561077357610772610d2b565b5b8152602001908152602001600020600083815260200190815260200160002060055490806001815401808255809150506001900390600052602060002001600090919091909150556000600860008560038111156107d4576107d3610d2b565b5b60038111156107e6576107e5610d2b565b5b81526020019081526020016000206000848152602001908152602001600020541115610a70576000600c600085600381111561082557610824610d2b565b5b600381111561083757610836610d2b565b5b815260200190815260200160002060008481526020019081526020016000205490506000600a600086600381111561087257610871610d2b565b5b600381111561088457610883610d2b565b5b8152602001908152602001600020600085815260200190815260200160002082815481106108b5576108b4610d5a565b5b9060005260206000200154905060016006600554815481106108da576108d9610d5a565b5b906000526020600020906004020160020160006101000a81548160ff0219169083600481111561090d5761090c610d2b565b5b021790555060016006828154811061092857610927610d5a565b5b906000526020600020906004020160020160006101000a81548160ff0219169083600481111561095b5761095a610d2b565b5b0217905550600c600086600381111561097757610976610d2b565b5b600381111561098957610988610d2b565b5b8152602001908152602001600020600085815260200190815260200160002060008154809291906109b990610ce2565b91905055506001600860008760038111156109d7576109d6610d2b565b5b60038111156109e9576109e8610d2b565b5b815260200190815260200160002060008681526020019081526020016000206000828254610a179190610d89565b92505081905550600060068281548110610a3457610a33610d5a565b5b906000526020600020906004020160000160009054906101000a900473ffffffffffffffffffffffffffffffffffffffff169050505050610b23565b600060086000856003811115610a8957610a88610d2b565b5b6003811115610a9b57610a9a610d2b565b5b81526020019081526020016000206000848152602001908152602001600020541415610b2257600160096000856003811115610ada57610ad9610d2b565b5b6003811115610aec57610aeb610d2b565b5b815260200190815260200160002060008481526020019081526020016000206000828254610b1a9190610dbd565b925050819055505b5b5b5b50505050565b60055481565b60008054906101000a900473ffffffffffffffffffffffffffffffffffffffff1681565b600080fd5b60028110610b6757600080fd5b50565b600081359050610b7981610b5a565b92915050565b60048110610b8c57600080fd5b50565b600081359050610b9e81610b7f565b92915050565b6000819050919050565b610bb781610ba4565b8114610bc257600080fd5b50565b600081359050610bd481610bae565b92915050565b600080600060608486031215610bf357610bf2610b55565b5b6000610c0186828701610b6a565b9350506020610c1286828701610b8f565b9250506040610c2386828701610bc5565b9150509250925092565b610c3681610ba4565b82525050565b6000602082019050610c516000830184610c2d565b92915050565b600073ffffffffffffffffffffffffffffffffffffffff82169050919050565b6000610c8282610c57565b9050919050565b610c9281610c77565b82525050565b6000602082019050610cad6000830184610c89565b92915050565b7f4e487b7100000000000000000000000000000000000000000000000000000000600052601160045260246000fd5b6000610ced82610ba4565b91507fffffffffffffffffffffffffffffffffffffffffffffffffffffffffffffffff821415610d2057610d1f610cb3565b5b600182019050919050565b7f4e487b7100000000000000000000000000000000000000000000000000000000600052602160045260246000fd5b7f4e487b7100000000000000000000000000000000000000000000000000000000600052603260045260246000fd5b6000610d9482610ba4565b9150610d9f83610ba4565b925082821015610db257610db1610cb3565b5b828203905092915050565b6000610dc882610ba4565b9150610dd383610ba4565b9250827fffffffffffffffffffffffffffffffffffffffffffffffffffffffffffffffff03821115610e0857610e07610cb3565b5b82820190509291505056fea2646970667358221220b56c26e7d1f7b27a636bcf02af91d4ee5588174e53bec3e5001366431a06b3d864736f6c63430008090033",
  "immutableReferences": {},
  "source": "pragma solidity >=0.8.0 <0.9.0;\n\ncontract PlaceBet {\n\n    address  public admin;\n    uint gameId;\n    Game game;\n    //uint backBetId;\n    //uint layBetId;\n    // bet counts\n    uint public betCount;\n    // hold all bets\n    Bet[] allBets;\n\n    mapping(address => uint[]) playerBets; // tracks the id of players bets\n    mapping(Selection => mapping(uint => uint)) backBetsAvailable; // tracks amount of back bet availble : Selection => Odds => amount\n    mapping(Selection => mapping(uint => uint)) layBetsAvailable;// tracks amount of lay bet availble :  Selection => Odds => amount\n    mapping(Selection => mapping(uint => uint[])) backBetsId; // tracks the Bet id of the backBets : Selection => Odds => uint => Id\n    mapping(Selection => mapping(uint => uint[])) layBetsId; // tracks the Lay id of the backBets : Selection => Odds => uint => Id\n    mapping(Selection => mapping(uint => uint)) firstIndexOfBackBet; // track Id of first back bet available in the backBetsId[selection][odds],  Selection => Odds => Id\n    mapping(Selection => mapping(uint => uint)) firstIndexOfLayBet; // track Id of first back bet available in the backBetsId[selection][odds],  Selection => Odds => Id\n    mapping(address => mapping(Selection => uint)) playerPayout; // \n    mapping(address => uint) playerNumberOfBets; // tracks the amount of bets the player placed\n    //mapping(uint => bool) isBetMatched; // tracks if Bet with BetId is matched or not\n\n    enum BetType {Back, Lay}\n    enum Selection {Open, Home, Draw, Away}\n    enum GameStatus {Open, Over}\n    enum BetStatus {Unmachted, Matched, Closed, Win, Lose}\n\n     struct Game {\n        address owner;\n        string teams;\n        GameStatus status;\n        Selection winner;\n\n    }\n\n    struct Bet {\n        address payable player;\n        BetType betType;\n        Selection selection;\n        //uint stake; gonna assume only 0.001 ether bet allowed\n        uint odds;\n        BetStatus status;\n        uint betId;\n       \n    }\n\n    constructor( string memory teams)  {\n        \n        admin = msg.sender;\n        game.owner = admin;\n        game.teams = teams;\n        game.status = GameStatus.Open;\n        game.winner = Selection.Open;\n        betCount = 0;\n        \n\n\n    }\n\n    function placeBet(BetType _betType, Selection _selection, uint _odds) public payable   {\n        betCount++;\n        Bet memory playerBet = Bet(payable(msg.sender), _betType, _selection, _odds, BetStatus.Unmachted, betCount);\n        allBets[betCount] = playerBet;\n        playerBets[payable(msg.sender)].push(betCount);\n        playerNumberOfBets[payable(msg.sender)]++;\n\n         \n\n        if(_betType == BetType.Back){\n            backBetsId[_selection][_odds].push(betCount);\n            // Check if possible to match the bet\n            if (layBetsAvailable[_selection][_odds]>0) {\n\n                uint layId = firstIndexOfLayBet[_selection][_odds];\n                uint layBetId = layBetsId[_selection][_odds][layId]; // get Id of the lay bet\n                allBets[betCount].status = BetStatus.Matched;\n                allBets[layBetId].status = BetStatus.Matched;\n                firstIndexOfLayBet[_selection][_odds] ++; // increment the index\n                layBetsAvailable[_selection][_odds]-=1; // decrement number of laybet available\n                address payable layPlayer = allBets[layBetId].player;\n                //incrementPotentialPayout(payable(msg.sender), _odds,  _selection, BetType.Back);\n                //incrementWithStake(payable(msg.sender), _odds, BetType.Back);\n                //decrementWithStake(payable(msg.sender), _odds, _selection, BetType.Back);\n                //decrementWithStake(layPlayer, _odds, _selection, BetType.Lay);\n                //incrementPotentialPayout(layPlayer, _odds,  _selection, BetType.Lay);\n            \n            }\n           \n\n            else if (layBetsAvailable[_selection][_odds] == 0) {\n                backBetsAvailable[_selection][_odds]+=1;\n\n\n                //incrementWithStake(payable(msg.sender), _odds,  BetType.Back);\n            }\n            \n\n                \n            \n        }\n\n        else if (_betType == BetType.Lay) {\n\n            backBetsId[_selection][_odds].push(betCount);\n\n            // Check if possible to match the bet\n            if (backBetsAvailable[_selection][_odds]>0) {\n\n                uint backId = firstIndexOfBackBet[_selection][_odds];\n                uint backBetId = backBetsId[_selection][_odds][backId]; // get Id of the back bet\n                allBets[betCount].status = BetStatus.Matched;\n                allBets[backBetId].status = BetStatus.Matched;\n                firstIndexOfBackBet[_selection][_odds] ++; // increment the index\n                backBetsAvailable[_selection][_odds]-=1; // decrement number of laybet available\n                address payable backPlayer = allBets[backBetId].player;\n\n                \n                //incrementPotentialPayout(payable(msg.sender), _odds,  _selection, BetType.Lay);\n                //incrementWithStake(payable(msg.sender), _odds,  BetType.Lay);\n                //decrementWithStake(payable(msg.sender), _odds, _selection, BetType.Lay);\n                //decrementWithStake(backPlayer, _odds, _selection, BetType.Back);\n                //incrementPotentialPayout(backPlayer, _odds,  _selection, BetType.Back);\n                \n\n            \n            }\n           \n\n            else if (backBetsAvailable[_selection][_odds] == 0) {\n                layBetsAvailable[_selection][_odds]+=1;\n            }\n            \n        }\n        \n        \n\n\n    }\n\n\n\n}",
  "sourcePath": "/Users/baraa/Github/blockchain-developer-bootcamp-final-project/contracts/placeBet.sol",
  "compiler": {
    "name": "solc",
    "version": "0.8.9+commit.e5eed63a.Emscripten.clang"
  },
  "schemaVersion": "3.4.3",
  "updatedAt": "2021-11-04T13:55:40.738Z",
  "devdoc": {
    "kind": "dev",
    "methods": {},
    "version": 1
  },
  "userdoc": {
    "kind": "user",
    "methods": {},
    "version": 1
  }
}