{
  "contractName": "PlaceBet",
  "abi": [
    {
      "inputs": [
        {
          "internalType": "string",
          "name": "teams",
          "type": "string"
        }
      ],
      "stateMutability": "nonpayable",
      "type": "constructor"
    },
    {
      "anonymous": false,
      "inputs": [
        {
          "indexed": false,
          "internalType": "address",
          "name": "_backer",
          "type": "address"
        },
        {
          "indexed": false,
          "internalType": "address",
          "name": "_layer",
          "type": "address"
        },
        {
          "indexed": false,
          "internalType": "uint256",
          "name": "odds",
          "type": "uint256"
        },
        {
          "indexed": false,
          "internalType": "enum PlaceBet.Selection",
          "name": "_selection",
          "type": "uint8"
        }
      ],
      "name": "BetMatched",
      "type": "event"
    },
    {
      "anonymous": false,
      "inputs": [
        {
          "indexed": false,
          "internalType": "enum PlaceBet.Selection",
          "name": "selection",
          "type": "uint8"
        }
      ],
      "name": "GameWinner",
      "type": "event"
    },
    {
      "anonymous": false,
      "inputs": [],
      "name": "NewStatus",
      "type": "event"
    },
    {
      "anonymous": false,
      "inputs": [
        {
          "indexed": true,
          "internalType": "address",
          "name": "previousOwner",
          "type": "address"
        },
        {
          "indexed": true,
          "internalType": "address",
          "name": "newOwner",
          "type": "address"
        }
      ],
      "name": "OwnershipTransferred",
      "type": "event"
    },
    {
      "anonymous": false,
      "inputs": [
        {
          "components": [
            {
              "internalType": "address",
              "name": "owner",
              "type": "address"
            },
            {
              "internalType": "string",
              "name": "teams",
              "type": "string"
            },
            {
              "internalType": "enum PlaceBet.GameStatus",
              "name": "status",
              "type": "uint8"
            },
            {
              "internalType": "enum PlaceBet.Selection",
              "name": "winner",
              "type": "uint8"
            }
          ],
          "indexed": false,
          "internalType": "struct PlaceBet.Game",
          "name": "_game",
          "type": "tuple"
        }
      ],
      "name": "Payout",
      "type": "event"
    },
    {
      "anonymous": false,
      "inputs": [
        {
          "indexed": false,
          "internalType": "address",
          "name": "player",
          "type": "address"
        },
        {
          "indexed": false,
          "internalType": "uint256",
          "name": "amount",
          "type": "uint256"
        }
      ],
      "name": "PlayerDeposit",
      "type": "event"
    },
    {
      "anonymous": false,
      "inputs": [
        {
          "indexed": false,
          "internalType": "address",
          "name": "player",
          "type": "address"
        },
        {
          "indexed": false,
          "internalType": "uint256",
          "name": "amount",
          "type": "uint256"
        }
      ],
      "name": "PlayerWithdrawal",
      "type": "event"
    },
    {
      "anonymous": false,
      "inputs": [
        {
          "indexed": false,
          "internalType": "address",
          "name": "user",
          "type": "address"
        },
        {
          "indexed": false,
          "internalType": "uint256",
          "name": "amount",
          "type": "uint256"
        }
      ],
      "name": "ValueReceived",
      "type": "event"
    },
    {
      "anonymous": false,
      "inputs": [
        {
          "indexed": false,
          "internalType": "address",
          "name": "_player",
          "type": "address"
        },
        {
          "indexed": false,
          "internalType": "uint256",
          "name": "_odds",
          "type": "uint256"
        },
        {
          "indexed": false,
          "internalType": "enum PlaceBet.Selection",
          "name": "_selection",
          "type": "uint8"
        },
        {
          "indexed": false,
          "internalType": "enum PlaceBet.BetType",
          "name": "_betType",
          "type": "uint8"
        }
      ],
      "name": "unmatchedBetCreated",
      "type": "event"
    },
    {
      "stateMutability": "payable",
      "type": "fallback"
    },
    {
      "inputs": [],
      "name": "admin",
      "outputs": [
        {
          "internalType": "address",
          "name": "",
          "type": "address"
        }
      ],
      "stateMutability": "view",
      "type": "function"
    },
    {
      "inputs": [
        {
          "internalType": "uint256",
          "name": "",
          "type": "uint256"
        }
      ],
      "name": "allBets",
      "outputs": [
        {
          "internalType": "address",
          "name": "player",
          "type": "address"
        },
        {
          "internalType": "enum PlaceBet.BetType",
          "name": "betType",
          "type": "uint8"
        },
        {
          "internalType": "enum PlaceBet.Selection",
          "name": "selection",
          "type": "uint8"
        },
        {
          "internalType": "enum PlaceBet.Stake",
          "name": "stake",
          "type": "uint8"
        },
        {
          "internalType": "uint256",
          "name": "odds",
          "type": "uint256"
        },
        {
          "internalType": "enum PlaceBet.BetStatus",
          "name": "status",
          "type": "uint8"
        },
        {
          "internalType": "uint256",
          "name": "betId",
          "type": "uint256"
        }
      ],
      "stateMutability": "view",
      "type": "function"
    },
    {
      "inputs": [
        {
          "internalType": "enum PlaceBet.Selection",
          "name": "",
          "type": "uint8"
        },
        {
          "internalType": "uint256",
          "name": "",
          "type": "uint256"
        },
        {
          "internalType": "uint256",
          "name": "",
          "type": "uint256"
        }
      ],
      "name": "backBetsAvailable",
      "outputs": [
        {
          "internalType": "uint256",
          "name": "",
          "type": "uint256"
        }
      ],
      "stateMutability": "view",
      "type": "function"
    },
    {
      "inputs": [
        {
          "internalType": "enum PlaceBet.Selection",
          "name": "",
          "type": "uint8"
        },
        {
          "internalType": "uint256",
          "name": "",
          "type": "uint256"
        },
        {
          "internalType": "uint256",
          "name": "",
          "type": "uint256"
        },
        {
          "internalType": "uint256",
          "name": "",
          "type": "uint256"
        }
      ],
      "name": "backBetsId",
      "outputs": [
        {
          "internalType": "uint256",
          "name": "",
          "type": "uint256"
        }
      ],
      "stateMutability": "view",
      "type": "function"
    },
    {
      "inputs": [],
      "name": "betCount",
      "outputs": [
        {
          "internalType": "uint256",
          "name": "",
          "type": "uint256"
        }
      ],
      "stateMutability": "view",
      "type": "function"
    },
    {
      "inputs": [
        {
          "internalType": "uint256",
          "name": "amount",
          "type": "uint256"
        }
      ],
      "name": "deposit",
      "outputs": [],
      "stateMutability": "payable",
      "type": "function"
    },
    {
      "inputs": [
        {
          "internalType": "enum PlaceBet.Selection",
          "name": "",
          "type": "uint8"
        },
        {
          "internalType": "uint256",
          "name": "",
          "type": "uint256"
        },
        {
          "internalType": "uint256",
          "name": "",
          "type": "uint256"
        }
      ],
      "name": "firstIndexOfBackBet",
      "outputs": [
        {
          "internalType": "uint256",
          "name": "",
          "type": "uint256"
        }
      ],
      "stateMutability": "view",
      "type": "function"
    },
    {
      "inputs": [
        {
          "internalType": "enum PlaceBet.Selection",
          "name": "",
          "type": "uint8"
        },
        {
          "internalType": "uint256",
          "name": "",
          "type": "uint256"
        },
        {
          "internalType": "uint256",
          "name": "",
          "type": "uint256"
        }
      ],
      "name": "firstIndexOfLayBet",
      "outputs": [
        {
          "internalType": "uint256",
          "name": "",
          "type": "uint256"
        }
      ],
      "stateMutability": "view",
      "type": "function"
    },
    {
      "inputs": [],
      "name": "game",
      "outputs": [
        {
          "internalType": "address",
          "name": "owner",
          "type": "address"
        },
        {
          "internalType": "string",
          "name": "teams",
          "type": "string"
        },
        {
          "internalType": "enum PlaceBet.GameStatus",
          "name": "status",
          "type": "uint8"
        },
        {
          "internalType": "enum PlaceBet.Selection",
          "name": "winner",
          "type": "uint8"
        }
      ],
      "stateMutability": "view",
      "type": "function"
    },
    {
      "inputs": [
        {
          "internalType": "address",
          "name": "_player",
          "type": "address"
        }
      ],
      "name": "getBalance",
      "outputs": [
        {
          "internalType": "uint256",
          "name": "",
          "type": "uint256"
        }
      ],
      "stateMutability": "view",
      "type": "function"
    },
    {
      "inputs": [
        {
          "internalType": "enum PlaceBet.Selection",
          "name": "",
          "type": "uint8"
        },
        {
          "internalType": "uint256",
          "name": "",
          "type": "uint256"
        },
        {
          "internalType": "uint256",
          "name": "",
          "type": "uint256"
        }
      ],
      "name": "layBetsAvailable",
      "outputs": [
        {
          "internalType": "uint256",
          "name": "",
          "type": "uint256"
        }
      ],
      "stateMutability": "view",
      "type": "function"
    },
    {
      "inputs": [
        {
          "internalType": "enum PlaceBet.Selection",
          "name": "",
          "type": "uint8"
        },
        {
          "internalType": "uint256",
          "name": "",
          "type": "uint256"
        },
        {
          "internalType": "uint256",
          "name": "",
          "type": "uint256"
        },
        {
          "internalType": "uint256",
          "name": "",
          "type": "uint256"
        }
      ],
      "name": "layBetsId",
      "outputs": [
        {
          "internalType": "uint256",
          "name": "",
          "type": "uint256"
        }
      ],
      "stateMutability": "view",
      "type": "function"
    },
    {
      "inputs": [],
      "name": "owner",
      "outputs": [
        {
          "internalType": "address",
          "name": "",
          "type": "address"
        }
      ],
      "stateMutability": "view",
      "type": "function"
    },
    {
      "inputs": [
        {
          "internalType": "uint256",
          "name": "",
          "type": "uint256"
        }
      ],
      "name": "players",
      "outputs": [
        {
          "internalType": "address",
          "name": "",
          "type": "address"
        }
      ],
      "stateMutability": "view",
      "type": "function"
    },
    {
      "inputs": [],
      "name": "renounceOwnership",
      "outputs": [],
      "stateMutability": "nonpayable",
      "type": "function"
    },
    {
      "inputs": [
        {
          "internalType": "address",
          "name": "newOwner",
          "type": "address"
        }
      ],
      "name": "transferOwnership",
      "outputs": [],
      "stateMutability": "nonpayable",
      "type": "function"
    },
    {
      "inputs": [
        {
          "internalType": "uint256",
          "name": "amount",
          "type": "uint256"
        }
      ],
      "name": "withdraw",
      "outputs": [],
      "stateMutability": "nonpayable",
      "type": "function"
    },
    {
      "inputs": [],
      "name": "withdrawAll",
      "outputs": [],
      "stateMutability": "nonpayable",
      "type": "function"
    },
    {
      "stateMutability": "payable",
      "type": "receive"
    },
    {
      "inputs": [
        {
          "internalType": "enum PlaceBet.Selection",
          "name": "winner",
          "type": "uint8"
        }
      ],
      "name": "changeGameStatus",
      "outputs": [],
      "stateMutability": "nonpayable",
      "type": "function"
    },
    {
      "inputs": [],
      "name": "getTeams",
      "outputs": [
        {
          "internalType": "string",
          "name": "",
          "type": "string"
        }
      ],
      "stateMutability": "view",
      "type": "function"
    },
    {
      "inputs": [
        {
          "internalType": "enum PlaceBet.BetType",
          "name": "_betType",
          "type": "uint8"
        },
        {
          "internalType": "enum PlaceBet.Selection",
          "name": "_selection",
          "type": "uint8"
        },
        {
          "internalType": "enum PlaceBet.Stake",
          "name": "_stake",
          "type": "uint8"
        },
        {
          "internalType": "uint256",
          "name": "_odds",
          "type": "uint256"
        }
      ],
      "name": "placeBet",
      "outputs": [],
      "stateMutability": "payable",
      "type": "function"
    },
    {
      "inputs": [
        {
          "internalType": "enum PlaceBet.Selection",
          "name": "_selection",
          "type": "uint8"
        },
        {
          "internalType": "uint256",
          "name": "_odds",
          "type": "uint256"
        },
        {
          "internalType": "enum PlaceBet.Stake",
          "name": "_stake",
          "type": "uint8"
        }
      ],
      "name": "getBackBetsAvailable",
      "outputs": [
        {
          "internalType": "uint256",
          "name": "",
          "type": "uint256"
        }
      ],
      "stateMutability": "view",
      "type": "function"
    },
    {
      "inputs": [
        {
          "internalType": "enum PlaceBet.Selection",
          "name": "_selection",
          "type": "uint8"
        },
        {
          "internalType": "uint256",
          "name": "_odds",
          "type": "uint256"
        },
        {
          "internalType": "enum PlaceBet.Stake",
          "name": "_stake",
          "type": "uint8"
        }
      ],
      "name": "getLayBetsAvailable",
      "outputs": [
        {
          "internalType": "uint256",
          "name": "",
          "type": "uint256"
        }
      ],
      "stateMutability": "view",
      "type": "function"
    },
    {
      "inputs": [
        {
          "internalType": "address",
          "name": "_player",
          "type": "address"
        }
      ],
      "name": "getPlayerNumberOfBets",
      "outputs": [
        {
          "internalType": "uint256",
          "name": "",
          "type": "uint256"
        }
      ],
      "stateMutability": "view",
      "type": "function"
    },
    {
      "inputs": [
        {
          "internalType": "address",
          "name": "_player",
          "type": "address"
        },
        {
          "internalType": "uint256",
          "name": "_betNumber",
          "type": "uint256"
        }
      ],
      "name": "getPlayerBet",
      "outputs": [
        {
          "components": [
            {
              "internalType": "address",
              "name": "player",
              "type": "address"
            },
            {
              "internalType": "enum PlaceBet.BetType",
              "name": "betType",
              "type": "uint8"
            },
            {
              "internalType": "enum PlaceBet.Selection",
              "name": "selection",
              "type": "uint8"
            },
            {
              "internalType": "enum PlaceBet.Stake",
              "name": "stake",
              "type": "uint8"
            },
            {
              "internalType": "uint256",
              "name": "odds",
              "type": "uint256"
            },
            {
              "internalType": "enum PlaceBet.BetStatus",
              "name": "status",
              "type": "uint8"
            },
            {
              "internalType": "uint256",
              "name": "betId",
              "type": "uint256"
            }
          ],
          "internalType": "struct PlaceBet.Bet",
          "name": "",
          "type": "tuple"
        }
      ],
      "stateMutability": "view",
      "type": "function"
    },
    {
      "inputs": [
        {
          "internalType": "uint256",
          "name": "_betId",
          "type": "uint256"
        }
      ],
      "name": "getBetStatus",
      "outputs": [
        {
          "internalType": "enum PlaceBet.BetStatus",
          "name": "",
          "type": "uint8"
        }
      ],
      "stateMutability": "view",
      "type": "function"
    },
    {
      "inputs": [
        {
          "internalType": "address",
          "name": "_player",
          "type": "address"
        },
        {
          "internalType": "enum PlaceBet.Selection",
          "name": "_selection",
          "type": "uint8"
        }
      ],
      "name": "getPayout",
      "outputs": [
        {
          "internalType": "uint256",
          "name": "",
          "type": "uint256"
        }
      ],
      "stateMutability": "view",
      "type": "function"
    }
  ],
  "bytecode": "0x60806040526000600960006101000a81548160ff0219169083151502179055503480156200002c57600080fd5b5060405162005d2c38038062005d2c8339818101604052810190620000529190620004b7565b62000072620000666200019e60201b60201c565b620001a660201b60201c565b33600260006101000a81548173ffffffffffffffffffffffffffffffffffffffff021916908373ffffffffffffffffffffffffffffffffffffffff160217905550600260009054906101000a900473ffffffffffffffffffffffffffffffffffffffff16600360000160006101000a81548173ffffffffffffffffffffffffffffffffffffffff021916908373ffffffffffffffffffffffffffffffffffffffff1602179055508060036001019080519060200190620001349291906200026a565b506000600360020160006101000a81548160ff0219169083600181111562000161576200016062000508565b5b02179055506000600360020160016101000a81548160ff0219169083600381111562000192576200019162000508565b5b0217905550506200059c565b600033905090565b60008060009054906101000a900473ffffffffffffffffffffffffffffffffffffffff169050816000806101000a81548173ffffffffffffffffffffffffffffffffffffffff021916908373ffffffffffffffffffffffffffffffffffffffff1602179055508173ffffffffffffffffffffffffffffffffffffffff168173ffffffffffffffffffffffffffffffffffffffff167f8be0079c531659141344cd1fd0a4f28419497f9722a3daafe3b4186f6b6457e060405160405180910390a35050565b828054620002789062000566565b90600052602060002090601f0160209004810192826200029c5760008555620002e8565b82601f10620002b757805160ff1916838001178555620002e8565b82800160010185558215620002e8579182015b82811115620002e7578251825591602001919060010190620002ca565b5b509050620002f79190620002fb565b5090565b5b8082111562000316576000816000905550600101620002fc565b5090565b6000604051905090565b600080fd5b600080fd5b600080fd5b600080fd5b6000601f19601f8301169050919050565b7f4e487b7100000000000000000000000000000000000000000000000000000000600052604160045260246000fd5b620003838262000338565b810181811067ffffffffffffffff82111715620003a557620003a462000349565b5b80604052505050565b6000620003ba6200031a565b9050620003c8828262000378565b919050565b600067ffffffffffffffff821115620003eb57620003ea62000349565b5b620003f68262000338565b9050602081019050919050565b60005b838110156200042357808201518184015260208101905062000406565b8381111562000433576000848401525b50505050565b6000620004506200044a84620003cd565b620003ae565b9050828152602081018484840111156200046f576200046e62000333565b5b6200047c84828562000403565b509392505050565b600082601f8301126200049c576200049b6200032e565b5b8151620004ae84826020860162000439565b91505092915050565b600060208284031215620004d057620004cf62000324565b5b600082015167ffffffffffffffff811115620004f157620004f062000329565b5b620004ff8482850162000484565b91505092915050565b7f4e487b7100000000000000000000000000000000000000000000000000000000600052602160045260246000fd5b7f4e487b7100000000000000000000000000000000000000000000000000000000600052602260045260246000fd5b600060028204905060018216806200057f57607f821691505b6020821081141562000596576200059562000537565b5b50919050565b61578080620005ac6000396000f3fe6080604052600436106101a05760003560e01c80638da5cb5b116100ec578063e0ced0e11161008a578063f71d96cb11610064578063f71d96cb1461068d578063f851a440146106ca578063f8b2cb4f146106f5578063fad9169b14610732576101e0565b8063e0ced0e1146105f6578063f2fde38b14610639578063f4ec521e14610662576101e0565b8063c3fe3e28116100c6578063c3fe3e2814610523578063c46d616314610551578063cdc941691461058e578063cf094497146105cb576101e0565b80638da5cb5b1461049f578063a1a27b26146104ca578063b6b55f2514610507576101e0565b8063715018a6116101595780638429d79e116101335780638429d79e14610406578063853828b6146104225780638c4200aa146104395780638d8cccf514610462576101e0565b8063715018a6146103755780637b45a2741461038c5780637d85e4f4146103c9576101e0565b80631b5e3e701461021b5780632e1a7d4d146102585780634cdd4af0146102815780634f9f4756146102be578063515d2b59146102fb57806361f14f1114610338576101e0565b366101e0577f7e71433ddf847725166244795048ecf3e3f9f35628254ecbf73605666423349333346040516101d69291906145c7565b60405180910390a1005b7f7e71433ddf847725166244795048ecf3e3f9f35628254ecbf73605666423349333346040516102119291906145c7565b60405180910390a1005b34801561022757600080fd5b50610242600480360381019061023d9190614646565b61076f565b60405161024f9190614699565b60405180910390f35b34801561026457600080fd5b5061027f600480360381019061027a91906146b4565b6107a1565b005b34801561028d57600080fd5b506102a860048036038101906102a39190614646565b6108fc565b6040516102b59190614699565b60405180910390f35b3480156102ca57600080fd5b506102e560048036038101906102e09190614706565b61092e565b6040516102f29190614699565b60405180910390f35b34801561030757600080fd5b50610322600480360381019061031d9190614646565b610a3e565b60405161032f9190614699565b60405180910390f35b34801561034457600080fd5b5061035f600480360381019061035a91906146b4565b610a70565b60405161036c91906147d0565b60405180910390f35b34801561038157600080fd5b5061038a610b0e565b005b34801561039857600080fd5b506103b360048036038101906103ae91906147eb565b610b96565b6040516103c09190614699565b60405180910390f35b3480156103d557600080fd5b506103f060048036038101906103eb919061487e565b610be1565b6040516103fd9190614a51565b60405180910390f35b610420600480360381019061041b9190614a91565b610e66565b005b34801561042e57600080fd5b506104376114c3565b005b34801561044557600080fd5b50610460600480360381019061045b9190614af8565b611651565b005b34801561046e57600080fd5b50610489600480360381019061048491906147eb565b611b44565b6040516104969190614699565b60405180910390f35b3480156104ab57600080fd5b506104b4611b8f565b6040516104c19190614b25565b60405180910390f35b3480156104d657600080fd5b506104f160048036038101906104ec9190614b40565b611bb8565b6040516104fe9190614699565b60405180910390f35b610521600480360381019061051c91906146b4565b611c3c565b005b34801561052f57600080fd5b50610538611d10565b6040516105489493929190614c70565b60405180910390f35b34801561055d57600080fd5b5061057860048036038101906105739190614706565b611df0565b6040516105859190614699565b60405180910390f35b34801561059a57600080fd5b506105b560048036038101906105b09190614646565b611f00565b6040516105c29190614699565b60405180910390f35b3480156105d757600080fd5b506105e0611f32565b6040516105ed9190614699565b60405180910390f35b34801561060257600080fd5b5061061d600480360381019061061891906146b4565b611f38565b6040516106309796959493929190614cda565b60405180910390f35b34801561064557600080fd5b50610660600480360381019061065b9190614d49565b611fde565b005b34801561066e57600080fd5b506106776120d6565b6040516106849190614d76565b60405180910390f35b34801561069957600080fd5b506106b460048036038101906106af91906146b4565b61216b565b6040516106c19190614b25565b60405180910390f35b3480156106d657600080fd5b506106df6121aa565b6040516106ec9190614b25565b60405180910390f35b34801561070157600080fd5b5061071c60048036038101906107179190614d49565b6121d0565b6040516107299190614699565b60405180910390f35b34801561073e57600080fd5b5061075960048036038101906107549190614d49565b612219565b6040516107669190614699565b60405180910390f35b600c60205282600052604060002060205281600052604060002060205280600052604060002060009250925050505481565b80600160003373ffffffffffffffffffffffffffffffffffffffff1673ffffffffffffffffffffffffffffffffffffffff168152602001908152602001600020541015610823576040517f08c379a000000000000000000000000000000000000000000000000000000000815260040161081a90614de4565b60405180910390fd5b80600160003373ffffffffffffffffffffffffffffffffffffffff1673ffffffffffffffffffffffffffffffffffffffff16815260200190815260200160002060008282546108729190614e33565b925050819055503373ffffffffffffffffffffffffffffffffffffffff166108fc829081150290604051600060405180830381858888f193505050501580156108bf573d6000803e3d6000fd5b507fcb15aee0e66e2dd6413ec4a90b1cda19a3b024148655e9017356e0a82d7e855b33826040516108f19291906145c7565b60405180910390a150565b601060205282600052604060002060205281600052604060002060205280600052604060002060009250925050505481565b6000806000600381111561094557610944614759565b5b83600381111561095857610957614759565b5b146109cc576001600381111561097157610970614759565b5b83600381111561098457610983614759565b5b146109c4576002600381111561099d5761099c614759565b5b8360038111156109b0576109af614759565b5b146109bc5760046109bf565b60025b6109c7565b60015b6109cf565b60005b60ff1690506000600c60008760038111156109ed576109ec614759565b5b60038111156109ff576109fe614759565b5b81526020019081526020016000206000868152602001908152602001600020600083815260200190815260200160002054905080925050509392505050565b600b60205282600052604060002060205281600052604060002060205280600052604060002060009250925050505481565b600081600081118015610a8857506007805490508111155b610ac7576040517f08c379a0000000000000000000000000000000000000000000000000000000008152600401610abe90614eb3565b60405180910390fd5b6007600184610ad69190614e33565b81548110610ae757610ae6614ed3565b5b906000526020600020906004020160020160009054906101000a900460ff16915050919050565b610b16612262565b73ffffffffffffffffffffffffffffffffffffffff16610b34611b8f565b73ffffffffffffffffffffffffffffffffffffffff1614610b8a576040517f08c379a0000000000000000000000000000000000000000000000000000000008152600401610b8190614f4e565b60405180910390fd5b610b94600061226a565b565b600d6020528360005260406000206020528260005260406000206020528160005260406000208181548110610bca57600080fd5b906000526020600020016000935093505050505481565b610be96144d2565b818381601260008373ffffffffffffffffffffffffffffffffffffffff1673ffffffffffffffffffffffffffffffffffffffff1681526020019081526020016000205411610c6c576040517f08c379a0000000000000000000000000000000000000000000000000000000008152600401610c6390614fba565b60405180910390fd5b60006001600a60008873ffffffffffffffffffffffffffffffffffffffff1673ffffffffffffffffffffffffffffffffffffffff1681526020019081526020016000208681548110610cc157610cc0614ed3565b5b9060005260206000200154610cd69190614e33565b905060078181548110610cec57610ceb614ed3565b5b90600052602060002090600402016040518060e00160405290816000820160009054906101000a900473ffffffffffffffffffffffffffffffffffffffff1673ffffffffffffffffffffffffffffffffffffffff1673ffffffffffffffffffffffffffffffffffffffff1681526020016000820160149054906101000a900460ff166001811115610d8057610d7f614759565b5b6001811115610d9257610d91614759565b5b81526020016000820160159054906101000a900460ff166003811115610dbb57610dba614759565b5b6003811115610dcd57610dcc614759565b5b81526020016000820160169054906101000a900460ff166003811115610df657610df5614759565b5b6003811115610e0857610e07614759565b5b8152602001600182015481526020016002820160009054906101000a900460ff166004811115610e3b57610e3a614759565b5b6004811115610e4d57610e4c614759565b5b8152602001600382015481525050935050505092915050565b833383836000806003811115610e7f57610e7e614759565b5b836003811115610e9257610e91614759565b5b14610f075760016003811115610eab57610eaa614759565b5b836003811115610ebe57610ebd614759565b5b14610eff5760026003811115610ed757610ed6614759565b5b836003811115610eea57610ee9614759565b5b14610ef7576103e8610efa565b60645b610f02565b600a5b610f0a565b60015b61ffff16905060006001811115610f2457610f23614759565b5b856001811115610f3757610f36614759565b5b1415610fd65766038d7ea4c6800081610f509190614fda565b600160008673ffffffffffffffffffffffffffffffffffffffff1673ffffffffffffffffffffffffffffffffffffffff168152602001908152602001600020541015610fd1576040517f08c379a0000000000000000000000000000000000000000000000000000000008152600401610fc890615080565b60405180910390fd5b6110b4565b600180811115610fe957610fe8614759565b5b856001811115610ffc57610ffb614759565b5b14156110b35760006509184e72a0006064846110189190614e33565b6110229190614fda565b905081816110309190614fda565b600160008773ffffffffffffffffffffffffffffffffffffffff1673ffffffffffffffffffffffffffffffffffffffff1681526020019081526020016000205410156110b1576040517f08c379a00000000000000000000000000000000000000000000000000000000081526004016110a890615080565b60405180910390fd5b505b5b87600060038111156110c9576110c8614759565b5b8160038111156110dc576110db614759565b5b141561111d576040517f08c379a0000000000000000000000000000000000000000000000000000000008152600401611114906150ec565b60405180910390fd5b6000600181111561113157611130614759565b5b600360020160009054906101000a900460ff16600181111561115657611155614759565b5b14611196576040517f08c379a000000000000000000000000000000000000000000000000000000000815260040161118d90615158565b60405180910390fd5b86606481116111da576040517f08c379a00000000000000000000000000000000000000000000000000000000081526004016111d1906151c4565b60405180910390fd5b600660008154809291906111ed906151e4565b91905055506000601260003373ffffffffffffffffffffffffffffffffffffffff1673ffffffffffffffffffffffffffffffffffffffff16815260200190815260200160002054141561129e576008339080600181540180825580915050600190039060005260206000200160009091909190916101000a81548173ffffffffffffffffffffffffffffffffffffffff021916908373ffffffffffffffffffffffffffffffffffffffff1602179055505b6112ab338c8c8c8c61232e565b60008060038111156112c0576112bf614759565b5b8a60038111156112d3576112d2614759565b5b1461134857600160038111156112ec576112eb614759565b5b8a60038111156112ff576112fe614759565b5b14611340576002600381111561131857611317614759565b5b8a600381111561132b5761132a614759565b5b14611338576103e861133b565b60645b611343565b600a5b61134b565b60015b61ffff1690506000600181111561136557611364614759565b5b8c600181111561137857611377614759565b5b14156113f75766038d7ea4c68000816113919190614fda565b600160003373ffffffffffffffffffffffffffffffffffffffff1673ffffffffffffffffffffffffffffffffffffffff16815260200190815260200160002060008282546113df9190614e33565b925050819055506113f2338c8c8c6125d4565b6114b5565b60018081111561140a57611409614759565b5b8c600181111561141d5761141c614759565b5b14156114b45760006509184e72a00060648b6114399190614e33565b836114449190614fda565b61144e9190614fda565b905080600160003373ffffffffffffffffffffffffffffffffffffffff1673ffffffffffffffffffffffffffffffffffffffff168152602001908152602001600020600082825461149f9190614e33565b925050819055506114b2338d8d8d612bd1565b505b5b505050505050505050505050565b6000600160003373ffffffffffffffffffffffffffffffffffffffff1673ffffffffffffffffffffffffffffffffffffffff1681526020019081526020016000205411611545576040517f08c379a000000000000000000000000000000000000000000000000000000000815260040161153c90615279565b60405180910390fd5b6000600160003373ffffffffffffffffffffffffffffffffffffffff1673ffffffffffffffffffffffffffffffffffffffff1681526020019081526020016000205490506000600160003373ffffffffffffffffffffffffffffffffffffffff1673ffffffffffffffffffffffffffffffffffffffff168152602001908152602001600020819055503373ffffffffffffffffffffffffffffffffffffffff166108fc829081150290604051600060405180830381858888f19350505050158015611614573d6000803e3d6000fd5b507fcb15aee0e66e2dd6413ec4a90b1cda19a3b024148655e9017356e0a82d7e855b33826040516116469291906145c7565b60405180910390a150565b611659612262565b73ffffffffffffffffffffffffffffffffffffffff16611677611b8f565b73ffffffffffffffffffffffffffffffffffffffff16146116cd576040517f08c379a00000000000000000000000000000000000000000000000000000000081526004016116c490614f4e565b60405180910390fd5b600060018111156116e1576116e0614759565b5b600360020160009054906101000a900460ff16600181111561170657611705614759565b5b14611746576040517f08c379a000000000000000000000000000000000000000000000000000000000815260040161173d90615158565b60405180910390fd5b6001600360020160006101000a81548160ff0219169083600181111561176f5761176e614759565b5b021790555080600360020160016101000a81548160ff0219169083600381111561179c5761179b614759565b5b02179055506000600780549050905060005b81811015611b0057600060048111156117ca576117c9614759565b5b600782815481106117de576117dd614ed3565b5b906000526020600020906004020160020160009054906101000a900460ff16600481111561180f5761180e614759565b5b14156118685760026007828154811061182b5761182a614ed3565b5b906000526020600020906004020160020160006101000a81548160ff0219169083600481111561185e5761185d614759565b5b0217905550611aed565b6001600481111561187c5761187b614759565b5b600782815481106118905761188f614ed3565b5b906000526020600020906004020160020160009054906101000a900460ff1660048111156118c1576118c0614759565b5b1415611aec578260038111156118da576118d9614759565b5b600782815481106118ee576118ed614ed3565b5b906000526020600020906004020160000160159054906101000a900460ff16600381111561191f5761191e614759565b5b14801561198257506000600181111561193b5761193a614759565b5b6007828154811061194f5761194e614ed3565b5b906000526020600020906004020160000160149054906101000a900460ff1660018111156119805761197f614759565b5b145b80611a44575082600381111561199b5761199a614759565b5b600782815481106119af576119ae614ed3565b5b906000526020600020906004020160000160159054906101000a900460ff1660038111156119e0576119df614759565b5b14158015611a4357506001808111156119fc576119fb614759565b5b60078281548110611a1057611a0f614ed3565b5b906000526020600020906004020160000160149054906101000a900460ff166001811115611a4157611a40614759565b5b145b5b15611a9c57600360078281548110611a5f57611a5e614ed3565b5b906000526020600020906004020160020160006101000a81548160ff02191690836004811115611a9257611a91614759565b5b0217905550611aeb565b600460078281548110611ab257611ab1614ed3565b5b906000526020600020906004020160020160006101000a81548160ff02191690836004811115611ae557611ae4614759565b5b02179055505b5b5b8080611af8906151e4565b9150506117ae565b507f644bb802c5494cabb5b122d2a385455270a23cd15163ac9d122727afa129408282604051611b309190615299565b60405180910390a1611b406131ce565b5050565b600e6020528360005260406000206020528260005260406000206020528160005260406000208181548110611b7857600080fd5b906000526020600020016000935093505050505481565b60008060009054906101000a900473ffffffffffffffffffffffffffffffffffffffff16905090565b600080601160008573ffffffffffffffffffffffffffffffffffffffff1673ffffffffffffffffffffffffffffffffffffffff1681526020019081526020016000206000846003811115611c0f57611c0e614759565b5b6003811115611c2157611c20614759565b5b81526020019081526020016000205490508091505092915050565b803414611c7e576040517f08c379a0000000000000000000000000000000000000000000000000000000008152600401611c7590615300565b60405180910390fd5b34600160003373ffffffffffffffffffffffffffffffffffffffff1673ffffffffffffffffffffffffffffffffffffffff1681526020019081526020016000206000828254611ccd9190615320565b925050819055507f58be02934e87dcdb08adf93a75fc2a42ebc8085dd7a32db852a7e1c21446ba1c3334604051611d059291906145c7565b60405180910390a150565b60038060000160009054906101000a900473ffffffffffffffffffffffffffffffffffffffff1690806001018054611d47906153a5565b80601f0160208091040260200160405190810160405280929190818152602001828054611d73906153a5565b8015611dc05780601f10611d9557610100808354040283529160200191611dc0565b820191906000526020600020905b815481529060010190602001808311611da357829003601f168201915b5050505050908060020160009054906101000a900460ff16908060020160019054906101000a900460ff16905084565b60008060006003811115611e0757611e06614759565b5b836003811115611e1a57611e19614759565b5b14611e8e5760016003811115611e3357611e32614759565b5b836003811115611e4657611e45614759565b5b14611e865760026003811115611e5f57611e5e614759565b5b836003811115611e7257611e71614759565b5b14611e7e576004611e81565b60025b611e89565b60015b611e91565b60005b60ff1690506000600b6000876003811115611eaf57611eae614759565b5b6003811115611ec157611ec0614759565b5b81526020019081526020016000206000868152602001908152602001600020600083815260200190815260200160002054905080925050509392505050565b600f60205282600052604060002060205281600052604060002060205280600052604060002060009250925050505481565b60065481565b60078181548110611f4857600080fd5b90600052602060002090600402016000915090508060000160009054906101000a900473ffffffffffffffffffffffffffffffffffffffff16908060000160149054906101000a900460ff16908060000160159054906101000a900460ff16908060000160169054906101000a900460ff16908060010154908060020160009054906101000a900460ff16908060030154905087565b611fe6612262565b73ffffffffffffffffffffffffffffffffffffffff16612004611b8f565b73ffffffffffffffffffffffffffffffffffffffff161461205a576040517f08c379a000000000000000000000000000000000000000000000000000000000815260040161205190614f4e565b60405180910390fd5b600073ffffffffffffffffffffffffffffffffffffffff168173ffffffffffffffffffffffffffffffffffffffff1614156120ca576040517f08c379a00000000000000000000000000000000000000000000000000000000081526004016120c190615449565b60405180910390fd5b6120d38161226a565b50565b6060600360010180546120e8906153a5565b80601f0160208091040260200160405190810160405280929190818152602001828054612114906153a5565b80156121615780601f1061213657610100808354040283529160200191612161565b820191906000526020600020905b81548152906001019060200180831161214457829003601f168201915b5050505050905090565b6008818154811061217b57600080fd5b906000526020600020016000915054906101000a900473ffffffffffffffffffffffffffffffffffffffff1681565b600260009054906101000a900473ffffffffffffffffffffffffffffffffffffffff1681565b6000600160008373ffffffffffffffffffffffffffffffffffffffff1673ffffffffffffffffffffffffffffffffffffffff168152602001908152602001600020549050919050565b6000601260008373ffffffffffffffffffffffffffffffffffffffff1673ffffffffffffffffffffffffffffffffffffffff168152602001908152602001600020549050919050565b600033905090565b60008060009054906101000a900473ffffffffffffffffffffffffffffffffffffffff169050816000806101000a81548173ffffffffffffffffffffffffffffffffffffffff021916908373ffffffffffffffffffffffffffffffffffffffff1602179055508173ffffffffffffffffffffffffffffffffffffffff168173ffffffffffffffffffffffffffffffffffffffff167f8be0079c531659141344cd1fd0a4f28419497f9722a3daafe3b4186f6b6457e060405160405180910390a35050565b60006040518060e001604052808773ffffffffffffffffffffffffffffffffffffffff16815260200186600181111561236a57612369614759565b5b815260200185600381111561238257612381614759565b5b815260200184600381111561239a57612399614759565b5b8152602001838152602001600060048111156123b9576123b8614759565b5b81526020016006548152509050600781908060018154018082558091505060019003906000526020600020906004020160009091909190915060008201518160000160006101000a81548173ffffffffffffffffffffffffffffffffffffffff021916908373ffffffffffffffffffffffffffffffffffffffff16021790555060208201518160000160146101000a81548160ff0219169083600181111561246457612463614759565b5b021790555060408201518160000160156101000a81548160ff0219169083600381111561249457612493614759565b5b021790555060608201518160000160166101000a81548160ff021916908360038111156124c4576124c3614759565b5b02179055506080820151816001015560a08201518160020160006101000a81548160ff021916908360048111156124fe576124fd614759565b5b021790555060c082015181600301555050600a60003373ffffffffffffffffffffffffffffffffffffffff1673ffffffffffffffffffffffffffffffffffffffff1681526020019081526020016000206006549080600181540180825580915050600190039060005260206000200160009091909190915055601260003373ffffffffffffffffffffffffffffffffffffffff1673ffffffffffffffffffffffffffffffffffffffff16815260200190815260200160002060008154809291906125c7906151e4565b9190505550505050505050565b60008060038111156125e9576125e8614759565b5b8360038111156125fc576125fb614759565b5b14612670576001600381111561261557612614614759565b5b83600381111561262857612627614759565b5b14612668576002600381111561264157612640614759565b5b83600381111561265457612653614759565b5b14612660576003612663565b60025b61266b565b60015b612673565b60005b60ff169050600d600085600381111561268f5761268e614759565b5b60038111156126a1576126a0614759565b5b81526020019081526020016000206000838152602001908152602001600020600082815260200190815260200160002060065490806001815401808255809150506001900390600052602060002001600090919091909150556000600c600086600381111561271357612712614759565b5b600381111561272557612724614759565b5b815260200190815260200160002060008481526020019081526020016000206000838152602001908152602001600020541115612aaa5760006010600086600381111561277557612774614759565b5b600381111561278757612786614759565b5b8152602001908152602001600020600084815260200190815260200160002060008381526020019081526020016000205490506000600e60008760038111156127d3576127d2614759565b5b60038111156127e5576127e4614759565b5b815260200190815260200160002060008581526020019081526020016000206000848152602001908152602001600020828154811061282757612826614ed3565b5b906000526020600020015490506001600760016006546128479190614e33565b8154811061285857612857614ed3565b5b906000526020600020906004020160020160006101000a81548160ff0219169083600481111561288b5761288a614759565b5b0217905550600160076001836128a19190614e33565b815481106128b2576128b1614ed3565b5b906000526020600020906004020160020160006101000a81548160ff021916908360048111156128e5576128e4614759565b5b02179055506010600087600381111561290157612900614759565b5b600381111561291357612912614759565b5b8152602001908152602001600020600085815260200190815260200160002060008481526020019081526020016000206000815480929190612954906151e4565b91905055506001600c600088600381111561297257612971614759565b5b600381111561298457612983614759565b5b81526020019081526020016000206000868152602001908152602001600020600085815260200190815260200160002060008282546129c39190614e33565b92505081905550600060076001836129db9190614e33565b815481106129ec576129eb614ed3565b5b906000526020600020906004020160000160009054906101000a900473ffffffffffffffffffffffffffffffffffffffff169050612a2e88868960008a613384565b612a3b8886600089613997565b612a4988868960008a613ebf565b612a5781868960018a613ebf565b612a6581868960018a613384565b7f6008440b4a7a29ba56996156316f54b68d206aec7ac2418732864f7c2245ada18882878a604051612a9a9493929190615469565b60405180910390a1505050612bca565b6000600c6000866003811115612ac357612ac2614759565b5b6003811115612ad557612ad4614759565b5b815260200190815260200160002060008481526020019081526020016000206000838152602001908152602001600020541415612bc9576001600b6000866003811115612b2557612b24614759565b5b6003811115612b3757612b36614759565b5b8152602001908152602001600020600084815260200190815260200160002060008381526020019081526020016000206000828254612b769190615320565b92505081905550612b8a8583600086613997565b7f803916dc5649ac7050635003228d26949d720ab5586be36da6cbb9f58a47eee48583866000604051612bc094939291906154ae565b60405180910390a15b5b5050505050565b6000806003811115612be657612be5614759565b5b836003811115612bf957612bf8614759565b5b14612c6d5760016003811115612c1257612c11614759565b5b836003811115612c2557612c24614759565b5b14612c655760026003811115612c3e57612c3d614759565b5b836003811115612c5157612c50614759565b5b14612c5d576003612c60565b60025b612c68565b60015b612c70565b60005b60ff169050600d6000856003811115612c8c57612c8b614759565b5b6003811115612c9e57612c9d614759565b5b81526020019081526020016000206000838152602001908152602001600020600082815260200190815260200160002060065490806001815401808255809150506001900390600052602060002001600090919091909150556000600b6000866003811115612d1057612d0f614759565b5b6003811115612d2257612d21614759565b5b8152602001908152602001600020600084815260200190815260200160002060008381526020019081526020016000205411156130a7576000600f6000866003811115612d7257612d71614759565b5b6003811115612d8457612d83614759565b5b8152602001908152602001600020600084815260200190815260200160002060008381526020019081526020016000205490506000600d6000876003811115612dd057612dcf614759565b5b6003811115612de257612de1614759565b5b8152602001908152602001600020600085815260200190815260200160002060008481526020019081526020016000208281548110612e2457612e23614ed3565b5b90600052602060002001549050600160076001600654612e449190614e33565b81548110612e5557612e54614ed3565b5b906000526020600020906004020160020160006101000a81548160ff02191690836004811115612e8857612e87614759565b5b021790555060016007600183612e9e9190614e33565b81548110612eaf57612eae614ed3565b5b906000526020600020906004020160020160006101000a81548160ff02191690836004811115612ee257612ee1614759565b5b0217905550600f6000876003811115612efe57612efd614759565b5b6003811115612f1057612f0f614759565b5b8152602001908152602001600020600085815260200190815260200160002060008481526020019081526020016000206000815480929190612f51906151e4565b91905055506001600b6000886003811115612f6f57612f6e614759565b5b6003811115612f8157612f80614759565b5b8152602001908152602001600020600086815260200190815260200160002060008581526020019081526020016000206000828254612fc09190614e33565b9250508190555060006007600183612fd89190614e33565b81548110612fe957612fe8614ed3565b5b906000526020600020906004020160000160009054906101000a900473ffffffffffffffffffffffffffffffffffffffff16905061302b88868960018a613384565b6130388886600189613997565b61304688868960018a613ebf565b61305481868960008a613ebf565b61306281868960008a613384565b7f6008440b4a7a29ba56996156316f54b68d206aec7ac2418732864f7c2245ada18189878a6040516130979493929190615469565b60405180910390a15050506131c7565b6000600b60008660038111156130c0576130bf614759565b5b60038111156130d2576130d1614759565b5b8152602001908152602001600020600084815260200190815260200160002060008381526020019081526020016000205414156131c6576001600c600086600381111561312257613121614759565b5b600381111561313457613133614759565b5b81526020019081526020016000206000848152602001908152602001600020600083815260200190815260200160002060008282546131739190615320565b925050819055506131878583600186613997565b7f803916dc5649ac7050635003228d26949d720ab5586be36da6cbb9f58a47eee485838660016040516131bd94939291906154ae565b60405180910390a15b5b5050505050565b60005b6008805490508110156133495760116000600883815481106131f6576131f5614ed3565b5b9060005260206000200160009054906101000a900473ffffffffffffffffffffffffffffffffffffffff1673ffffffffffffffffffffffffffffffffffffffff1673ffffffffffffffffffffffffffffffffffffffff1681526020019081526020016000206000600360020160019054906101000a900460ff16600381111561328257613281614759565b5b600381111561329457613293614759565b5b81526020019081526020016000205460016000600884815481106132bb576132ba614ed3565b5b9060005260206000200160009054906101000a900473ffffffffffffffffffffffffffffffffffffffff1673ffffffffffffffffffffffffffffffffffffffff1673ffffffffffffffffffffffffffffffffffffffff168152602001908152602001600020600082825461332f9190615320565b925050819055508080613341906151e4565b9150506131d1565b507f25a6a72ccac90b82b76f8b7baf33e0552244fa5121b1d4b0b534b5c3eaebca91600360405161337a91906156c8565b60405180910390a1565b600080600381111561339957613398614759565b5b8260038111156133ac576133ab614759565b5b1461342157600160038111156133c5576133c4614759565b5b8260038111156133d8576133d7614759565b5b1461341957600260038111156133f1576133f0614759565b5b82600381111561340457613403614759565b5b14613411576103e8613414565b60645b61341c565b600a5b613424565b60015b61ffff1690506000600181111561343e5761343d614759565b5b83600181111561345157613450614759565b5b141561351c57606466038d7ea4c6800060648761346e9190614e33565b836134799190614fda565b6134839190614fda565b61348d9190615719565b601160008873ffffffffffffffffffffffffffffffffffffffff1673ffffffffffffffffffffffffffffffffffffffff16815260200190815260200160002060008660038111156134e1576134e0614759565b5b60038111156134f3576134f2614759565b5b815260200190815260200160002060008282546135109190615320565b9250508190555061398f565b60018081111561352f5761352e614759565b5b83600181111561354257613541614759565b5b141561398e576001600381111561355c5761355b614759565b5b84600381111561356f5761356e614759565b5b14156136b55766038d7ea4c68000816135889190614fda565b601160008873ffffffffffffffffffffffffffffffffffffffff1673ffffffffffffffffffffffffffffffffffffffff1681526020019081526020016000206000600260038111156135dd576135dc614759565b5b60038111156135ef576135ee614759565b5b8152602001908152602001600020600082825461360c9190615320565b9250508190555066038d7ea4c68000816136269190614fda565b601160008873ffffffffffffffffffffffffffffffffffffffff1673ffffffffffffffffffffffffffffffffffffffff168152602001908152602001600020600060038081111561367a57613679614759565b5b600381111561368c5761368b614759565b5b815260200190815260200160002060008282546136a99190615320565b9250508190555061398d565b600260038111156136c9576136c8614759565b5b8460038111156136dc576136db614759565b5b14156138225766038d7ea4c68000816136f59190614fda565b601160008873ffffffffffffffffffffffffffffffffffffffff1673ffffffffffffffffffffffffffffffffffffffff16815260200190815260200160002060006001600381111561374a57613749614759565b5b600381111561375c5761375b614759565b5b815260200190815260200160002060008282546137799190615320565b9250508190555066038d7ea4c68000816137939190614fda565b601160008873ffffffffffffffffffffffffffffffffffffffff1673ffffffffffffffffffffffffffffffffffffffff16815260200190815260200160002060006003808111156137e7576137e6614759565b5b60038111156137f9576137f8614759565b5b815260200190815260200160002060008282546138169190615320565b9250508190555061398c565b60038081111561383557613834614759565b5b84600381111561384857613847614759565b5b141561398b5766038d7ea4c68000816138619190614fda565b601160008873ffffffffffffffffffffffffffffffffffffffff1673ffffffffffffffffffffffffffffffffffffffff1681526020019081526020016000206000600160038111156138b6576138b5614759565b5b60038111156138c8576138c7614759565b5b815260200190815260200160002060008282546138e59190615320565b9250508190555066038d7ea4c68000816138ff9190614fda565b601160008873ffffffffffffffffffffffffffffffffffffffff1673ffffffffffffffffffffffffffffffffffffffff16815260200190815260200160002060006002600381111561395457613953614759565b5b600381111561396657613965614759565b5b815260200190815260200160002060008282546139839190615320565b925050819055505b5b5b5b5b505050505050565b60008060038111156139ac576139ab614759565b5b8260038111156139bf576139be614759565b5b14613a3457600160038111156139d8576139d7614759565b5b8260038111156139eb576139ea614759565b5b14613a2c5760026003811115613a0457613a03614759565b5b826003811115613a1757613a16614759565b5b14613a24576103e8613a27565b60645b613a2f565b600a5b613a37565b60015b61ffff16905060006001811115613a5157613a50614759565b5b836001811115613a6457613a63614759565b5b1415613c485766038d7ea4c6800081613a7d9190614fda565b601160008773ffffffffffffffffffffffffffffffffffffffff1673ffffffffffffffffffffffffffffffffffffffff168152602001908152602001600020600060026003811115613ad257613ad1614759565b5b6003811115613ae457613ae3614759565b5b81526020019081526020016000206000828254613b019190615320565b9250508190555066038d7ea4c6800081613b1b9190614fda565b601160008773ffffffffffffffffffffffffffffffffffffffff1673ffffffffffffffffffffffffffffffffffffffff1681526020019081526020016000206000600380811115613b6f57613b6e614759565b5b6003811115613b8157613b80614759565b5b81526020019081526020016000206000828254613b9e9190615320565b9250508190555066038d7ea4c6800081613bb89190614fda565b601160008773ffffffffffffffffffffffffffffffffffffffff1673ffffffffffffffffffffffffffffffffffffffff168152602001908152602001600020600060016003811115613c0d57613c0c614759565b5b6003811115613c1f57613c1e614759565b5b81526020019081526020016000206000828254613c3c9190615320565b92505081905550613eb8565b600180811115613c5b57613c5a614759565b5b836001811115613c6e57613c6d614759565b5b1415613eb757606466038d7ea4c68000606486613c8b9190614e33565b83613c969190614fda565b613ca09190614fda565b613caa9190615719565b601160008773ffffffffffffffffffffffffffffffffffffffff1673ffffffffffffffffffffffffffffffffffffffff1681526020019081526020016000206000600380811115613cfe57613cfd614759565b5b6003811115613d1057613d0f614759565b5b81526020019081526020016000206000828254613d2d9190615320565b92505081905550606466038d7ea4c68000606486613d4b9190614e33565b83613d569190614fda565b613d609190614fda565b613d6a9190615719565b601160008773ffffffffffffffffffffffffffffffffffffffff1673ffffffffffffffffffffffffffffffffffffffff168152602001908152602001600020600060016003811115613dbf57613dbe614759565b5b6003811115613dd157613dd0614759565b5b81526020019081526020016000206000828254613dee9190615320565b92505081905550606466038d7ea4c68000606486613e0c9190614e33565b83613e179190614fda565b613e219190614fda565b613e2b9190615719565b601160008773ffffffffffffffffffffffffffffffffffffffff1673ffffffffffffffffffffffffffffffffffffffff168152602001908152602001600020600060026003811115613e8057613e7f614759565b5b6003811115613e9257613e91614759565b5b81526020019081526020016000206000828254613eaf9190615320565b925050819055505b5b5050505050565b6000806003811115613ed457613ed3614759565b5b826003811115613ee757613ee6614759565b5b14613f5c5760016003811115613f0057613eff614759565b5b826003811115613f1357613f12614759565b5b14613f545760026003811115613f2c57613f2b614759565b5b826003811115613f3f57613f3e614759565b5b14613f4c576103e8613f4f565b60645b613f57565b600a5b613f5f565b60015b61ffff16905060006001811115613f7957613f78614759565b5b836001811115613f8c57613f8b614759565b5b14156143dc5760016003811115613fa657613fa5614759565b5b846003811115613fb957613fb8614759565b5b14156140ff5766038d7ea4c6800081613fd29190614fda565b601160008873ffffffffffffffffffffffffffffffffffffffff1673ffffffffffffffffffffffffffffffffffffffff16815260200190815260200160002060006002600381111561402757614026614759565b5b600381111561403957614038614759565b5b815260200190815260200160002060008282546140569190614e33565b9250508190555066038d7ea4c68000816140709190614fda565b601160008873ffffffffffffffffffffffffffffffffffffffff1673ffffffffffffffffffffffffffffffffffffffff16815260200190815260200160002060006003808111156140c4576140c3614759565b5b60038111156140d6576140d5614759565b5b815260200190815260200160002060008282546140f39190614e33565b925050819055506143d7565b6002600381111561411357614112614759565b5b84600381111561412657614125614759565b5b141561426c5766038d7ea4c680008161413f9190614fda565b601160008873ffffffffffffffffffffffffffffffffffffffff1673ffffffffffffffffffffffffffffffffffffffff16815260200190815260200160002060006001600381111561419457614193614759565b5b60038111156141a6576141a5614759565b5b815260200190815260200160002060008282546141c39190614e33565b9250508190555066038d7ea4c68000816141dd9190614fda565b601160008873ffffffffffffffffffffffffffffffffffffffff1673ffffffffffffffffffffffffffffffffffffffff168152602001908152602001600020600060038081111561423157614230614759565b5b600381111561424357614242614759565b5b815260200190815260200160002060008282546142609190614e33565b925050819055506143d6565b60038081111561427f5761427e614759565b5b84600381111561429257614291614759565b5b14156143d55766038d7ea4c68000816142ab9190614fda565b601160008873ffffffffffffffffffffffffffffffffffffffff1673ffffffffffffffffffffffffffffffffffffffff168152602001908152602001600020600060016003811115614300576142ff614759565b5b600381111561431257614311614759565b5b8152602001908152602001600020600082825461432f9190614e33565b9250508190555066038d7ea4c68000816143499190614fda565b601160008873ffffffffffffffffffffffffffffffffffffffff1673ffffffffffffffffffffffffffffffffffffffff16815260200190815260200160002060006002600381111561439e5761439d614759565b5b60038111156143b0576143af614759565b5b815260200190815260200160002060008282546143cd9190614e33565b925050819055505b5b5b6144ca565b6001808111156143ef576143ee614759565b5b83600181111561440257614401614759565b5b14156144c957606466038d7ea4c6800060648761441f9190614e33565b8361442a9190614fda565b6144349190614fda565b61443e9190615719565b601160008873ffffffffffffffffffffffffffffffffffffffff1673ffffffffffffffffffffffffffffffffffffffff168152602001908152602001600020600086600381111561449257614491614759565b5b60038111156144a4576144a3614759565b5b815260200190815260200160002060008282546144c19190614e33565b925050819055505b5b505050505050565b6040518060e00160405280600073ffffffffffffffffffffffffffffffffffffffff1681526020016000600181111561450e5761450d614759565b5b81526020016000600381111561452757614526614759565b5b8152602001600060038111156145405761453f614759565b5b815260200160008152602001600060048111156145605761455f614759565b5b8152602001600081525090565b600073ffffffffffffffffffffffffffffffffffffffff82169050919050565b60006145988261456d565b9050919050565b6145a88161458d565b82525050565b6000819050919050565b6145c1816145ae565b82525050565b60006040820190506145dc600083018561459f565b6145e960208301846145b8565b9392505050565b600080fd5b6004811061460257600080fd5b50565b600081359050614614816145f5565b92915050565b614623816145ae565b811461462e57600080fd5b50565b6000813590506146408161461a565b92915050565b60008060006060848603121561465f5761465e6145f0565b5b600061466d86828701614605565b935050602061467e86828701614631565b925050604061468f86828701614631565b9150509250925092565b60006020820190506146ae60008301846145b8565b92915050565b6000602082840312156146ca576146c96145f0565b5b60006146d884828501614631565b91505092915050565b600481106146ee57600080fd5b50565b600081359050614700816146e1565b92915050565b60008060006060848603121561471f5761471e6145f0565b5b600061472d86828701614605565b935050602061473e86828701614631565b925050604061474f868287016146f1565b9150509250925092565b7f4e487b7100000000000000000000000000000000000000000000000000000000600052602160045260246000fd5b6005811061479957614798614759565b5b50565b60008190506147aa82614788565b919050565b60006147ba8261479c565b9050919050565b6147ca816147af565b82525050565b60006020820190506147e560008301846147c1565b92915050565b60008060008060808587031215614805576148046145f0565b5b600061481387828801614605565b945050602061482487828801614631565b935050604061483587828801614631565b925050606061484687828801614631565b91505092959194509250565b61485b8161458d565b811461486657600080fd5b50565b60008135905061487881614852565b92915050565b60008060408385031215614895576148946145f0565b5b60006148a385828601614869565b92505060206148b485828601614631565b9150509250929050565b6148c78161458d565b82525050565b600281106148de576148dd614759565b5b50565b60008190506148ef826148cd565b919050565b60006148ff826148e1565b9050919050565b61490f816148f4565b82525050565b6004811061492657614925614759565b5b50565b600081905061493782614915565b919050565b600061494782614929565b9050919050565b6149578161493c565b82525050565b6004811061496e5761496d614759565b5b50565b600081905061497f8261495d565b919050565b600061498f82614971565b9050919050565b61499f81614984565b82525050565b6149ae816145ae565b82525050565b6149bd816147af565b82525050565b60e0820160008201516149d960008501826148be565b5060208201516149ec6020850182614906565b5060408201516149ff604085018261494e565b506060820151614a126060850182614996565b506080820151614a2560808501826149a5565b5060a0820151614a3860a08501826149b4565b5060c0820151614a4b60c08501826149a5565b50505050565b600060e082019050614a6660008301846149c3565b92915050565b60028110614a7957600080fd5b50565b600081359050614a8b81614a6c565b92915050565b60008060008060808587031215614aab57614aaa6145f0565b5b6000614ab987828801614a7c565b9450506020614aca87828801614605565b9350506040614adb878288016146f1565b9250506060614aec87828801614631565b91505092959194509250565b600060208284031215614b0e57614b0d6145f0565b5b6000614b1c84828501614605565b91505092915050565b6000602082019050614b3a600083018461459f565b92915050565b60008060408385031215614b5757614b566145f0565b5b6000614b6585828601614869565b9250506020614b7685828601614605565b9150509250929050565b600081519050919050565b600082825260208201905092915050565b60005b83811015614bba578082015181840152602081019050614b9f565b83811115614bc9576000848401525b50505050565b6000601f19601f8301169050919050565b6000614beb82614b80565b614bf58185614b8b565b9350614c05818560208601614b9c565b614c0e81614bcf565b840191505092915050565b60028110614c2a57614c29614759565b5b50565b6000819050614c3b82614c19565b919050565b6000614c4b82614c2d565b9050919050565b614c5b81614c40565b82525050565b614c6a8161493c565b82525050565b6000608082019050614c85600083018761459f565b8181036020830152614c978186614be0565b9050614ca66040830185614c52565b614cb36060830184614c61565b95945050505050565b614cc5816148f4565b82525050565b614cd481614984565b82525050565b600060e082019050614cef600083018a61459f565b614cfc6020830189614cbc565b614d096040830188614c61565b614d166060830187614ccb565b614d2360808301866145b8565b614d3060a08301856147c1565b614d3d60c08301846145b8565b98975050505050505050565b600060208284031215614d5f57614d5e6145f0565b5b6000614d6d84828501614869565b91505092915050565b60006020820190508181036000830152614d908184614be0565b905092915050565b7f6e6f7420656e6f7567682066756e647300000000000000000000000000000000600082015250565b6000614dce601083614b8b565b9150614dd982614d98565b602082019050919050565b60006020820190508181036000830152614dfd81614dc1565b9050919050565b7f4e487b7100000000000000000000000000000000000000000000000000000000600052601160045260246000fd5b6000614e3e826145ae565b9150614e49836145ae565b925082821015614e5c57614e5b614e04565b5b828203905092915050565b7f756e76616c696420496400000000000000000000000000000000000000000000600082015250565b6000614e9d600a83614b8b565b9150614ea882614e67565b602082019050919050565b60006020820190508181036000830152614ecc81614e90565b9050919050565b7f4e487b7100000000000000000000000000000000000000000000000000000000600052603260045260246000fd5b7f4f776e61626c653a2063616c6c6572206973206e6f7420746865206f776e6572600082015250565b6000614f38602083614b8b565b9150614f4382614f02565b602082019050919050565b60006020820190508181036000830152614f6781614f2b565b9050919050565b7f756e76616c696420426574204e756d6265720000000000000000000000000000600082015250565b6000614fa4601283614b8b565b9150614faf82614f6e565b602082019050919050565b60006020820190508181036000830152614fd381614f97565b9050919050565b6000614fe5826145ae565b9150614ff0836145ae565b9250817fffffffffffffffffffffffffffffffffffffffffffffffffffffffffffffffff048311821515161561502957615028614e04565b5b828202905092915050565b7f4e6f7420656e6f7567682066756e647300000000000000000000000000000000600082015250565b600061506a601083614b8b565b915061507582615034565b602082019050919050565b600060208201905081810360008301526150998161505d565b9050919050565b7f6e6f7420612076616c6964206265740000000000000000000000000000000000600082015250565b60006150d6600f83614b8b565b91506150e1826150a0565b602082019050919050565b60006020820190508181036000830152615105816150c9565b9050919050565b7f47616d65206973204f7665720000000000000000000000000000000000000000600082015250565b6000615142600c83614b8b565b915061514d8261510c565b602082019050919050565b6000602082019050818103600083015261517181615135565b9050919050565b7f756e76616c6964206f6464730000000000000000000000000000000000000000600082015250565b60006151ae600c83614b8b565b91506151b982615178565b602082019050919050565b600060208201905081810360008301526151dd816151a1565b9050919050565b60006151ef826145ae565b91507fffffffffffffffffffffffffffffffffffffffffffffffffffffffffffffffff82141561522257615221614e04565b5b600182019050919050565b7f6e6f2066756e6473000000000000000000000000000000000000000000000000600082015250565b6000615263600883614b8b565b915061526e8261522d565b602082019050919050565b6000602082019050818103600083015261529281615256565b9050919050565b60006020820190506152ae6000830184614c61565b92915050565b7f756e76616c696420616d6f756e74000000000000000000000000000000000000600082015250565b60006152ea600e83614b8b565b91506152f5826152b4565b602082019050919050565b60006020820190508181036000830152615319816152dd565b9050919050565b600061532b826145ae565b9150615336836145ae565b9250827fffffffffffffffffffffffffffffffffffffffffffffffffffffffffffffffff0382111561536b5761536a614e04565b5b828201905092915050565b7f4e487b7100000000000000000000000000000000000000000000000000000000600052602260045260246000fd5b600060028204905060018216806153bd57607f821691505b602082108114156153d1576153d0615376565b5b50919050565b7f4f776e61626c653a206e6577206f776e657220697320746865207a65726f206160008201527f6464726573730000000000000000000000000000000000000000000000000000602082015250565b6000615433602683614b8b565b915061543e826153d7565b604082019050919050565b6000602082019050818103600083015261546281615426565b9050919050565b600060808201905061547e600083018761459f565b61548b602083018661459f565b61549860408301856145b8565b6154a56060830184614c61565b95945050505050565b60006080820190506154c3600083018761459f565b6154d060208301866145b8565b6154dd6040830185614c61565b6154ea6060830184614cbc565b95945050505050565b60008160001c9050919050565b600073ffffffffffffffffffffffffffffffffffffffff82169050919050565b600061553361552e836154f3565b615500565b9050919050565b600082825260208201905092915050565b60008190508160005260206000209050919050565b6000815461556d816153a5565b615577818661553a565b9450600182166000811461559257600181146155a4576155d7565b60ff19831686526020860193506155d7565b6155ad8561554b565b60005b838110156155cf578154818901526001820191506020810190506155b0565b808801955050505b50505092915050565b600060ff82169050919050565b60006156006155fb836154f3565b6155e0565b9050919050565b61561081614c40565b82525050565b60008160081c9050919050565b600060ff82169050919050565b600061564361563e83615616565b615623565b9050919050565b600060808301600080840154905061566181615520565b61566e60008701826148be565b506001840185830360208701526156858382615560565b92505060028401549050615698816155ed565b6156a56040870182615607565b506156af81615630565b6156bc606087018261494e565b50819250505092915050565b600060208201905081810360008301526156e2818461564a565b905092915050565b7f4e487b7100000000000000000000000000000000000000000000000000000000600052601260045260246000fd5b6000615724826145ae565b915061572f836145ae565b92508261573f5761573e6156ea565b5b82820490509291505056fea2646970667358221220adff7cbdf49ba67f403402058ea5b47e286d69972bf01b857320b50efa6ea7c964736f6c63430008090033",
  "immutableReferences": {},
  "source": "// SPDX-License-Identifier: MIT\npragma solidity >=0.8.0 <0.9.0;\n\nimport \"@openzeppelin/contracts/access/Ownable.sol\";\nimport \"./Balances.sol\";\n\n\n/// @title Betting contract for one game\n/// @author Baraa Elalami\n/// @dev Order matching algorithm is basic allowing users to bet only one of the 4 amounts : 0.001 ETH, 0.01 ETH, 0.1 ETH, 1 ETH\ncontract PlaceBet is Ownable, Balances {\n\n    /// @dev Admin who decide the outcome of the game\n    address  public admin;\n    Game public game;\n    /// @notice trcks the amount of bets\n    uint public betCount;\n    /// @notice array the hold all bets\n    Bet[] public allBets;\n    /// @notice track addresses of all players\n    address[] public players;\n    /// @notice track if the game is paid\n    bool paid = false;\n\n\n    /// @notice tracks the id of the players bets\n    mapping(address => uint[]) playerBets; \n    /// @notice  tracks amount of back bets available to match : Selection => Odds => => stake amount\n    mapping(Selection => mapping( uint => mapping(uint => uint))) public backBetsAvailable; \n    /// @notice  tracks amount of lay bets available to match : Selection => Odds => => stake amount\n    mapping(Selection => mapping( uint => mapping(uint => uint))) public layBetsAvailable;\n    /// @notice tracks the Bet id of the backBets : Selection => Odds =>  stake => uint [id] | uint backBetId = backBetsId[_selection][_odds][backId][map_stake]\n    mapping(Selection => mapping( uint => mapping(uint => uint []))) public backBetsId; \n    /// @notice tracks the Bet id of the layBets : Selection => Odds =>  stake => uint [id]  | uint layBetId = backBetsId[_selection][_odds][backId][map_stake]\n    mapping(Selection => mapping( uint => mapping(uint => uint []))) public layBetsId ; \n    /// @notice  track Id of first back bet available in the backBetsId[selection][odds][stake],  Selection => Odds=> stake  => Id   uint backId = firstIndexOfBackBet[_selection][_odds][map_stake];\n    mapping(Selection => mapping( uint => mapping(uint => uint))) public firstIndexOfBackBet;\n    /// @notice  track Id of first lay bet available in the layBetsId[selection][odds][stake],  Selection => Odds=> stake  => Id   uint layId = firstIndexOfBackBet[_selection][_odds][map_stake];\n    mapping(Selection => mapping( uint => mapping(uint => uint))) public firstIndexOfLayBet;\n    /// @notice tracks the payout of the player for each outcome\n    mapping(address => mapping(Selection => uint)) playerPayout; \n    /// @notice tracks the amount of bets the player placed\n    mapping(address => uint) playerNumberOfBets; \n    \n\n\n    enum BetType {Back, Lay}\n    enum Selection {Open, Home, Draw, Away}\n    enum GameStatus {Open, Over}\n    enum BetStatus {Unmatched, Matched, Closed, Win, Lose}\n    enum Stake{ OneFinney, TenFinney, HundredFinney, OneEther}\n   \n\n    event NewStatus();\n    event GameWinner(Selection selection);\n    event unmatchedBetCreated(address _player, uint256 _odds, Selection _selection, BetType _betType);\n    event BetMatched(address _backer, address _layer, uint odds, Selection _selection);\n    event Payout(Game _game);\n    event ValueReceived(address user, uint amount);\n\n\n    /// @dev Game struct\n    struct Game {\n        address  owner;\n        string teams;\n        GameStatus status;\n        Selection winner;\n\n    }\n\n     /// @dev Bet struct\n    struct Bet {\n        address  player;\n        BetType betType;\n        Selection selection;\n        Stake stake;\n        uint odds;\n        BetStatus status;\n        uint betId;\n\n       \n    }\n\n   \n    /// @dev Check if the selection of the bet is correct \n    modifier isValidBet(Selection selection) {\n        require(selection != Selection.Open, \"not a valid bet\");\n        _;\n    }\n    /// @dev check if the game is over\n    modifier isOver() {\n        require(game.status == GameStatus.Over ,\"game is not over\");\n        _;\n    }\n    /// @dev check if game is still open\n    modifier isOpen() {\n        require(game.status == GameStatus.Open, \"Game is Over\");\n        _;\n    }\n    /// @dev Check if bet is unmatched -- Delete it \n    modifier isUnmatched(Bet memory bet) {\n        require(bet.status == BetStatus.Unmatched, \"Cant add already matched bet \");\n        _;\n    }\n   /// @dev check of odds are valid : we take _odds >100 then real odds is _odds /100 e.g 350 correspond to 3.5 odds\n    modifier isValidOdds(uint _odds) {\n        require(_odds>100, \"unvalid odds\");\n        _;\n    }\n    /// @dev checks if BetId is valid\n    modifier isValidId(uint _betId) {\n        require(_betId>0 && _betId<=allBets.length, \"unvalid Id\");\n        _;\n    }\n    /// @dev checks if bet number is valid\n    modifier isValidBetNumber(uint _betNumber, address _player) {\n        require(playerNumberOfBets[_player]>_betNumber, \"unvalid Bet Number\");\n        _;\n    }\n    //// @dev checks if user has enough funds to place the bet \n    modifier hasEnoughFunds(BetType _betType, address _player, Stake _stake, uint _odds ) {\n        uint256 mul = _stake == Stake.OneFinney ? 1 : _stake == Stake.TenFinney ? 10 : _stake == Stake.HundredFinney ? 100 : 1000;\n        \n        if (_betType == BetType.Back){\n            \n             require(balances[_player] >= mul * 10**15, 'Not enough funds' ) ;\n        }\n        else if (_betType == BetType.Lay) {\n            \n            uint amount= ( _odds -100) * 10**13;\n\n            require(balances[_player] >= amount*mul, 'Not enough funds') ;\n\n        }\n        _;\n        \n    }\n    /// @dev  check if game is already paid   \n    modifier isNotPaid() {\n        require(!paid, 'game already paid');\n        _;\n    }\n\n  \n    /// @param teams string describing the Game/Bet e.g Real Madrid vs Inter Milan\n    constructor(string memory teams)  {\n        \n        admin = msg.sender;\n        game.owner = admin;\n        game.teams = teams;\n        game.status = GameStatus.Open;\n        game.winner = Selection.Open;\n\n    }\n\n    /// GAME SECTION FUNCTIONS\n      \n    /// @dev function that change game status\n    /// @param winner of the game ( 1=HOME, 2=DRAW, 3=AWAY)\n    function changeGameStatus( Selection winner) public onlyOwner isOpen()  {\n        game.status = GameStatus.Over;\n        game.winner = winner;\n        uint totalBets = allBets.length;\n        \n        for(uint i=0; i<totalBets; i++) {\n            if(allBets[i].status == BetStatus.Unmatched){\n                allBets[i].status = BetStatus.Closed;\n            } else if (allBets[i].status == BetStatus.Matched) {\n                if ((allBets[i].selection == winner && allBets[i].betType== BetType.Back) || (allBets[i].selection!= winner && allBets[i].betType== BetType.Lay)){\n                    allBets[i].status = BetStatus.Win;\n                } else {\n                     allBets[i].status = BetStatus.Lose;\n                }\n            }\n        \n        }\n        \n        \n        emit GameWinner( winner);\n        \n        adminPayout();\n        \n\n\n\n    }\n\n    /// @return string of the teams/object of the game\n    function getTeams() public view returns(string memory)  {\n        return game.teams;\n    }\n    \n\n    /// BETTING SECTION : FUNCTION FOR PLACING BETS\n\n    /// @dev callable function that places the bets\n    /// @param _betType  Back or Lay (Back = 0, Lay = 1)\n    /// @param _selection Bet selection (1 = HOME, 2 = DRAW, 3 = AWAY)\n    /// @param _stake Amount to bet (0 = 0.001 ETH, 1 = 0.01 ETH, 2 = 0.1 ETH, 3 = 1 ETH)\n    /// @param _odds must be > 100 then real odds is _odds /100 e.g 350 correspond to 3.5 odds\n    function placeBet(BetType _betType, Selection _selection, Stake _stake, uint _odds )  external payable  hasEnoughFunds( _betType, msg.sender,  _stake,  _odds ) isValidBet(_selection) isOpen() isValidOdds(_odds)   {\n        \n        betCount++;\n        \n         if(playerNumberOfBets[msg.sender]==0) { \n            players.push(msg.sender);\n           \n        }\n        \n        \n        addBet(msg.sender, _betType, _selection, _stake, _odds);\n        \n        \n       \n        \n        uint mul = _stake == Stake.OneFinney ? 1 : _stake == Stake.TenFinney ? 10 : _stake == Stake.HundredFinney ? 100 : 1000;\n        \n        if(_betType == BetType.Back){\n            \n            balances[msg.sender] -= mul*10**15;\n            placeBackBet(msg.sender, _selection, _stake, _odds);\n            \n        } else if (_betType == BetType.Lay) {\n            uint amount = mul*(_odds-100)*10**13;\n            balances[msg.sender] -= amount;\n            placeLayBet(msg.sender, _selection, _stake, _odds);\n        }\n        \n        \n\n\n    }\n\n    /// @dev internal function used to place back bets by placeBet\n    /// @param player  Address placing the bet\n    /// @param _selection Bet selection (1 = HOME, 2 = DRAW, 3 = AWAY)\n    /// @param _stake Amount to bet (0 = 0.001 ETH, 1 = 0.01 ETH, 2 = 0.1 ETH, 3 = 1 ETH)\n    /// @param _odds must be > 100 then real odds is _odds /100 e.g 350 correspond to 3.5 odds\n    function placeBackBet( address  player, Selection _selection, Stake _stake, uint _odds) internal {\n        uint map_stake = _stake == Stake.OneFinney ? 0 : _stake == Stake.TenFinney ? 1 : _stake == Stake.HundredFinney ? 2 : 3;\n       \n        backBetsId[_selection][_odds][map_stake].push(betCount);\n       \n            // Check if possible to match the bet\n        if (layBetsAvailable[_selection][_odds][map_stake]>0) {\n\n            uint layId = firstIndexOfLayBet[_selection][_odds][map_stake];\n            uint layBetId = layBetsId[_selection][_odds][map_stake][layId]; // get Id of the lay bet\n            allBets[betCount-1].status = BetStatus.Matched;\n            allBets[layBetId-1].status = BetStatus.Matched;\n            firstIndexOfLayBet[_selection][_odds][map_stake] ++; // increment the index\n            layBetsAvailable[_selection][_odds][map_stake]-=1; // decrement number of laybet available\n            address  layPlayer = allBets[layBetId-1].player;\n            incrementPotentialPayout(player, _odds,  _selection, BetType.Back, _stake);\n            incrementWithStake(player, _odds, BetType.Back, _stake);\n            decrementWithStake(player, _odds, _selection, BetType.Back, _stake);\n            decrementWithStake(layPlayer, _odds, _selection, BetType.Lay, _stake);\n            incrementPotentialPayout(layPlayer, _odds,  _selection, BetType.Lay, _stake);\n            emit BetMatched(player, layPlayer,  _odds,  _selection);\n        \n        }\n           \n\n            else if (layBetsAvailable[_selection][_odds][map_stake] == 0) {\n                backBetsAvailable[_selection][_odds][map_stake]+=1;\n                // do something for first index\n                incrementWithStake(player, _odds,  BetType.Back, _stake);\n                emit unmatchedBetCreated(player,  _odds,  _selection,  BetType.Back);\n            }\n        \n    }\n\n    /// @dev internal function used to place lay bets by placeBet\n    /// @param player  Address placing the bet\n    /// @param _selection Bet selection (1 = HOME, 2 = DRAW, 3 = AWAY)\n    /// @param _stake Amount to bet (0 = 0.001 ETH, 1 = 0.01 ETH, 2 = 0.1 ETH, 3 = 1 ETH)\n    /// @param _odds must be > 100 then real odds is _odds /100 e.g 350 correspond to 3.5 odds\n    function placeLayBet( address  player, Selection _selection, Stake _stake, uint _odds) internal {\n        uint map_stake = _stake == Stake.OneFinney ? 0 : _stake == Stake.TenFinney ? 1 : _stake == Stake.HundredFinney ? 2 : 3;\n        backBetsId[_selection][_odds][map_stake].push(betCount);\n\n\n        // Check if possible to match the bet\n        if (backBetsAvailable[_selection][_odds][map_stake]>0) {\n\n            uint backId = firstIndexOfBackBet[_selection][_odds][map_stake];\n            uint backBetId = backBetsId[_selection][_odds][map_stake][backId]; // get Id of the back bet\n            allBets[betCount-1].status = BetStatus.Matched;\n            allBets[backBetId-1].status = BetStatus.Matched;\n            firstIndexOfBackBet[_selection][_odds][map_stake] ++; // increment the index\n            backBetsAvailable[_selection][_odds][map_stake]-=1; // decrement number of laybet available\n            address  backPlayer = allBets[backBetId-1].player;\n\n            \n            incrementPotentialPayout(player, _odds,  _selection, BetType.Lay, _stake);\n            incrementWithStake(player, _odds,  BetType.Lay, _stake);\n            decrementWithStake(player, _odds, _selection, BetType.Lay, _stake);\n            decrementWithStake(backPlayer, _odds, _selection, BetType.Back, _stake);\n            incrementPotentialPayout(backPlayer, _odds,  _selection, BetType.Back, _stake);\n            emit BetMatched(backPlayer, player,  _odds,  _selection);\n            \n\n        \n        }\n       \n\n        else if (backBetsAvailable[_selection][_odds][map_stake] == 0) {\n            layBetsAvailable[_selection][_odds][map_stake]+=1;\n            incrementWithStake(player, _odds,  BetType.Lay, _stake);\n            emit unmatchedBetCreated(player,  _odds,  _selection,  BetType.Lay);\n        }\n        \n        \n    }\n\n    /// @dev internal function used add the bet to allBets[] array and update different variables\n    /// @param player  Address placing the bet\n    /// @param _betType  Back or Lay (Back = 0, Lay = 1)\n    /// @param _selection Bet selection (1 = HOME, 2 = DRAW, 3 = AWAY)\n    /// @param _stake Amount to bet (0 = 0.001 ETH, 1 = 0.01 ETH, 2 = 0.1 ETH, 3 = 1 ETH)\n    /// @param _odds must be > 100 then real odds is _odds /100 e.g 350 correspond to 3.5 odds\n    function addBet(address  player,BetType _betType, Selection _selection, Stake _stake, uint _odds ) internal {\n        Bet memory playerBet = Bet(player, _betType, _selection, _stake, _odds, BetStatus.Unmatched, betCount);\n        allBets.push(playerBet);\n        playerBets[msg.sender].push(betCount);\n        playerNumberOfBets[msg.sender]++;\n        \n    }  \n\n    /// @param _selection Bet selection (1 = HOME, 2 = DRAW, 3 = AWAY)\n    /// @param _stake Amount to bet (0 = 0.001 ETH, 1 = 0.01 ETH, 2 = 0.1 ETH, 3 = 1 ETH)\n    /// @param _odds must be > 100 then real odds is _odds /100 e.g 350 correspond to 3.5 odds\n    /// @return number of back bets available for particular parameters\n    function getBackBetsAvailable(Selection _selection, uint _odds, Stake _stake) public view returns(uint) {\n        uint map_stake = _stake == Stake.OneFinney ? 0 : _stake == Stake.TenFinney ? 1 : _stake == Stake.HundredFinney ? 2 : 4;\n        uint backbets = backBetsAvailable[_selection][_odds][map_stake];\n        return backbets;\n    }\n\n    /// @param _selection Bet selection (1 = HOME, 2 = DRAW, 3 = AWAY)\n    /// @param _stake Amount to bet (0 = 0.001 ETH, 1 = 0.01 ETH, 2 = 0.1 ETH, 3 = 1 ETH)\n    /// @param _odds must be > 100 then real odds is _odds /100 e.g 350 correspond to 3.5 odds\n    /// @return number of lay bets available for particular parameters\n    function getLayBetsAvailable(Selection _selection, uint _odds, Stake _stake) public view returns(uint) {\n        uint map_stake = _stake == Stake.OneFinney ? 0 : _stake == Stake.TenFinney ? 1 : _stake == Stake.HundredFinney ? 2 : 4;\n        uint laybets = layBetsAvailable[_selection][_odds][map_stake];\n        return laybets;\n    }\n\n    /// @param _player  Address placing the bet\n    /// @return number of bets placed by _player\n    function getPlayerNumberOfBets(address _player) public view returns(uint) {\n        return playerNumberOfBets[_player];\n    }\n\n    /// @param _betNumber the bet number _betNumber placed by the player\n    /// @param _player  Address placing the bet\n    /// @return The bet placed by the player\n    function getPlayerBet(address _player, uint _betNumber) public view isValidBetNumber(_betNumber, _player) returns(Bet memory) {\n        uint _betId = playerBets[_player][_betNumber] -1;\n        return allBets[_betId];\n        \n    }\n\n\n    /// @param _betId Id of the requested bet\n    /// @return The bet with the corresponding Id\n     function getBetStatus(uint _betId)  public view isValidId(_betId) returns(BetStatus)  {\n        return allBets[_betId-1].status;\n    }\n\n\n\n\n    /// PAYOUT SECTION : FUNCTION FOR HANDLING PLAYER POTENTIAL PAYOUT\n\n    /// @dev internal function increments the playerPayout of the player with potential winning ( not counting the stake) for the selection, used when the bet can bet matched\n    /// @param _player  Address placing the bet\n    /// @param _betType  Back or Lay (Back = 0, Lay = 1)\n    /// @param _selection Bet selection (1 = HOME, 2 = DRAW, 3 = AWAY)\n    /// @param _stake Amount to bet (0 = 0.001 ETH, 1 = 0.01 ETH, 2 = 0.1 ETH, 3 = 1 ETH)\n    /// @param _odds must be > 100 then real odds is _odds /100 e.g 350 correspond to 3.5 odds\n    function incrementPotentialPayout(address  _player, uint _odds, Selection _selection, BetType _betType, Stake _stake) internal {\n        uint256 mul = _stake == Stake.OneFinney ? 1 : _stake == Stake.TenFinney ? 10 : _stake == Stake.HundredFinney ? 100 : 1000;\n\n        if (_betType == BetType.Back) {\n            playerPayout[_player][_selection] += mul*(_odds - 100)* 0.001 ether/100;\n        }\n\n        else if (_betType == BetType.Lay) {\n            if(_selection == Selection.Home) {\n                playerPayout[_player][Selection.Draw] += mul*0.001 ether;\n                playerPayout[_player][Selection.Away] += mul*0.001 ether;\n            }\n            else if(_selection == Selection.Draw) {\n                playerPayout[_player][Selection.Home] += mul*0.001 ether;\n                playerPayout[_player][Selection.Away] += mul*0.001 ether;\n            }\n            else if(_selection == Selection.Away) {\n                playerPayout[_player][Selection.Home] += mul*0.001 ether;\n                playerPayout[_player][Selection.Draw] += mul*0.001 ether;\n            }\n        }\n    }\n\n    /// @dev internal function increments the playerPayout of the player with his stake, used when the bet can't be matched\n    /// @param _betType  Back or Lay (Back = 0, Lay = 1)\n    /// @param _stake Amount to bet (0 = 0.001 ETH, 1 = 0.01 ETH, 2 = 0.1 ETH, 3 = 1 ETH)\n    /// @param _odds must be > 100 then real odds is _odds /100 e.g 350 correspond to 3.5 odds\n    function incrementWithStake(address  _player, uint _odds,  BetType _betType, Stake _stake) internal {\n        uint256 mul = _stake == Stake.OneFinney ? 1 : _stake == Stake.TenFinney ? 10 : _stake == Stake.HundredFinney ? 100 : 1000;\n        if (_betType == BetType.Back) {\n            playerPayout[_player][Selection.Draw] += mul*0.001 ether;\n            playerPayout[_player][Selection.Away] += mul*0.001 ether;\n            playerPayout[_player][Selection.Home] += mul*0.001 ether;\n        }\n\n        else if (_betType == BetType.Lay) {\n            playerPayout[_player][Selection.Away] += mul*(_odds -100) * 0.001 ether / 100;\n            playerPayout[_player][Selection.Home] += mul*(_odds -100) * 0.001 ether / 100;\n            playerPayout[_player][Selection.Draw] += mul*(_odds -100) * 0.001 ether / 100;\n\n        }\n    }\n\n    \n    /// @dev internal function decrements player payout with his initial stake, used when the bet can be matched\n    /// @param _player  Address placing the bet\n    /// @param _betType  Back or Lay (Back = 0, Lay = 1)\n    /// @param _selection Bet selection (1 = HOME, 2 = DRAW, 3 = AWAY)\n    /// @param _stake Amount to bet (0 = 0.001 ETH, 1 = 0.01 ETH, 2 = 0.1 ETH, 3 = 1 ETH)\n    /// @param _odds must be > 100 then real odds is _odds /100 e.g 350 correspond to 3.5 odds\n    function decrementWithStake(address  _player, uint _odds, Selection _selection, BetType _betType, Stake _stake) internal {\n        uint256 mul = _stake == Stake.OneFinney ? 1 : _stake == Stake.TenFinney ? 10 : _stake == Stake.HundredFinney ? 100 : 1000;\n\n        if (_betType == BetType.Back) {\n            if(_selection == Selection.Home) {\n                playerPayout[_player][Selection.Draw] -= mul*0.001 ether;\n                playerPayout[_player][Selection.Away] -= mul*0.001 ether;\n            }\n            else if(_selection == Selection.Draw) {\n                playerPayout[_player][Selection.Home] -= mul*0.001 ether;\n                playerPayout[_player][Selection.Away] -= mul*0.001 ether;\n            }\n            else if(_selection == Selection.Away) {\n                playerPayout[_player][Selection.Home] -= mul*0.001 ether;\n                playerPayout[_player][Selection.Draw] -= mul*0.001 ether;\n            }\n        }\n            \n        \n\n        else if (_betType == BetType.Lay) {\n            playerPayout[_player][_selection] -= mul*(_odds -100) * 0.001 ether / 100;\n            \n\n        }\n\n\n    }\n\n    /// @dev internal function that updates players balances when the game is finished, called when admin changes the game status\n    function adminPayout() internal {\n        \n       \n        for(uint i=0; i< players.length; i++) {\n            balances[players[i]] += playerPayout[players[i]][game.winner];\n            \n        }\n          \n        emit Payout(game);\n\n    }\n    \n    /// @dev returns current player current payout for the selection\n    /// @param _player  Address placing the bet\n    /// @param _selection Bet selection (1 = HOME, 2 = DRAW, 3 = AWAY)\n    function getPayout(address  _player, Selection _selection) public view returns(uint) {\n        uint _payout = playerPayout[_player][_selection];\n        return _payout;\n    }  \n\n    \n    /// FALLBACK FUNCTIONS\n    receive() external payable {\n        \n        emit ValueReceived(msg.sender, msg.value);\n        \n    }\n    \n    fallback() external payable {\n        \n        emit ValueReceived(msg.sender, msg.value);\n        \n    }\n\n  \n\n\n}  ",
  "sourcePath": "/Users/baraa/Github/blockchain-developer-bootcamp-final-project/contracts/PlaceBet.sol",
  "compiler": {
    "name": "solc",
    "version": "0.8.9+commit.e5eed63a.Emscripten.clang"
  },
  "schemaVersion": "3.4.3",
  "updatedAt": "2021-11-17T18:53:39.437Z",
  "devdoc": {
    "author": "Baraa Elalami",
    "details": "Order matching algorithm is basic allowing users to bet only one of the 4 amounts : 0.001 ETH, 0.01 ETH, 0.1 ETH, 1 ETH",
    "kind": "dev",
    "methods": {
      "changeGameStatus(uint8)": {
        "details": "function that change game status",
        "params": {
          "winner": "of the game ( 1=HOME, 2=DRAW, 3=AWAY)"
        }
      },
      "constructor": {
        "params": {
          "teams": "string describing the Game/Bet e.g Real Madrid vs Inter Milan"
        }
      },
      "deposit(uint256)": {
        "params": {
          "amount": "to deposit "
        }
      },
      "getBackBetsAvailable(uint8,uint256,uint8)": {
        "params": {
          "_odds": "must be > 100 then real odds is _odds /100 e.g 350 correspond to 3.5 odds",
          "_selection": "Bet selection (1 = HOME, 2 = DRAW, 3 = AWAY)",
          "_stake": "Amount to bet (0 = 0.001 ETH, 1 = 0.01 ETH, 2 = 0.1 ETH, 3 = 1 ETH)"
        },
        "returns": {
          "_0": "number of back bets available for particular parameters"
        }
      },
      "getBalance(address)": {
        "params": {
          "_player": "address"
        },
        "returns": {
          "_0": "user balance"
        }
      },
      "getBetStatus(uint256)": {
        "params": {
          "_betId": "Id of the requested bet"
        },
        "returns": {
          "_0": "The bet with the corresponding Id"
        }
      },
      "getLayBetsAvailable(uint8,uint256,uint8)": {
        "params": {
          "_odds": "must be > 100 then real odds is _odds /100 e.g 350 correspond to 3.5 odds",
          "_selection": "Bet selection (1 = HOME, 2 = DRAW, 3 = AWAY)",
          "_stake": "Amount to bet (0 = 0.001 ETH, 1 = 0.01 ETH, 2 = 0.1 ETH, 3 = 1 ETH)"
        },
        "returns": {
          "_0": "number of lay bets available for particular parameters"
        }
      },
      "getPayout(address,uint8)": {
        "details": "returns current player current payout for the selection",
        "params": {
          "_player": "Address placing the bet",
          "_selection": "Bet selection (1 = HOME, 2 = DRAW, 3 = AWAY)"
        }
      },
      "getPlayerBet(address,uint256)": {
        "params": {
          "_betNumber": "the bet number _betNumber placed by the player",
          "_player": "Address placing the bet"
        },
        "returns": {
          "_0": "The bet placed by the player"
        }
      },
      "getPlayerNumberOfBets(address)": {
        "params": {
          "_player": "Address placing the bet"
        },
        "returns": {
          "_0": "number of bets placed by _player"
        }
      },
      "getTeams()": {
        "returns": {
          "_0": "string of the teams/object of the game"
        }
      },
      "owner()": {
        "details": "Returns the address of the current owner."
      },
      "placeBet(uint8,uint8,uint8,uint256)": {
        "details": "callable function that places the bets",
        "params": {
          "_betType": "Back or Lay (Back = 0, Lay = 1)",
          "_odds": "must be > 100 then real odds is _odds /100 e.g 350 correspond to 3.5 odds",
          "_selection": "Bet selection (1 = HOME, 2 = DRAW, 3 = AWAY)",
          "_stake": "Amount to bet (0 = 0.001 ETH, 1 = 0.01 ETH, 2 = 0.1 ETH, 3 = 1 ETH)"
        }
      },
      "renounceOwnership()": {
        "details": "Leaves the contract without owner. It will not be possible to call `onlyOwner` functions anymore. Can only be called by the current owner. NOTE: Renouncing ownership will leave the contract without an owner, thereby removing any functionality that is only available to the owner."
      },
      "transferOwnership(address)": {
        "details": "Transfers ownership of the contract to a new account (`newOwner`). Can only be called by the current owner."
      },
      "withdraw(uint256)": {
        "params": {
          "amount": "to withdraw "
        }
      }
    },
    "stateVariables": {
      "admin": {
        "details": "Admin who decide the outcome of the game"
      }
    },
    "title": "Betting contract for one game",
    "version": 1
  },
  "userdoc": {
    "events": {
      "PlayerDeposit(address,uint256)": {
        "notice": "event firing for withrawal and deposits"
      }
    },
    "kind": "user",
    "methods": {
      "allBets(uint256)": {
        "notice": "array the hold all bets"
      },
      "backBetsAvailable(uint8,uint256,uint256)": {
        "notice": "tracks amount of back bets available to match : Selection => Odds => => stake amount"
      },
      "backBetsId(uint8,uint256,uint256,uint256)": {
        "notice": "tracks the Bet id of the backBets : Selection => Odds =>  stake => uint [id] | uint backBetId = backBetsId[_selection][_odds][backId][map_stake]"
      },
      "betCount()": {
        "notice": "trcks the amount of bets"
      },
      "deposit(uint256)": {
        "notice": "deposit function, adds amount to user balance"
      },
      "firstIndexOfBackBet(uint8,uint256,uint256)": {
        "notice": "track Id of first back bet available in the backBetsId[selection][odds][stake],  Selection => Odds=> stake  => Id   uint backId = firstIndexOfBackBet[_selection][_odds][map_stake];"
      },
      "firstIndexOfLayBet(uint8,uint256,uint256)": {
        "notice": "track Id of first lay bet available in the layBetsId[selection][odds][stake],  Selection => Odds=> stake  => Id   uint layId = firstIndexOfBackBet[_selection][_odds][map_stake];"
      },
      "layBetsAvailable(uint8,uint256,uint256)": {
        "notice": "tracks amount of lay bets available to match : Selection => Odds => => stake amount"
      },
      "layBetsId(uint8,uint256,uint256,uint256)": {
        "notice": "tracks the Bet id of the layBets : Selection => Odds =>  stake => uint [id]  | uint layBetId = backBetsId[_selection][_odds][backId][map_stake]"
      },
      "players(uint256)": {
        "notice": "track addresses of all players"
      },
      "withdraw(uint256)": {
        "notice": "withdraw function, substract amount from user balance and send the amount "
      },
      "withdrawAll()": {
        "notice": "withdraw all function, send remaining balance back to user"
      }
    },
    "version": 1
  }
}