{
  "contractName": "TheGame",
  "abi": [
    {
      "inputs": [
        {
          "internalType": "string",
          "name": "_teams",
          "type": "string"
        },
        {
          "internalType": "uint256",
          "name": "_kickoff",
          "type": "uint256"
        }
      ],
      "stateMutability": "nonpayable",
      "type": "constructor"
    },
    {
      "inputs": [],
      "name": "betCount",
      "outputs": [
        {
          "internalType": "uint256",
          "name": "",
          "type": "uint256"
        }
      ],
      "stateMutability": "view",
      "type": "function"
    }
  ],
  "bytecode": "0x608060405234801561001057600080fd5b5060405161050f38038061050f83398181016040528101906100329190610362565b33600160000160006101000a81548173ffffffffffffffffffffffffffffffffffffffff021916908373ffffffffffffffffffffffffffffffffffffffff160217905550806001800181905550816001600201908051906020019061009892919061010b565b506000600160030160006101000a81548160ff021916908360018111156100c2576100c16103be565b5b02179055506000600160030160016101000a81548160ff021916908360038111156100f0576100ef6103be565b5b0217905550600060088190555060008081905550505061044e565b8280546101179061041c565b90600052602060002090601f0160209004810192826101395760008555610180565b82601f1061015257805160ff1916838001178555610180565b82800160010185558215610180579182015b8281111561017f578251825591602001919060010190610164565b5b50905061018d9190610191565b5090565b5b808211156101aa576000816000905550600101610192565b5090565b6000604051905090565b600080fd5b600080fd5b600080fd5b600080fd5b6000601f19601f8301169050919050565b7f4e487b7100000000000000000000000000000000000000000000000000000000600052604160045260246000fd5b610215826101cc565b810181811067ffffffffffffffff82111715610234576102336101dd565b5b80604052505050565b60006102476101ae565b9050610253828261020c565b919050565b600067ffffffffffffffff821115610273576102726101dd565b5b61027c826101cc565b9050602081019050919050565b60005b838110156102a757808201518184015260208101905061028c565b838111156102b6576000848401525b50505050565b60006102cf6102ca84610258565b61023d565b9050828152602081018484840111156102eb576102ea6101c7565b5b6102f6848285610289565b509392505050565b600082601f830112610313576103126101c2565b5b81516103238482602086016102bc565b91505092915050565b6000819050919050565b61033f8161032c565b811461034a57600080fd5b50565b60008151905061035c81610336565b92915050565b60008060408385031215610379576103786101b8565b5b600083015167ffffffffffffffff811115610397576103966101bd565b5b6103a3858286016102fe565b92505060206103b48582860161034d565b9150509250929050565b7f4e487b7100000000000000000000000000000000000000000000000000000000600052602160045260246000fd5b7f4e487b7100000000000000000000000000000000000000000000000000000000600052602260045260246000fd5b6000600282049050600182168061043457607f821691505b60208210811415610448576104476103ed565b5b50919050565b60b38061045c6000396000f3fe6080604052348015600f57600080fd5b506004361060285760003560e01c8063cf09449714602d575b600080fd5b60336047565b604051603e91906064565b60405180910390f35b60005481565b6000819050919050565b605e81604d565b82525050565b6000602082019050607760008301846057565b9291505056fea264697066735822122002f86cf9aed7c8aa476d945537d2c8f33e48e71e7d2f4dc6e1aa53ebf0af287a64736f6c63430008090033",
  "immutableReferences": {},
  "source": "pragma solidity >=0.8.0 <0.9.0;\n\ncontract TheGame {\n    uint public betCount;\n\n    enum BetType {Back, Lay}\n    enum Selection {Open, Home, Draw, Away}\n    enum GameStatus {Open, Over}\n    enum BetStatus {Unmachted, Matched, Closed, Win, Lose}\n\n    struct Game {\n        address owner;\n        uint kickOff;\n        string teams;\n        GameStatus status;\n        Selection winner;\n    }\n\n    struct Bet {\n        address payable player;\n        BetType betType;\n        Selection selection;\n        //uint stake; gonna assume only 0.001 ether bet allowed\n        uint odds;\n        BetStatus status;\n        uint betId;\n    }\n\n    // holds game data\n    Game game; \n\n    // holds all unmatched bets\n    mapping(BetType => mapping(Selection => uint256[])) unmatchedBets;\n    // hold all back bets by matched index\n    mapping(uint => uint256[]) backBets;\n    // hold all lay bets by matched index\n    mapping(uint => uint256[]) layBets;\n    // match index to connect lay and back bets\n    uint matchIndex;\n\n    Bet[] allBets;\n\n    constructor(string memory _teams, uint256 _kickoff) {\n        game.owner = msg.sender;\n        game.kickOff = _kickoff;\n        game.teams = _teams;\n        game.status = GameStatus.Open;\n        game.winner = Selection.Open;\n        matchIndex = 0;\n        \n        betCount = 0;\n    }\n\n    \n    \n\n\n\n\n\n\n\n}",
  "sourcePath": "/Users/baraa/Github/blockchain-developer-bootcamp-final-project/contracts/Game.sol",
  "compiler": {
    "name": "solc",
    "version": "0.8.9+commit.e5eed63a.Emscripten.clang"
  },
  "schemaVersion": "3.4.3",
  "updatedAt": "2021-11-04T13:55:40.724Z",
  "devdoc": {
    "kind": "dev",
    "methods": {},
    "version": 1
  },
  "userdoc": {
    "kind": "user",
    "methods": {},
    "version": 1
  }
}