{
  "contractName": "TheGame",
  "abi": [
    {
      "inputs": [
        {
          "internalType": "string",
          "name": "teams",
          "type": "string"
        }
      ],
      "stateMutability": "nonpayable",
      "type": "constructor"
    },
    {
      "anonymous": false,
      "inputs": [
        {
          "indexed": false,
          "internalType": "address",
          "name": "_backer",
          "type": "address"
        },
        {
          "indexed": false,
          "internalType": "address",
          "name": "_layer",
          "type": "address"
        },
        {
          "indexed": false,
          "internalType": "uint256",
          "name": "odds",
          "type": "uint256"
        },
        {
          "indexed": false,
          "internalType": "enum TheGame.Selection",
          "name": "_selection",
          "type": "uint8"
        }
      ],
      "name": "BetMatched",
      "type": "event"
    },
    {
      "anonymous": false,
      "inputs": [
        {
          "indexed": false,
          "internalType": "enum TheGame.Selection",
          "name": "selection",
          "type": "uint8"
        }
      ],
      "name": "GameWinner",
      "type": "event"
    },
    {
      "anonymous": false,
      "inputs": [],
      "name": "NewStatus",
      "type": "event"
    },
    {
      "anonymous": false,
      "inputs": [
        {
          "indexed": true,
          "internalType": "address",
          "name": "previousOwner",
          "type": "address"
        },
        {
          "indexed": true,
          "internalType": "address",
          "name": "newOwner",
          "type": "address"
        }
      ],
      "name": "OwnershipTransferred",
      "type": "event"
    },
    {
      "anonymous": false,
      "inputs": [
        {
          "components": [
            {
              "internalType": "address",
              "name": "owner",
              "type": "address"
            },
            {
              "internalType": "string",
              "name": "teams",
              "type": "string"
            },
            {
              "internalType": "enum TheGame.GameStatus",
              "name": "status",
              "type": "uint8"
            },
            {
              "internalType": "enum TheGame.Selection",
              "name": "winner",
              "type": "uint8"
            }
          ],
          "indexed": false,
          "internalType": "struct TheGame.Game",
          "name": "_game",
          "type": "tuple"
        }
      ],
      "name": "Payout",
      "type": "event"
    },
    {
      "anonymous": false,
      "inputs": [
        {
          "indexed": false,
          "internalType": "address",
          "name": "player",
          "type": "address"
        },
        {
          "indexed": false,
          "internalType": "uint256",
          "name": "amount",
          "type": "uint256"
        }
      ],
      "name": "PlayerDeposit",
      "type": "event"
    },
    {
      "anonymous": false,
      "inputs": [
        {
          "indexed": false,
          "internalType": "address",
          "name": "player",
          "type": "address"
        },
        {
          "indexed": false,
          "internalType": "uint256",
          "name": "amount",
          "type": "uint256"
        }
      ],
      "name": "PlayerWithdrawal",
      "type": "event"
    },
    {
      "anonymous": false,
      "inputs": [
        {
          "indexed": false,
          "internalType": "address",
          "name": "user",
          "type": "address"
        },
        {
          "indexed": false,
          "internalType": "uint256",
          "name": "amount",
          "type": "uint256"
        }
      ],
      "name": "ValueReceived",
      "type": "event"
    },
    {
      "anonymous": false,
      "inputs": [
        {
          "indexed": false,
          "internalType": "address",
          "name": "_player",
          "type": "address"
        },
        {
          "indexed": false,
          "internalType": "uint256",
          "name": "_odds",
          "type": "uint256"
        },
        {
          "indexed": false,
          "internalType": "enum TheGame.Selection",
          "name": "_selection",
          "type": "uint8"
        },
        {
          "indexed": false,
          "internalType": "enum TheGame.BetType",
          "name": "_betType",
          "type": "uint8"
        }
      ],
      "name": "unmatchedBetCreated",
      "type": "event"
    },
    {
      "stateMutability": "payable",
      "type": "fallback"
    },
    {
      "inputs": [],
      "name": "admin",
      "outputs": [
        {
          "internalType": "address",
          "name": "",
          "type": "address"
        }
      ],
      "stateMutability": "view",
      "type": "function"
    },
    {
      "inputs": [
        {
          "internalType": "uint256",
          "name": "",
          "type": "uint256"
        }
      ],
      "name": "allBets",
      "outputs": [
        {
          "internalType": "address",
          "name": "player",
          "type": "address"
        },
        {
          "internalType": "enum TheGame.BetType",
          "name": "betType",
          "type": "uint8"
        },
        {
          "internalType": "enum TheGame.Selection",
          "name": "selection",
          "type": "uint8"
        },
        {
          "internalType": "enum TheGame.Stake",
          "name": "stake",
          "type": "uint8"
        },
        {
          "internalType": "uint256",
          "name": "odds",
          "type": "uint256"
        },
        {
          "internalType": "enum TheGame.BetStatus",
          "name": "status",
          "type": "uint8"
        },
        {
          "internalType": "uint256",
          "name": "betId",
          "type": "uint256"
        }
      ],
      "stateMutability": "view",
      "type": "function"
    },
    {
      "inputs": [
        {
          "internalType": "enum TheGame.Selection",
          "name": "",
          "type": "uint8"
        },
        {
          "internalType": "uint256",
          "name": "",
          "type": "uint256"
        },
        {
          "internalType": "uint256",
          "name": "",
          "type": "uint256"
        }
      ],
      "name": "backBetsAvailable",
      "outputs": [
        {
          "internalType": "uint256",
          "name": "",
          "type": "uint256"
        }
      ],
      "stateMutability": "view",
      "type": "function"
    },
    {
      "inputs": [
        {
          "internalType": "enum TheGame.Selection",
          "name": "",
          "type": "uint8"
        },
        {
          "internalType": "uint256",
          "name": "",
          "type": "uint256"
        },
        {
          "internalType": "uint256",
          "name": "",
          "type": "uint256"
        },
        {
          "internalType": "uint256",
          "name": "",
          "type": "uint256"
        }
      ],
      "name": "backBetsId",
      "outputs": [
        {
          "internalType": "uint256",
          "name": "",
          "type": "uint256"
        }
      ],
      "stateMutability": "view",
      "type": "function"
    },
    {
      "inputs": [],
      "name": "betCount",
      "outputs": [
        {
          "internalType": "uint256",
          "name": "",
          "type": "uint256"
        }
      ],
      "stateMutability": "view",
      "type": "function"
    },
    {
      "inputs": [
        {
          "internalType": "enum TheGame.Selection",
          "name": "",
          "type": "uint8"
        },
        {
          "internalType": "uint256",
          "name": "",
          "type": "uint256"
        },
        {
          "internalType": "uint256",
          "name": "",
          "type": "uint256"
        }
      ],
      "name": "firstIndexOfBackBet",
      "outputs": [
        {
          "internalType": "uint256",
          "name": "",
          "type": "uint256"
        }
      ],
      "stateMutability": "view",
      "type": "function"
    },
    {
      "inputs": [
        {
          "internalType": "enum TheGame.Selection",
          "name": "",
          "type": "uint8"
        },
        {
          "internalType": "uint256",
          "name": "",
          "type": "uint256"
        },
        {
          "internalType": "uint256",
          "name": "",
          "type": "uint256"
        }
      ],
      "name": "firstIndexOfLayBet",
      "outputs": [
        {
          "internalType": "uint256",
          "name": "",
          "type": "uint256"
        }
      ],
      "stateMutability": "view",
      "type": "function"
    },
    {
      "inputs": [],
      "name": "game",
      "outputs": [
        {
          "internalType": "address",
          "name": "owner",
          "type": "address"
        },
        {
          "internalType": "string",
          "name": "teams",
          "type": "string"
        },
        {
          "internalType": "enum TheGame.GameStatus",
          "name": "status",
          "type": "uint8"
        },
        {
          "internalType": "enum TheGame.Selection",
          "name": "winner",
          "type": "uint8"
        }
      ],
      "stateMutability": "view",
      "type": "function"
    },
    {
      "inputs": [
        {
          "internalType": "enum TheGame.Selection",
          "name": "",
          "type": "uint8"
        },
        {
          "internalType": "uint256",
          "name": "",
          "type": "uint256"
        },
        {
          "internalType": "uint256",
          "name": "",
          "type": "uint256"
        }
      ],
      "name": "layBetsAvailable",
      "outputs": [
        {
          "internalType": "uint256",
          "name": "",
          "type": "uint256"
        }
      ],
      "stateMutability": "view",
      "type": "function"
    },
    {
      "inputs": [
        {
          "internalType": "enum TheGame.Selection",
          "name": "",
          "type": "uint8"
        },
        {
          "internalType": "uint256",
          "name": "",
          "type": "uint256"
        },
        {
          "internalType": "uint256",
          "name": "",
          "type": "uint256"
        },
        {
          "internalType": "uint256",
          "name": "",
          "type": "uint256"
        }
      ],
      "name": "layBetsId",
      "outputs": [
        {
          "internalType": "uint256",
          "name": "",
          "type": "uint256"
        }
      ],
      "stateMutability": "view",
      "type": "function"
    },
    {
      "inputs": [],
      "name": "owner",
      "outputs": [
        {
          "internalType": "address",
          "name": "",
          "type": "address"
        }
      ],
      "stateMutability": "view",
      "type": "function"
    },
    {
      "inputs": [
        {
          "internalType": "uint256",
          "name": "",
          "type": "uint256"
        }
      ],
      "name": "players",
      "outputs": [
        {
          "internalType": "address",
          "name": "",
          "type": "address"
        }
      ],
      "stateMutability": "view",
      "type": "function"
    },
    {
      "inputs": [],
      "name": "renounceOwnership",
      "outputs": [],
      "stateMutability": "nonpayable",
      "type": "function"
    },
    {
      "inputs": [
        {
          "internalType": "address",
          "name": "newOwner",
          "type": "address"
        }
      ],
      "name": "transferOwnership",
      "outputs": [],
      "stateMutability": "nonpayable",
      "type": "function"
    },
    {
      "stateMutability": "payable",
      "type": "receive"
    },
    {
      "inputs": [
        {
          "internalType": "enum TheGame.Selection",
          "name": "winner",
          "type": "uint8"
        }
      ],
      "name": "changeGameStatus",
      "outputs": [],
      "stateMutability": "nonpayable",
      "type": "function"
    },
    {
      "inputs": [],
      "name": "getTeams",
      "outputs": [
        {
          "internalType": "string",
          "name": "",
          "type": "string"
        }
      ],
      "stateMutability": "view",
      "type": "function"
    },
    {
      "inputs": [
        {
          "internalType": "uint256",
          "name": "amount",
          "type": "uint256"
        }
      ],
      "name": "deposit",
      "outputs": [],
      "stateMutability": "payable",
      "type": "function"
    },
    {
      "inputs": [
        {
          "internalType": "uint256",
          "name": "amount",
          "type": "uint256"
        }
      ],
      "name": "withdraw",
      "outputs": [],
      "stateMutability": "nonpayable",
      "type": "function"
    },
    {
      "inputs": [],
      "name": "withdrawAll",
      "outputs": [],
      "stateMutability": "nonpayable",
      "type": "function"
    },
    {
      "inputs": [
        {
          "internalType": "address",
          "name": "_player",
          "type": "address"
        }
      ],
      "name": "getBalance",
      "outputs": [
        {
          "internalType": "uint256",
          "name": "",
          "type": "uint256"
        }
      ],
      "stateMutability": "view",
      "type": "function"
    },
    {
      "inputs": [
        {
          "internalType": "enum TheGame.BetType",
          "name": "_betType",
          "type": "uint8"
        },
        {
          "internalType": "enum TheGame.Selection",
          "name": "_selection",
          "type": "uint8"
        },
        {
          "internalType": "enum TheGame.Stake",
          "name": "_stake",
          "type": "uint8"
        },
        {
          "internalType": "uint256",
          "name": "_odds",
          "type": "uint256"
        }
      ],
      "name": "placeBet",
      "outputs": [],
      "stateMutability": "payable",
      "type": "function"
    },
    {
      "inputs": [
        {
          "internalType": "enum TheGame.Selection",
          "name": "_selection",
          "type": "uint8"
        },
        {
          "internalType": "uint256",
          "name": "_odds",
          "type": "uint256"
        },
        {
          "internalType": "enum TheGame.Stake",
          "name": "_stake",
          "type": "uint8"
        }
      ],
      "name": "getBackBetsAvailable",
      "outputs": [
        {
          "internalType": "uint256",
          "name": "",
          "type": "uint256"
        }
      ],
      "stateMutability": "view",
      "type": "function"
    },
    {
      "inputs": [
        {
          "internalType": "enum TheGame.Selection",
          "name": "_selection",
          "type": "uint8"
        },
        {
          "internalType": "uint256",
          "name": "_odds",
          "type": "uint256"
        },
        {
          "internalType": "enum TheGame.Stake",
          "name": "_stake",
          "type": "uint8"
        }
      ],
      "name": "getLayBetsAvailable",
      "outputs": [
        {
          "internalType": "uint256",
          "name": "",
          "type": "uint256"
        }
      ],
      "stateMutability": "view",
      "type": "function"
    },
    {
      "inputs": [
        {
          "internalType": "address",
          "name": "_player",
          "type": "address"
        }
      ],
      "name": "getPlayerNumberOfBets",
      "outputs": [
        {
          "internalType": "uint256",
          "name": "",
          "type": "uint256"
        }
      ],
      "stateMutability": "view",
      "type": "function"
    },
    {
      "inputs": [
        {
          "internalType": "address",
          "name": "_player",
          "type": "address"
        },
        {
          "internalType": "uint256",
          "name": "_betNumber",
          "type": "uint256"
        }
      ],
      "name": "getPlayerBet",
      "outputs": [
        {
          "components": [
            {
              "internalType": "address",
              "name": "player",
              "type": "address"
            },
            {
              "internalType": "enum TheGame.BetType",
              "name": "betType",
              "type": "uint8"
            },
            {
              "internalType": "enum TheGame.Selection",
              "name": "selection",
              "type": "uint8"
            },
            {
              "internalType": "enum TheGame.Stake",
              "name": "stake",
              "type": "uint8"
            },
            {
              "internalType": "uint256",
              "name": "odds",
              "type": "uint256"
            },
            {
              "internalType": "enum TheGame.BetStatus",
              "name": "status",
              "type": "uint8"
            },
            {
              "internalType": "uint256",
              "name": "betId",
              "type": "uint256"
            }
          ],
          "internalType": "struct TheGame.Bet",
          "name": "",
          "type": "tuple"
        }
      ],
      "stateMutability": "view",
      "type": "function"
    },
    {
      "inputs": [
        {
          "internalType": "uint256",
          "name": "_betId",
          "type": "uint256"
        }
      ],
      "name": "getBetStatus",
      "outputs": [
        {
          "internalType": "enum TheGame.BetStatus",
          "name": "",
          "type": "uint8"
        }
      ],
      "stateMutability": "view",
      "type": "function"
    },
    {
      "inputs": [
        {
          "internalType": "address",
          "name": "_player",
          "type": "address"
        },
        {
          "internalType": "enum TheGame.Selection",
          "name": "_selection",
          "type": "uint8"
        }
      ],
      "name": "getPayout",
      "outputs": [
        {
          "internalType": "uint256",
          "name": "",
          "type": "uint256"
        }
      ],
      "stateMutability": "view",
      "type": "function"
    }
  ],
  "bytecode": "0x60806040526000600860006101000a81548160ff0219169083151502179055503480156200002c57600080fd5b5060405162005d2538038062005d258339818101604052810190620000529190620004b5565b62000072620000666200019c60201b60201c565b620001a460201b60201c565b33600160006101000a81548173ffffffffffffffffffffffffffffffffffffffff021916908373ffffffffffffffffffffffffffffffffffffffff160217905550600160009054906101000a900473ffffffffffffffffffffffffffffffffffffffff16600260000160006101000a81548173ffffffffffffffffffffffffffffffffffffffff021916908373ffffffffffffffffffffffffffffffffffffffff16021790555080600260010190805190602001906200013492919062000268565b5060006002800160006101000a81548160ff0219169083600181111562000160576200015f62000506565b5b021790555060006002800160016101000a81548160ff0219169083600381111562000190576200018f62000506565b5b0217905550506200059a565b600033905090565b60008060009054906101000a900473ffffffffffffffffffffffffffffffffffffffff169050816000806101000a81548173ffffffffffffffffffffffffffffffffffffffff021916908373ffffffffffffffffffffffffffffffffffffffff1602179055508173ffffffffffffffffffffffffffffffffffffffff168173ffffffffffffffffffffffffffffffffffffffff167f8be0079c531659141344cd1fd0a4f28419497f9722a3daafe3b4186f6b6457e060405160405180910390a35050565b828054620002769062000564565b90600052602060002090601f0160209004810192826200029a5760008555620002e6565b82601f10620002b557805160ff1916838001178555620002e6565b82800160010185558215620002e6579182015b82811115620002e5578251825591602001919060010190620002c8565b5b509050620002f59190620002f9565b5090565b5b8082111562000314576000816000905550600101620002fa565b5090565b6000604051905090565b600080fd5b600080fd5b600080fd5b600080fd5b6000601f19601f8301169050919050565b7f4e487b7100000000000000000000000000000000000000000000000000000000600052604160045260246000fd5b620003818262000336565b810181811067ffffffffffffffff82111715620003a357620003a262000347565b5b80604052505050565b6000620003b862000318565b9050620003c6828262000376565b919050565b600067ffffffffffffffff821115620003e957620003e862000347565b5b620003f48262000336565b9050602081019050919050565b60005b838110156200042157808201518184015260208101905062000404565b8381111562000431576000848401525b50505050565b60006200044e6200044884620003cb565b620003ac565b9050828152602081018484840111156200046d576200046c62000331565b5b6200047a84828562000401565b509392505050565b600082601f8301126200049a57620004996200032c565b5b8151620004ac84826020860162000437565b91505092915050565b600060208284031215620004ce57620004cd62000322565b5b600082015167ffffffffffffffff811115620004ef57620004ee62000327565b5b620004fd8482850162000482565b91505092915050565b7f4e487b7100000000000000000000000000000000000000000000000000000000600052602160045260246000fd5b7f4e487b7100000000000000000000000000000000000000000000000000000000600052602260045260246000fd5b600060028204905060018216806200057d57607f821691505b6020821081141562000594576200059362000535565b5b50919050565b61577b80620005aa6000396000f3fe6080604052600436106101a05760003560e01c80638da5cb5b116100ec578063e0ced0e11161008a578063f71d96cb11610064578063f71d96cb1461068d578063f851a440146106ca578063f8b2cb4f146106f5578063fad9169b14610732576101e0565b8063e0ced0e1146105f6578063f2fde38b14610639578063f4ec521e14610662576101e0565b8063c3fe3e28116100c6578063c3fe3e2814610523578063c46d616314610551578063cdc941691461058e578063cf094497146105cb576101e0565b80638da5cb5b1461049f578063a1a27b26146104ca578063b6b55f2514610507576101e0565b8063715018a6116101595780638429d79e116101335780638429d79e14610406578063853828b6146104225780638c4200aa146104395780638d8cccf514610462576101e0565b8063715018a6146103755780637b45a2741461038c5780637d85e4f4146103c9576101e0565b80631b5e3e701461021b5780632e1a7d4d146102585780634cdd4af0146102815780634f9f4756146102be578063515d2b59146102fb57806361f14f1114610338576101e0565b366101e0577f7e71433ddf847725166244795048ecf3e3f9f35628254ecbf73605666423349333346040516101d69291906145c2565b60405180910390a1005b7f7e71433ddf847725166244795048ecf3e3f9f35628254ecbf73605666423349333346040516102119291906145c2565b60405180910390a1005b34801561022757600080fd5b50610242600480360381019061023d9190614641565b61076f565b60405161024f9190614694565b60405180910390f35b34801561026457600080fd5b5061027f600480360381019061027a91906146af565b6107a1565b005b34801561028d57600080fd5b506102a860048036038101906102a39190614641565b6108fc565b6040516102b59190614694565b60405180910390f35b3480156102ca57600080fd5b506102e560048036038101906102e09190614701565b61092e565b6040516102f29190614694565b60405180910390f35b34801561030757600080fd5b50610322600480360381019061031d9190614641565b610a3e565b60405161032f9190614694565b60405180910390f35b34801561034457600080fd5b5061035f600480360381019061035a91906146af565b610a70565b60405161036c91906147cb565b60405180910390f35b34801561038157600080fd5b5061038a610b0e565b005b34801561039857600080fd5b506103b360048036038101906103ae91906147e6565b610b96565b6040516103c09190614694565b60405180910390f35b3480156103d557600080fd5b506103f060048036038101906103eb9190614879565b610be1565b6040516103fd9190614a4c565b60405180910390f35b610420600480360381019061041b9190614a8c565b610e66565b005b34801561042e57600080fd5b506104376114c2565b005b34801561044557600080fd5b50610460600480360381019061045b9190614af3565b611650565b005b34801561046e57600080fd5b50610489600480360381019061048491906147e6565b611b40565b6040516104969190614694565b60405180910390f35b3480156104ab57600080fd5b506104b4611b8b565b6040516104c19190614b20565b60405180910390f35b3480156104d657600080fd5b506104f160048036038101906104ec9190614b3b565b611bb4565b6040516104fe9190614694565b60405180910390f35b610521600480360381019061051c91906146af565b611c38565b005b34801561052f57600080fd5b50610538611d0c565b6040516105489493929190614c6b565b60405180910390f35b34801561055d57600080fd5b5061057860048036038101906105739190614701565b611dec565b6040516105859190614694565b60405180910390f35b34801561059a57600080fd5b506105b560048036038101906105b09190614641565b611efc565b6040516105c29190614694565b60405180910390f35b3480156105d757600080fd5b506105e0611f2e565b6040516105ed9190614694565b60405180910390f35b34801561060257600080fd5b5061061d600480360381019061061891906146af565b611f34565b6040516106309796959493929190614cd5565b60405180910390f35b34801561064557600080fd5b50610660600480360381019061065b9190614d44565b611fda565b005b34801561066e57600080fd5b506106776120d2565b6040516106849190614d71565b60405180910390f35b34801561069957600080fd5b506106b460048036038101906106af91906146af565b612167565b6040516106c19190614b20565b60405180910390f35b3480156106d657600080fd5b506106df6121a6565b6040516106ec9190614b20565b60405180910390f35b34801561070157600080fd5b5061071c60048036038101906107179190614d44565b6121cc565b6040516107299190614694565b60405180910390f35b34801561073e57600080fd5b5061075960048036038101906107549190614d44565b612215565b6040516107669190614694565b60405180910390f35b600b60205282600052604060002060205281600052604060002060205280600052604060002060009250925050505481565b80601260003373ffffffffffffffffffffffffffffffffffffffff1673ffffffffffffffffffffffffffffffffffffffff168152602001908152602001600020541015610823576040517f08c379a000000000000000000000000000000000000000000000000000000000815260040161081a90614ddf565b60405180910390fd5b80601260003373ffffffffffffffffffffffffffffffffffffffff1673ffffffffffffffffffffffffffffffffffffffff16815260200190815260200160002060008282546108729190614e2e565b925050819055503373ffffffffffffffffffffffffffffffffffffffff166108fc829081150290604051600060405180830381858888f193505050501580156108bf573d6000803e3d6000fd5b507fcb15aee0e66e2dd6413ec4a90b1cda19a3b024148655e9017356e0a82d7e855b33826040516108f19291906145c2565b60405180910390a150565b600f60205282600052604060002060205281600052604060002060205280600052604060002060009250925050505481565b6000806000600381111561094557610944614754565b5b83600381111561095857610957614754565b5b146109cc576001600381111561097157610970614754565b5b83600381111561098457610983614754565b5b146109c4576002600381111561099d5761099c614754565b5b8360038111156109b0576109af614754565b5b146109bc5760046109bf565b60025b6109c7565b60015b6109cf565b60005b60ff1690506000600b60008760038111156109ed576109ec614754565b5b60038111156109ff576109fe614754565b5b81526020019081526020016000206000868152602001908152602001600020600083815260200190815260200160002054905080925050509392505050565b600a60205282600052604060002060205281600052604060002060205280600052604060002060009250925050505481565b600081600081118015610a8857506006805490508111155b610ac7576040517f08c379a0000000000000000000000000000000000000000000000000000000008152600401610abe90614eae565b60405180910390fd5b6006600184610ad69190614e2e565b81548110610ae757610ae6614ece565b5b906000526020600020906004020160020160009054906101000a900460ff16915050919050565b610b1661225e565b73ffffffffffffffffffffffffffffffffffffffff16610b34611b8b565b73ffffffffffffffffffffffffffffffffffffffff1614610b8a576040517f08c379a0000000000000000000000000000000000000000000000000000000008152600401610b8190614f49565b60405180910390fd5b610b946000612266565b565b600c6020528360005260406000206020528260005260406000206020528160005260406000208181548110610bca57600080fd5b906000526020600020016000935093505050505481565b610be96144cd565b818381601160008373ffffffffffffffffffffffffffffffffffffffff1673ffffffffffffffffffffffffffffffffffffffff1681526020019081526020016000205411610c6c576040517f08c379a0000000000000000000000000000000000000000000000000000000008152600401610c6390614fb5565b60405180910390fd5b60006001600960008873ffffffffffffffffffffffffffffffffffffffff1673ffffffffffffffffffffffffffffffffffffffff1681526020019081526020016000208681548110610cc157610cc0614ece565b5b9060005260206000200154610cd69190614e2e565b905060068181548110610cec57610ceb614ece565b5b90600052602060002090600402016040518060e00160405290816000820160009054906101000a900473ffffffffffffffffffffffffffffffffffffffff1673ffffffffffffffffffffffffffffffffffffffff1673ffffffffffffffffffffffffffffffffffffffff1681526020016000820160149054906101000a900460ff166001811115610d8057610d7f614754565b5b6001811115610d9257610d91614754565b5b81526020016000820160159054906101000a900460ff166003811115610dbb57610dba614754565b5b6003811115610dcd57610dcc614754565b5b81526020016000820160169054906101000a900460ff166003811115610df657610df5614754565b5b6003811115610e0857610e07614754565b5b8152602001600182015481526020016002820160009054906101000a900460ff166004811115610e3b57610e3a614754565b5b6004811115610e4d57610e4c614754565b5b8152602001600382015481525050935050505092915050565b833383836000806003811115610e7f57610e7e614754565b5b836003811115610e9257610e91614754565b5b14610f075760016003811115610eab57610eaa614754565b5b836003811115610ebe57610ebd614754565b5b14610eff5760026003811115610ed757610ed6614754565b5b836003811115610eea57610ee9614754565b5b14610ef7576103e8610efa565b60645b610f02565b600a5b610f0a565b60015b61ffff16905060006001811115610f2457610f23614754565b5b856001811115610f3757610f36614754565b5b1415610fd65766038d7ea4c6800081610f509190614fd5565b601260008673ffffffffffffffffffffffffffffffffffffffff1673ffffffffffffffffffffffffffffffffffffffff168152602001908152602001600020541015610fd1576040517f08c379a0000000000000000000000000000000000000000000000000000000008152600401610fc89061507b565b60405180910390fd5b6110b4565b600180811115610fe957610fe8614754565b5b856001811115610ffc57610ffb614754565b5b14156110b35760006509184e72a0006064846110189190614e2e565b6110229190614fd5565b905081816110309190614fd5565b601260008773ffffffffffffffffffffffffffffffffffffffff1673ffffffffffffffffffffffffffffffffffffffff1681526020019081526020016000205410156110b1576040517f08c379a00000000000000000000000000000000000000000000000000000000081526004016110a89061507b565b60405180910390fd5b505b5b87600060038111156110c9576110c8614754565b5b8160038111156110dc576110db614754565b5b141561111d576040517f08c379a0000000000000000000000000000000000000000000000000000000008152600401611114906150e7565b60405180910390fd5b6000600181111561113157611130614754565b5b6002800160009054906101000a900460ff16600181111561115557611154614754565b5b14611195576040517f08c379a000000000000000000000000000000000000000000000000000000000815260040161118c90615153565b60405180910390fd5b86606481116111d9576040517f08c379a00000000000000000000000000000000000000000000000000000000081526004016111d0906151bf565b60405180910390fd5b600560008154809291906111ec906151df565b91905055506000601160003373ffffffffffffffffffffffffffffffffffffffff1673ffffffffffffffffffffffffffffffffffffffff16815260200190815260200160002054141561129d576007339080600181540180825580915050600190039060005260206000200160009091909190916101000a81548173ffffffffffffffffffffffffffffffffffffffff021916908373ffffffffffffffffffffffffffffffffffffffff1602179055505b6112aa338c8c8c8c61232a565b60008060038111156112bf576112be614754565b5b8a60038111156112d2576112d1614754565b5b1461134757600160038111156112eb576112ea614754565b5b8a60038111156112fe576112fd614754565b5b1461133f576002600381111561131757611316614754565b5b8a600381111561132a57611329614754565b5b14611337576103e861133a565b60645b611342565b600a5b61134a565b60015b61ffff1690506000600181111561136457611363614754565b5b8c600181111561137757611376614754565b5b14156113f65766038d7ea4c68000816113909190614fd5565b601260003373ffffffffffffffffffffffffffffffffffffffff1673ffffffffffffffffffffffffffffffffffffffff16815260200190815260200160002060008282546113de9190614e2e565b925050819055506113f1338c8c8c6125d0565b6114b4565b60018081111561140957611408614754565b5b8c600181111561141c5761141b614754565b5b14156114b35760006509184e72a00060648b6114389190614e2e565b836114439190614fd5565b61144d9190614fd5565b905080601260003373ffffffffffffffffffffffffffffffffffffffff1673ffffffffffffffffffffffffffffffffffffffff168152602001908152602001600020600082825461149e9190614e2e565b925050819055506114b1338d8d8d612bcd565b505b5b505050505050505050505050565b6000601260003373ffffffffffffffffffffffffffffffffffffffff1673ffffffffffffffffffffffffffffffffffffffff1681526020019081526020016000205411611544576040517f08c379a000000000000000000000000000000000000000000000000000000000815260040161153b90615274565b60405180910390fd5b6000601260003373ffffffffffffffffffffffffffffffffffffffff1673ffffffffffffffffffffffffffffffffffffffff1681526020019081526020016000205490506000601260003373ffffffffffffffffffffffffffffffffffffffff1673ffffffffffffffffffffffffffffffffffffffff168152602001908152602001600020819055503373ffffffffffffffffffffffffffffffffffffffff166108fc829081150290604051600060405180830381858888f19350505050158015611613573d6000803e3d6000fd5b507fcb15aee0e66e2dd6413ec4a90b1cda19a3b024148655e9017356e0a82d7e855b33826040516116459291906145c2565b60405180910390a150565b61165861225e565b73ffffffffffffffffffffffffffffffffffffffff16611676611b8b565b73ffffffffffffffffffffffffffffffffffffffff16146116cc576040517f08c379a00000000000000000000000000000000000000000000000000000000081526004016116c390614f49565b60405180910390fd5b600060018111156116e0576116df614754565b5b6002800160009054906101000a900460ff16600181111561170457611703614754565b5b14611744576040517f08c379a000000000000000000000000000000000000000000000000000000000815260040161173b90615153565b60405180910390fd5b60016002800160006101000a81548160ff0219169083600181111561176c5761176b614754565b5b0217905550806002800160016101000a81548160ff0219169083600381111561179857611797614754565b5b02179055506000600680549050905060005b81811015611afc57600060048111156117c6576117c5614754565b5b600682815481106117da576117d9614ece565b5b906000526020600020906004020160020160009054906101000a900460ff16600481111561180b5761180a614754565b5b14156118645760026006828154811061182757611826614ece565b5b906000526020600020906004020160020160006101000a81548160ff0219169083600481111561185a57611859614754565b5b0217905550611ae9565b6001600481111561187857611877614754565b5b6006828154811061188c5761188b614ece565b5b906000526020600020906004020160020160009054906101000a900460ff1660048111156118bd576118bc614754565b5b1415611ae8578260038111156118d6576118d5614754565b5b600682815481106118ea576118e9614ece565b5b906000526020600020906004020160000160159054906101000a900460ff16600381111561191b5761191a614754565b5b14801561197e57506000600181111561193757611936614754565b5b6006828154811061194b5761194a614ece565b5b906000526020600020906004020160000160149054906101000a900460ff16600181111561197c5761197b614754565b5b145b80611a40575082600381111561199757611996614754565b5b600682815481106119ab576119aa614ece565b5b906000526020600020906004020160000160159054906101000a900460ff1660038111156119dc576119db614754565b5b14158015611a3f57506001808111156119f8576119f7614754565b5b60068281548110611a0c57611a0b614ece565b5b906000526020600020906004020160000160149054906101000a900460ff166001811115611a3d57611a3c614754565b5b145b5b15611a9857600360068281548110611a5b57611a5a614ece565b5b906000526020600020906004020160020160006101000a81548160ff02191690836004811115611a8e57611a8d614754565b5b0217905550611ae7565b600460068281548110611aae57611aad614ece565b5b906000526020600020906004020160020160006101000a81548160ff02191690836004811115611ae157611ae0614754565b5b02179055505b5b5b8080611af4906151df565b9150506117aa565b507f644bb802c5494cabb5b122d2a385455270a23cd15163ac9d122727afa129408282604051611b2c9190615294565b60405180910390a1611b3c6131ca565b5050565b600d6020528360005260406000206020528260005260406000206020528160005260406000208181548110611b7457600080fd5b906000526020600020016000935093505050505481565b60008060009054906101000a900473ffffffffffffffffffffffffffffffffffffffff16905090565b600080601060008573ffffffffffffffffffffffffffffffffffffffff1673ffffffffffffffffffffffffffffffffffffffff1681526020019081526020016000206000846003811115611c0b57611c0a614754565b5b6003811115611c1d57611c1c614754565b5b81526020019081526020016000205490508091505092915050565b803414611c7a576040517f08c379a0000000000000000000000000000000000000000000000000000000008152600401611c71906152fb565b60405180910390fd5b34601260003373ffffffffffffffffffffffffffffffffffffffff1673ffffffffffffffffffffffffffffffffffffffff1681526020019081526020016000206000828254611cc9919061531b565b925050819055507f58be02934e87dcdb08adf93a75fc2a42ebc8085dd7a32db852a7e1c21446ba1c3334604051611d019291906145c2565b60405180910390a150565b60028060000160009054906101000a900473ffffffffffffffffffffffffffffffffffffffff1690806001018054611d43906153a0565b80601f0160208091040260200160405190810160405280929190818152602001828054611d6f906153a0565b8015611dbc5780601f10611d9157610100808354040283529160200191611dbc565b820191906000526020600020905b815481529060010190602001808311611d9f57829003601f168201915b5050505050908060020160009054906101000a900460ff16908060020160019054906101000a900460ff16905084565b60008060006003811115611e0357611e02614754565b5b836003811115611e1657611e15614754565b5b14611e8a5760016003811115611e2f57611e2e614754565b5b836003811115611e4257611e41614754565b5b14611e825760026003811115611e5b57611e5a614754565b5b836003811115611e6e57611e6d614754565b5b14611e7a576004611e7d565b60025b611e85565b60015b611e8d565b60005b60ff1690506000600a6000876003811115611eab57611eaa614754565b5b6003811115611ebd57611ebc614754565b5b81526020019081526020016000206000868152602001908152602001600020600083815260200190815260200160002054905080925050509392505050565b600e60205282600052604060002060205281600052604060002060205280600052604060002060009250925050505481565b60055481565b60068181548110611f4457600080fd5b90600052602060002090600402016000915090508060000160009054906101000a900473ffffffffffffffffffffffffffffffffffffffff16908060000160149054906101000a900460ff16908060000160159054906101000a900460ff16908060000160169054906101000a900460ff16908060010154908060020160009054906101000a900460ff16908060030154905087565b611fe261225e565b73ffffffffffffffffffffffffffffffffffffffff16612000611b8b565b73ffffffffffffffffffffffffffffffffffffffff1614612056576040517f08c379a000000000000000000000000000000000000000000000000000000000815260040161204d90614f49565b60405180910390fd5b600073ffffffffffffffffffffffffffffffffffffffff168173ffffffffffffffffffffffffffffffffffffffff1614156120c6576040517f08c379a00000000000000000000000000000000000000000000000000000000081526004016120bd90615444565b60405180910390fd5b6120cf81612266565b50565b6060600260010180546120e4906153a0565b80601f0160208091040260200160405190810160405280929190818152602001828054612110906153a0565b801561215d5780601f106121325761010080835404028352916020019161215d565b820191906000526020600020905b81548152906001019060200180831161214057829003601f168201915b5050505050905090565b6007818154811061217757600080fd5b906000526020600020016000915054906101000a900473ffffffffffffffffffffffffffffffffffffffff1681565b600160009054906101000a900473ffffffffffffffffffffffffffffffffffffffff1681565b6000601260008373ffffffffffffffffffffffffffffffffffffffff1673ffffffffffffffffffffffffffffffffffffffff168152602001908152602001600020549050919050565b6000601160008373ffffffffffffffffffffffffffffffffffffffff1673ffffffffffffffffffffffffffffffffffffffff168152602001908152602001600020549050919050565b600033905090565b60008060009054906101000a900473ffffffffffffffffffffffffffffffffffffffff169050816000806101000a81548173ffffffffffffffffffffffffffffffffffffffff021916908373ffffffffffffffffffffffffffffffffffffffff1602179055508173ffffffffffffffffffffffffffffffffffffffff168173ffffffffffffffffffffffffffffffffffffffff167f8be0079c531659141344cd1fd0a4f28419497f9722a3daafe3b4186f6b6457e060405160405180910390a35050565b60006040518060e001604052808773ffffffffffffffffffffffffffffffffffffffff16815260200186600181111561236657612365614754565b5b815260200185600381111561237e5761237d614754565b5b815260200184600381111561239657612395614754565b5b8152602001838152602001600060048111156123b5576123b4614754565b5b81526020016005548152509050600681908060018154018082558091505060019003906000526020600020906004020160009091909190915060008201518160000160006101000a81548173ffffffffffffffffffffffffffffffffffffffff021916908373ffffffffffffffffffffffffffffffffffffffff16021790555060208201518160000160146101000a81548160ff021916908360018111156124605761245f614754565b5b021790555060408201518160000160156101000a81548160ff021916908360038111156124905761248f614754565b5b021790555060608201518160000160166101000a81548160ff021916908360038111156124c0576124bf614754565b5b02179055506080820151816001015560a08201518160020160006101000a81548160ff021916908360048111156124fa576124f9614754565b5b021790555060c082015181600301555050600960003373ffffffffffffffffffffffffffffffffffffffff1673ffffffffffffffffffffffffffffffffffffffff1681526020019081526020016000206005549080600181540180825580915050600190039060005260206000200160009091909190915055601160003373ffffffffffffffffffffffffffffffffffffffff1673ffffffffffffffffffffffffffffffffffffffff16815260200190815260200160002060008154809291906125c3906151df565b9190505550505050505050565b60008060038111156125e5576125e4614754565b5b8360038111156125f8576125f7614754565b5b1461266c576001600381111561261157612610614754565b5b83600381111561262457612623614754565b5b14612664576002600381111561263d5761263c614754565b5b8360038111156126505761264f614754565b5b1461265c57600361265f565b60025b612667565b60015b61266f565b60005b60ff169050600c600085600381111561268b5761268a614754565b5b600381111561269d5761269c614754565b5b81526020019081526020016000206000838152602001908152602001600020600082815260200190815260200160002060055490806001815401808255809150506001900390600052602060002001600090919091909150556000600b600086600381111561270f5761270e614754565b5b600381111561272157612720614754565b5b815260200190815260200160002060008481526020019081526020016000206000838152602001908152602001600020541115612aa6576000600f600086600381111561277157612770614754565b5b600381111561278357612782614754565b5b8152602001908152602001600020600084815260200190815260200160002060008381526020019081526020016000205490506000600d60008760038111156127cf576127ce614754565b5b60038111156127e1576127e0614754565b5b815260200190815260200160002060008581526020019081526020016000206000848152602001908152602001600020828154811061282357612822614ece565b5b906000526020600020015490506001600660016005546128439190614e2e565b8154811061285457612853614ece565b5b906000526020600020906004020160020160006101000a81548160ff0219169083600481111561288757612886614754565b5b02179055506001600660018361289d9190614e2e565b815481106128ae576128ad614ece565b5b906000526020600020906004020160020160006101000a81548160ff021916908360048111156128e1576128e0614754565b5b0217905550600f60008760038111156128fd576128fc614754565b5b600381111561290f5761290e614754565b5b8152602001908152602001600020600085815260200190815260200160002060008481526020019081526020016000206000815480929190612950906151df565b91905055506001600b600088600381111561296e5761296d614754565b5b60038111156129805761297f614754565b5b81526020019081526020016000206000868152602001908152602001600020600085815260200190815260200160002060008282546129bf9190614e2e565b92505081905550600060066001836129d79190614e2e565b815481106129e8576129e7614ece565b5b906000526020600020906004020160000160009054906101000a900473ffffffffffffffffffffffffffffffffffffffff169050612a2a88868960008a61337f565b612a378886600089613992565b612a4588868960008a613eba565b612a5381868960018a613eba565b612a6181868960018a61337f565b7f6008440b4a7a29ba56996156316f54b68d206aec7ac2418732864f7c2245ada18882878a604051612a969493929190615464565b60405180910390a1505050612bc6565b6000600b6000866003811115612abf57612abe614754565b5b6003811115612ad157612ad0614754565b5b815260200190815260200160002060008481526020019081526020016000206000838152602001908152602001600020541415612bc5576001600a6000866003811115612b2157612b20614754565b5b6003811115612b3357612b32614754565b5b8152602001908152602001600020600084815260200190815260200160002060008381526020019081526020016000206000828254612b72919061531b565b92505081905550612b868583600086613992565b7f803916dc5649ac7050635003228d26949d720ab5586be36da6cbb9f58a47eee48583866000604051612bbc94939291906154a9565b60405180910390a15b5b5050505050565b6000806003811115612be257612be1614754565b5b836003811115612bf557612bf4614754565b5b14612c695760016003811115612c0e57612c0d614754565b5b836003811115612c2157612c20614754565b5b14612c615760026003811115612c3a57612c39614754565b5b836003811115612c4d57612c4c614754565b5b14612c59576003612c5c565b60025b612c64565b60015b612c6c565b60005b60ff169050600c6000856003811115612c8857612c87614754565b5b6003811115612c9a57612c99614754565b5b81526020019081526020016000206000838152602001908152602001600020600082815260200190815260200160002060055490806001815401808255809150506001900390600052602060002001600090919091909150556000600a6000866003811115612d0c57612d0b614754565b5b6003811115612d1e57612d1d614754565b5b8152602001908152602001600020600084815260200190815260200160002060008381526020019081526020016000205411156130a3576000600e6000866003811115612d6e57612d6d614754565b5b6003811115612d8057612d7f614754565b5b8152602001908152602001600020600084815260200190815260200160002060008381526020019081526020016000205490506000600c6000876003811115612dcc57612dcb614754565b5b6003811115612dde57612ddd614754565b5b8152602001908152602001600020600085815260200190815260200160002060008481526020019081526020016000208281548110612e2057612e1f614ece565b5b90600052602060002001549050600160066001600554612e409190614e2e565b81548110612e5157612e50614ece565b5b906000526020600020906004020160020160006101000a81548160ff02191690836004811115612e8457612e83614754565b5b021790555060016006600183612e9a9190614e2e565b81548110612eab57612eaa614ece565b5b906000526020600020906004020160020160006101000a81548160ff02191690836004811115612ede57612edd614754565b5b0217905550600e6000876003811115612efa57612ef9614754565b5b6003811115612f0c57612f0b614754565b5b8152602001908152602001600020600085815260200190815260200160002060008481526020019081526020016000206000815480929190612f4d906151df565b91905055506001600a6000886003811115612f6b57612f6a614754565b5b6003811115612f7d57612f7c614754565b5b8152602001908152602001600020600086815260200190815260200160002060008581526020019081526020016000206000828254612fbc9190614e2e565b9250508190555060006006600183612fd49190614e2e565b81548110612fe557612fe4614ece565b5b906000526020600020906004020160000160009054906101000a900473ffffffffffffffffffffffffffffffffffffffff16905061302788868960018a61337f565b6130348886600189613992565b61304288868960018a613eba565b61305081868960008a613eba565b61305e81868960008a61337f565b7f6008440b4a7a29ba56996156316f54b68d206aec7ac2418732864f7c2245ada18189878a6040516130939493929190615464565b60405180910390a15050506131c3565b6000600a60008660038111156130bc576130bb614754565b5b60038111156130ce576130cd614754565b5b8152602001908152602001600020600084815260200190815260200160002060008381526020019081526020016000205414156131c2576001600b600086600381111561311e5761311d614754565b5b60038111156131305761312f614754565b5b815260200190815260200160002060008481526020019081526020016000206000838152602001908152602001600020600082825461316f919061531b565b925050819055506131838583600186613992565b7f803916dc5649ac7050635003228d26949d720ab5586be36da6cbb9f58a47eee485838660016040516131b994939291906154a9565b60405180910390a15b5b5050505050565b60005b6007805490508110156133445760106000600783815481106131f2576131f1614ece565b5b9060005260206000200160009054906101000a900473ffffffffffffffffffffffffffffffffffffffff1673ffffffffffffffffffffffffffffffffffffffff1673ffffffffffffffffffffffffffffffffffffffff16815260200190815260200160002060006002800160019054906101000a900460ff16600381111561327d5761327c614754565b5b600381111561328f5761328e614754565b5b81526020019081526020016000205460126000600784815481106132b6576132b5614ece565b5b9060005260206000200160009054906101000a900473ffffffffffffffffffffffffffffffffffffffff1673ffffffffffffffffffffffffffffffffffffffff1673ffffffffffffffffffffffffffffffffffffffff168152602001908152602001600020600082825461332a919061531b565b92505081905550808061333c906151df565b9150506131cd565b507f25a6a72ccac90b82b76f8b7baf33e0552244fa5121b1d4b0b534b5c3eaebca91600260405161337591906156c3565b60405180910390a1565b600080600381111561339457613393614754565b5b8260038111156133a7576133a6614754565b5b1461341c57600160038111156133c0576133bf614754565b5b8260038111156133d3576133d2614754565b5b1461341457600260038111156133ec576133eb614754565b5b8260038111156133ff576133fe614754565b5b1461340c576103e861340f565b60645b613417565b600a5b61341f565b60015b61ffff1690506000600181111561343957613438614754565b5b83600181111561344c5761344b614754565b5b141561351757606466038d7ea4c680006064876134699190614e2e565b836134749190614fd5565b61347e9190614fd5565b6134889190615714565b601060008873ffffffffffffffffffffffffffffffffffffffff1673ffffffffffffffffffffffffffffffffffffffff16815260200190815260200160002060008660038111156134dc576134db614754565b5b60038111156134ee576134ed614754565b5b8152602001908152602001600020600082825461350b919061531b565b9250508190555061398a565b60018081111561352a57613529614754565b5b83600181111561353d5761353c614754565b5b1415613989576001600381111561355757613556614754565b5b84600381111561356a57613569614754565b5b14156136b05766038d7ea4c68000816135839190614fd5565b601060008873ffffffffffffffffffffffffffffffffffffffff1673ffffffffffffffffffffffffffffffffffffffff1681526020019081526020016000206000600260038111156135d8576135d7614754565b5b60038111156135ea576135e9614754565b5b81526020019081526020016000206000828254613607919061531b565b9250508190555066038d7ea4c68000816136219190614fd5565b601060008873ffffffffffffffffffffffffffffffffffffffff1673ffffffffffffffffffffffffffffffffffffffff168152602001908152602001600020600060038081111561367557613674614754565b5b600381111561368757613686614754565b5b815260200190815260200160002060008282546136a4919061531b565b92505081905550613988565b600260038111156136c4576136c3614754565b5b8460038111156136d7576136d6614754565b5b141561381d5766038d7ea4c68000816136f09190614fd5565b601060008873ffffffffffffffffffffffffffffffffffffffff1673ffffffffffffffffffffffffffffffffffffffff16815260200190815260200160002060006001600381111561374557613744614754565b5b600381111561375757613756614754565b5b81526020019081526020016000206000828254613774919061531b565b9250508190555066038d7ea4c680008161378e9190614fd5565b601060008873ffffffffffffffffffffffffffffffffffffffff1673ffffffffffffffffffffffffffffffffffffffff16815260200190815260200160002060006003808111156137e2576137e1614754565b5b60038111156137f4576137f3614754565b5b81526020019081526020016000206000828254613811919061531b565b92505081905550613987565b6003808111156138305761382f614754565b5b84600381111561384357613842614754565b5b14156139865766038d7ea4c680008161385c9190614fd5565b601060008873ffffffffffffffffffffffffffffffffffffffff1673ffffffffffffffffffffffffffffffffffffffff1681526020019081526020016000206000600160038111156138b1576138b0614754565b5b60038111156138c3576138c2614754565b5b815260200190815260200160002060008282546138e0919061531b565b9250508190555066038d7ea4c68000816138fa9190614fd5565b601060008873ffffffffffffffffffffffffffffffffffffffff1673ffffffffffffffffffffffffffffffffffffffff16815260200190815260200160002060006002600381111561394f5761394e614754565b5b600381111561396157613960614754565b5b8152602001908152602001600020600082825461397e919061531b565b925050819055505b5b5b5b5b505050505050565b60008060038111156139a7576139a6614754565b5b8260038111156139ba576139b9614754565b5b14613a2f57600160038111156139d3576139d2614754565b5b8260038111156139e6576139e5614754565b5b14613a2757600260038111156139ff576139fe614754565b5b826003811115613a1257613a11614754565b5b14613a1f576103e8613a22565b60645b613a2a565b600a5b613a32565b60015b61ffff16905060006001811115613a4c57613a4b614754565b5b836001811115613a5f57613a5e614754565b5b1415613c435766038d7ea4c6800081613a789190614fd5565b601060008773ffffffffffffffffffffffffffffffffffffffff1673ffffffffffffffffffffffffffffffffffffffff168152602001908152602001600020600060026003811115613acd57613acc614754565b5b6003811115613adf57613ade614754565b5b81526020019081526020016000206000828254613afc919061531b565b9250508190555066038d7ea4c6800081613b169190614fd5565b601060008773ffffffffffffffffffffffffffffffffffffffff1673ffffffffffffffffffffffffffffffffffffffff1681526020019081526020016000206000600380811115613b6a57613b69614754565b5b6003811115613b7c57613b7b614754565b5b81526020019081526020016000206000828254613b99919061531b565b9250508190555066038d7ea4c6800081613bb39190614fd5565b601060008773ffffffffffffffffffffffffffffffffffffffff1673ffffffffffffffffffffffffffffffffffffffff168152602001908152602001600020600060016003811115613c0857613c07614754565b5b6003811115613c1a57613c19614754565b5b81526020019081526020016000206000828254613c37919061531b565b92505081905550613eb3565b600180811115613c5657613c55614754565b5b836001811115613c6957613c68614754565b5b1415613eb257606466038d7ea4c68000606486613c869190614e2e565b83613c919190614fd5565b613c9b9190614fd5565b613ca59190615714565b601060008773ffffffffffffffffffffffffffffffffffffffff1673ffffffffffffffffffffffffffffffffffffffff1681526020019081526020016000206000600380811115613cf957613cf8614754565b5b6003811115613d0b57613d0a614754565b5b81526020019081526020016000206000828254613d28919061531b565b92505081905550606466038d7ea4c68000606486613d469190614e2e565b83613d519190614fd5565b613d5b9190614fd5565b613d659190615714565b601060008773ffffffffffffffffffffffffffffffffffffffff1673ffffffffffffffffffffffffffffffffffffffff168152602001908152602001600020600060016003811115613dba57613db9614754565b5b6003811115613dcc57613dcb614754565b5b81526020019081526020016000206000828254613de9919061531b565b92505081905550606466038d7ea4c68000606486613e079190614e2e565b83613e129190614fd5565b613e1c9190614fd5565b613e269190615714565b601060008773ffffffffffffffffffffffffffffffffffffffff1673ffffffffffffffffffffffffffffffffffffffff168152602001908152602001600020600060026003811115613e7b57613e7a614754565b5b6003811115613e8d57613e8c614754565b5b81526020019081526020016000206000828254613eaa919061531b565b925050819055505b5b5050505050565b6000806003811115613ecf57613ece614754565b5b826003811115613ee257613ee1614754565b5b14613f575760016003811115613efb57613efa614754565b5b826003811115613f0e57613f0d614754565b5b14613f4f5760026003811115613f2757613f26614754565b5b826003811115613f3a57613f39614754565b5b14613f47576103e8613f4a565b60645b613f52565b600a5b613f5a565b60015b61ffff16905060006001811115613f7457613f73614754565b5b836001811115613f8757613f86614754565b5b14156143d75760016003811115613fa157613fa0614754565b5b846003811115613fb457613fb3614754565b5b14156140fa5766038d7ea4c6800081613fcd9190614fd5565b601060008873ffffffffffffffffffffffffffffffffffffffff1673ffffffffffffffffffffffffffffffffffffffff16815260200190815260200160002060006002600381111561402257614021614754565b5b600381111561403457614033614754565b5b815260200190815260200160002060008282546140519190614e2e565b9250508190555066038d7ea4c680008161406b9190614fd5565b601060008873ffffffffffffffffffffffffffffffffffffffff1673ffffffffffffffffffffffffffffffffffffffff16815260200190815260200160002060006003808111156140bf576140be614754565b5b60038111156140d1576140d0614754565b5b815260200190815260200160002060008282546140ee9190614e2e565b925050819055506143d2565b6002600381111561410e5761410d614754565b5b84600381111561412157614120614754565b5b14156142675766038d7ea4c680008161413a9190614fd5565b601060008873ffffffffffffffffffffffffffffffffffffffff1673ffffffffffffffffffffffffffffffffffffffff16815260200190815260200160002060006001600381111561418f5761418e614754565b5b60038111156141a1576141a0614754565b5b815260200190815260200160002060008282546141be9190614e2e565b9250508190555066038d7ea4c68000816141d89190614fd5565b601060008873ffffffffffffffffffffffffffffffffffffffff1673ffffffffffffffffffffffffffffffffffffffff168152602001908152602001600020600060038081111561422c5761422b614754565b5b600381111561423e5761423d614754565b5b8152602001908152602001600020600082825461425b9190614e2e565b925050819055506143d1565b60038081111561427a57614279614754565b5b84600381111561428d5761428c614754565b5b14156143d05766038d7ea4c68000816142a69190614fd5565b601060008873ffffffffffffffffffffffffffffffffffffffff1673ffffffffffffffffffffffffffffffffffffffff1681526020019081526020016000206000600160038111156142fb576142fa614754565b5b600381111561430d5761430c614754565b5b8152602001908152602001600020600082825461432a9190614e2e565b9250508190555066038d7ea4c68000816143449190614fd5565b601060008873ffffffffffffffffffffffffffffffffffffffff1673ffffffffffffffffffffffffffffffffffffffff16815260200190815260200160002060006002600381111561439957614398614754565b5b60038111156143ab576143aa614754565b5b815260200190815260200160002060008282546143c89190614e2e565b925050819055505b5b5b6144c5565b6001808111156143ea576143e9614754565b5b8360018111156143fd576143fc614754565b5b14156144c457606466038d7ea4c6800060648761441a9190614e2e565b836144259190614fd5565b61442f9190614fd5565b6144399190615714565b601060008873ffffffffffffffffffffffffffffffffffffffff1673ffffffffffffffffffffffffffffffffffffffff168152602001908152602001600020600086600381111561448d5761448c614754565b5b600381111561449f5761449e614754565b5b815260200190815260200160002060008282546144bc9190614e2e565b925050819055505b5b505050505050565b6040518060e00160405280600073ffffffffffffffffffffffffffffffffffffffff1681526020016000600181111561450957614508614754565b5b81526020016000600381111561452257614521614754565b5b81526020016000600381111561453b5761453a614754565b5b8152602001600081526020016000600481111561455b5761455a614754565b5b8152602001600081525090565b600073ffffffffffffffffffffffffffffffffffffffff82169050919050565b600061459382614568565b9050919050565b6145a381614588565b82525050565b6000819050919050565b6145bc816145a9565b82525050565b60006040820190506145d7600083018561459a565b6145e460208301846145b3565b9392505050565b600080fd5b600481106145fd57600080fd5b50565b60008135905061460f816145f0565b92915050565b61461e816145a9565b811461462957600080fd5b50565b60008135905061463b81614615565b92915050565b60008060006060848603121561465a576146596145eb565b5b600061466886828701614600565b93505060206146798682870161462c565b925050604061468a8682870161462c565b9150509250925092565b60006020820190506146a960008301846145b3565b92915050565b6000602082840312156146c5576146c46145eb565b5b60006146d38482850161462c565b91505092915050565b600481106146e957600080fd5b50565b6000813590506146fb816146dc565b92915050565b60008060006060848603121561471a576147196145eb565b5b600061472886828701614600565b93505060206147398682870161462c565b925050604061474a868287016146ec565b9150509250925092565b7f4e487b7100000000000000000000000000000000000000000000000000000000600052602160045260246000fd5b6005811061479457614793614754565b5b50565b60008190506147a582614783565b919050565b60006147b582614797565b9050919050565b6147c5816147aa565b82525050565b60006020820190506147e060008301846147bc565b92915050565b60008060008060808587031215614800576147ff6145eb565b5b600061480e87828801614600565b945050602061481f8782880161462c565b93505060406148308782880161462c565b92505060606148418782880161462c565b91505092959194509250565b61485681614588565b811461486157600080fd5b50565b6000813590506148738161484d565b92915050565b600080604083850312156148905761488f6145eb565b5b600061489e85828601614864565b92505060206148af8582860161462c565b9150509250929050565b6148c281614588565b82525050565b600281106148d9576148d8614754565b5b50565b60008190506148ea826148c8565b919050565b60006148fa826148dc565b9050919050565b61490a816148ef565b82525050565b6004811061492157614920614754565b5b50565b600081905061493282614910565b919050565b600061494282614924565b9050919050565b61495281614937565b82525050565b6004811061496957614968614754565b5b50565b600081905061497a82614958565b919050565b600061498a8261496c565b9050919050565b61499a8161497f565b82525050565b6149a9816145a9565b82525050565b6149b8816147aa565b82525050565b60e0820160008201516149d460008501826148b9565b5060208201516149e76020850182614901565b5060408201516149fa6040850182614949565b506060820151614a0d6060850182614991565b506080820151614a2060808501826149a0565b5060a0820151614a3360a08501826149af565b5060c0820151614a4660c08501826149a0565b50505050565b600060e082019050614a6160008301846149be565b92915050565b60028110614a7457600080fd5b50565b600081359050614a8681614a67565b92915050565b60008060008060808587031215614aa657614aa56145eb565b5b6000614ab487828801614a77565b9450506020614ac587828801614600565b9350506040614ad6878288016146ec565b9250506060614ae78782880161462c565b91505092959194509250565b600060208284031215614b0957614b086145eb565b5b6000614b1784828501614600565b91505092915050565b6000602082019050614b35600083018461459a565b92915050565b60008060408385031215614b5257614b516145eb565b5b6000614b6085828601614864565b9250506020614b7185828601614600565b9150509250929050565b600081519050919050565b600082825260208201905092915050565b60005b83811015614bb5578082015181840152602081019050614b9a565b83811115614bc4576000848401525b50505050565b6000601f19601f8301169050919050565b6000614be682614b7b565b614bf08185614b86565b9350614c00818560208601614b97565b614c0981614bca565b840191505092915050565b60028110614c2557614c24614754565b5b50565b6000819050614c3682614c14565b919050565b6000614c4682614c28565b9050919050565b614c5681614c3b565b82525050565b614c6581614937565b82525050565b6000608082019050614c80600083018761459a565b8181036020830152614c928186614bdb565b9050614ca16040830185614c4d565b614cae6060830184614c5c565b95945050505050565b614cc0816148ef565b82525050565b614ccf8161497f565b82525050565b600060e082019050614cea600083018a61459a565b614cf76020830189614cb7565b614d046040830188614c5c565b614d116060830187614cc6565b614d1e60808301866145b3565b614d2b60a08301856147bc565b614d3860c08301846145b3565b98975050505050505050565b600060208284031215614d5a57614d596145eb565b5b6000614d6884828501614864565b91505092915050565b60006020820190508181036000830152614d8b8184614bdb565b905092915050565b7f6e6f7420656e6f7567682066756e647300000000000000000000000000000000600082015250565b6000614dc9601083614b86565b9150614dd482614d93565b602082019050919050565b60006020820190508181036000830152614df881614dbc565b9050919050565b7f4e487b7100000000000000000000000000000000000000000000000000000000600052601160045260246000fd5b6000614e39826145a9565b9150614e44836145a9565b925082821015614e5757614e56614dff565b5b828203905092915050565b7f756e76616c696420496400000000000000000000000000000000000000000000600082015250565b6000614e98600a83614b86565b9150614ea382614e62565b602082019050919050565b60006020820190508181036000830152614ec781614e8b565b9050919050565b7f4e487b7100000000000000000000000000000000000000000000000000000000600052603260045260246000fd5b7f4f776e61626c653a2063616c6c6572206973206e6f7420746865206f776e6572600082015250565b6000614f33602083614b86565b9150614f3e82614efd565b602082019050919050565b60006020820190508181036000830152614f6281614f26565b9050919050565b7f756e76616c696420426574204e756d6265720000000000000000000000000000600082015250565b6000614f9f601283614b86565b9150614faa82614f69565b602082019050919050565b60006020820190508181036000830152614fce81614f92565b9050919050565b6000614fe0826145a9565b9150614feb836145a9565b9250817fffffffffffffffffffffffffffffffffffffffffffffffffffffffffffffffff048311821515161561502457615023614dff565b5b828202905092915050565b7f4e6f7420656e6f7567682066756e647300000000000000000000000000000000600082015250565b6000615065601083614b86565b91506150708261502f565b602082019050919050565b6000602082019050818103600083015261509481615058565b9050919050565b7f6e6f7420612076616c6964206265740000000000000000000000000000000000600082015250565b60006150d1600f83614b86565b91506150dc8261509b565b602082019050919050565b60006020820190508181036000830152615100816150c4565b9050919050565b7f47616d65206973204f7665720000000000000000000000000000000000000000600082015250565b600061513d600c83614b86565b915061514882615107565b602082019050919050565b6000602082019050818103600083015261516c81615130565b9050919050565b7f756e76616c6964206f6464730000000000000000000000000000000000000000600082015250565b60006151a9600c83614b86565b91506151b482615173565b602082019050919050565b600060208201905081810360008301526151d88161519c565b9050919050565b60006151ea826145a9565b91507fffffffffffffffffffffffffffffffffffffffffffffffffffffffffffffffff82141561521d5761521c614dff565b5b600182019050919050565b7f6e6f2066756e6473000000000000000000000000000000000000000000000000600082015250565b600061525e600883614b86565b915061526982615228565b602082019050919050565b6000602082019050818103600083015261528d81615251565b9050919050565b60006020820190506152a96000830184614c5c565b92915050565b7f756e76616c696420616d6f756e74000000000000000000000000000000000000600082015250565b60006152e5600e83614b86565b91506152f0826152af565b602082019050919050565b60006020820190508181036000830152615314816152d8565b9050919050565b6000615326826145a9565b9150615331836145a9565b9250827fffffffffffffffffffffffffffffffffffffffffffffffffffffffffffffffff0382111561536657615365614dff565b5b828201905092915050565b7f4e487b7100000000000000000000000000000000000000000000000000000000600052602260045260246000fd5b600060028204905060018216806153b857607f821691505b602082108114156153cc576153cb615371565b5b50919050565b7f4f776e61626c653a206e6577206f776e657220697320746865207a65726f206160008201527f6464726573730000000000000000000000000000000000000000000000000000602082015250565b600061542e602683614b86565b9150615439826153d2565b604082019050919050565b6000602082019050818103600083015261545d81615421565b9050919050565b6000608082019050615479600083018761459a565b615486602083018661459a565b61549360408301856145b3565b6154a06060830184614c5c565b95945050505050565b60006080820190506154be600083018761459a565b6154cb60208301866145b3565b6154d86040830185614c5c565b6154e56060830184614cb7565b95945050505050565b60008160001c9050919050565b600073ffffffffffffffffffffffffffffffffffffffff82169050919050565b600061552e615529836154ee565b6154fb565b9050919050565b600082825260208201905092915050565b60008190508160005260206000209050919050565b60008154615568816153a0565b6155728186615535565b9450600182166000811461558d576001811461559f576155d2565b60ff19831686526020860193506155d2565b6155a885615546565b60005b838110156155ca578154818901526001820191506020810190506155ab565b808801955050505b50505092915050565b600060ff82169050919050565b60006155fb6155f6836154ee565b6155db565b9050919050565b61560b81614c3b565b82525050565b60008160081c9050919050565b600060ff82169050919050565b600061563e61563983615611565b61561e565b9050919050565b600060808301600080840154905061565c8161551b565b61566960008701826148b9565b50600184018583036020870152615680838261555b565b92505060028401549050615693816155e8565b6156a06040870182615602565b506156aa8161562b565b6156b76060870182614949565b50819250505092915050565b600060208201905081810360008301526156dd8184615645565b905092915050565b7f4e487b7100000000000000000000000000000000000000000000000000000000600052601260045260246000fd5b600061571f826145a9565b915061572a836145a9565b92508261573a576157396156e5565b5b82820490509291505056fea2646970667358221220fcd2d667507277e5e7dfe8d5a64388d1975e28aeba50761e95ecb79af99db51364736f6c63430008090033",
  "immutableReferences": {},
  "source": "// SPDX-License-Identifier: MIT\npragma solidity >=0.8.0 <0.9.0;\n\nimport \"@openzeppelin/contracts/access/Ownable.sol\";\n\n\n/// @title Betting contract for one game\n/// @author Baraa Elalami\n/// @dev Order matching algorithm is basic allowing users to bet only one of the 4 amounts : 0.001 ETH, 0.01 ETH, 0.1 ETH, 1 ETH\ncontract TheGame is Ownable {\n\n    /// @dev Admin who decide the outcome of the game\n    address  public admin;\n    Game public game;\n    /// @notice trcks the amount of bets\n    uint public betCount;\n    /// @notice array the hold all bets\n    Bet[] public allBets;\n    /// @notice track addresses of all players\n    address[] public players;\n    /// @notice track if the game is paid\n    bool paid = false;\n\n\n    /// @notice tracks the id of the players bets\n    mapping(address => uint[]) playerBets; \n    /// @notice  tracks amount of back bets available to match : Selection => Odds => => stake amount\n    mapping(Selection => mapping( uint => mapping(uint => uint))) public backBetsAvailable; \n    /// @notice  tracks amount of lay bets available to match : Selection => Odds => => stake amount\n    mapping(Selection => mapping( uint => mapping(uint => uint))) public layBetsAvailable;\n    /// @notice tracks the Bet id of the backBets : Selection => Odds =>  stake => uint [id] | uint backBetId = backBetsId[_selection][_odds][backId][map_stake]\n    mapping(Selection => mapping( uint => mapping(uint => uint []))) public backBetsId; \n    /// @notice tracks the Bet id of the layBets : Selection => Odds =>  stake => uint [id]  | uint layBetId = backBetsId[_selection][_odds][backId][map_stake]\n    mapping(Selection => mapping( uint => mapping(uint => uint []))) public layBetsId ; \n    /// @notice  track Id of first back bet available in the backBetsId[selection][odds][stake],  Selection => Odds=> stake  => Id   uint backId = firstIndexOfBackBet[_selection][_odds][map_stake];\n    mapping(Selection => mapping( uint => mapping(uint => uint))) public firstIndexOfBackBet;\n    /// @notice  track Id of first lay bet available in the layBetsId[selection][odds][stake],  Selection => Odds=> stake  => Id   uint layId = firstIndexOfBackBet[_selection][_odds][map_stake];\n    mapping(Selection => mapping( uint => mapping(uint => uint))) public firstIndexOfLayBet;\n    /// @notice tracks the payout of the player for each outcome\n    mapping(address => mapping(Selection => uint)) playerPayout; \n    /// @notice tracks the amount of bets the player placed\n    mapping(address => uint) playerNumberOfBets; \n    /// @notice tracks user balance\n    mapping(address => uint) balances; \n\n\n    enum BetType {Back, Lay}\n    enum Selection {Open, Home, Draw, Away}\n    enum GameStatus {Open, Over}\n    enum BetStatus {Unmatched, Matched, Closed, Win, Lose}\n    enum Stake{ OneFinney, TenFinney, HundredFinney, OneEther}\n   \n\n    event NewStatus();\n    event GameWinner(Selection selection);\n    event unmatchedBetCreated(address _player, uint256 _odds, Selection _selection, BetType _betType);\n    event BetMatched(address _backer, address _layer, uint odds, Selection _selection);\n    event PlayerDeposit(address player, uint amount);\n    event PlayerWithdrawal(address player, uint amount);\n    event Payout(Game _game);\n    event ValueReceived(address user, uint amount);\n\n\n    /// @dev Game struct\n    struct Game {\n        address  owner;\n        string teams;\n        GameStatus status;\n        Selection winner;\n\n    }\n\n     /// @dev Bet struct\n    struct Bet {\n        address  player;\n        BetType betType;\n        Selection selection;\n        Stake stake;\n        uint odds;\n        BetStatus status;\n        uint betId;\n\n       \n    }\n\n   \n    /// @dev Check if the selection of the bet is correct \n    modifier isValidBet(Selection selection) {\n        require(selection != Selection.Open, \"not a valid bet\");\n        _;\n    }\n    /// @dev check if the game is over\n    modifier isOver() {\n        require(game.status == GameStatus.Over ,\"game is not over\");\n        _;\n    }\n    /// @dev check if game is still open\n    modifier isOpen() {\n        require(game.status == GameStatus.Open, \"Game is Over\");\n        _;\n    }\n    /// @dev Check if bet is unmatched -- Delete it \n    modifier isUnmatched(Bet memory bet) {\n        require(bet.status == BetStatus.Unmatched, \"Cant add already matched bet \");\n        _;\n    }\n   /// @dev check of odds are valid : we take _odds >100 then real odds is _odds /100 e.g 350 correspond to 3.5 odds\n    modifier isValidOdds(uint _odds) {\n        require(_odds>100, \"unvalid odds\");\n        _;\n    }\n    /// @dev checks if BetId is valid\n    modifier isValidId(uint _betId) {\n        require(_betId>0 && _betId<=allBets.length, \"unvalid Id\");\n        _;\n    }\n    /// @dev checks if bet number is valid\n    modifier isValidBetNumber(uint _betNumber, address _player) {\n        require(playerNumberOfBets[_player]>_betNumber, \"unvalid Bet Number\");\n        _;\n    }\n    //// @dev checks if user has enough funds to place the bet \n    modifier hasEnoughFunds(BetType _betType, address _player, Stake _stake, uint _odds ) {\n        uint256 mul = _stake == Stake.OneFinney ? 1 : _stake == Stake.TenFinney ? 10 : _stake == Stake.HundredFinney ? 100 : 1000;\n        \n        if (_betType == BetType.Back){\n            \n             require(balances[_player] >= mul * 10**15, 'Not enough funds' ) ;\n        }\n        else if (_betType == BetType.Lay) {\n            \n            uint amount= ( _odds -100) * 10**13;\n\n            require(balances[_player] >= amount*mul, 'Not enough funds') ;\n\n        }\n        _;\n        \n    }\n    /// @dev  check if game is already paid   \n    modifier isNotPaid() {\n        require(!paid, 'game already paid');\n        _;\n    }\n\n  \n    /// @param teams string describing the Game/Bet e.g Real Madrid vs Inter Milan\n    constructor(string memory teams)  {\n        \n        admin = msg.sender;\n        game.owner = admin;\n        game.teams = teams;\n        game.status = GameStatus.Open;\n        game.winner = Selection.Open;\n\n    }\n\n    /// GAME SECTION FUNCTIONS\n      \n    /// @dev function that change game status\n    /// @param winner of the game ( 1=HOME, 2=DRAW, 3=AWAY)\n    function changeGameStatus( Selection winner) public onlyOwner isOpen()  {\n        game.status = GameStatus.Over;\n        game.winner = winner;\n        uint totalBets = allBets.length;\n        \n        for(uint i=0; i<totalBets; i++) {\n            if(allBets[i].status == BetStatus.Unmatched){\n                allBets[i].status = BetStatus.Closed;\n            } else if (allBets[i].status == BetStatus.Matched) {\n                if ((allBets[i].selection == winner && allBets[i].betType== BetType.Back) || (allBets[i].selection!= winner && allBets[i].betType== BetType.Lay)){\n                    allBets[i].status = BetStatus.Win;\n                } else {\n                     allBets[i].status = BetStatus.Lose;\n                }\n            }\n        \n        }\n        \n        \n        emit GameWinner( winner);\n        \n        adminPayout();\n        \n\n\n\n    }\n\n    /// @return string of the teams/object of the game\n    function getTeams() public view returns(string memory)  {\n        return game.teams;\n    }\n    \n\n    /// BANKING : DEPOSIT & WITHDRAWAL & BALANCE SECTION \n\n    /// @notice deposit function, adds amount to user balance\n    /// @param amount to deposit \n    function deposit(uint amount) public payable {\n        require(msg.value==amount, \"unvalid amount\");\n        balances[msg.sender] += msg.value;\n        emit PlayerDeposit(msg.sender, msg.value);\n        \n    }\n    \n    /// @notice withdraw function, substract amount from user balance and send the amount \n    /// @param amount to withdraw \n    function withdraw(uint amount) public {\n        require(balances[msg.sender] >= amount, \"not enough funds\");\n        balances[msg.sender] -= amount;\n        payable(msg.sender).transfer(amount);\n        emit PlayerWithdrawal(msg.sender, amount);\n        \n        \n    }\n    \n    /// @notice withdraw all function, send remaining balance back to user\n    function withdrawAll() public {\n        require(balances[msg.sender] > 0, \"no funds\");\n        uint amount = balances[msg.sender];\n        balances[msg.sender] =0;\n        payable(msg.sender).transfer(amount);\n        emit PlayerWithdrawal(msg.sender, amount);\n        \n        \n    }\n    \n    \n    /// @param _player address\n    /// @return user balance\n    function getBalance(address _player) public view returns(uint) {\n        return balances[_player];\n    }\n\n\n    /// BETTING SECTION : FUNCTION FOR PLACING BETS\n\n    /// @dev callable function that places the bets\n    /// @param _betType  Back or Lay (Back = 0, Lay = 1)\n    /// @param _selection Bet selection (1 = HOME, 2 = DRAW, 3 = AWAY)\n    /// @param _stake Amount to bet (0 = 0.001 ETH, 1 = 0.01 ETH, 2 = 0.1 ETH, 3 = 1 ETH)\n    /// @param _odds must be > 100 then real odds is _odds /100 e.g 350 correspond to 3.5 odds\n    function placeBet(BetType _betType, Selection _selection, Stake _stake, uint _odds )  external payable  hasEnoughFunds( _betType, msg.sender,  _stake,  _odds ) isValidBet(_selection) isOpen() isValidOdds(_odds)   {\n        \n        betCount++;\n        \n         if(playerNumberOfBets[msg.sender]==0) { \n            players.push(msg.sender);\n           \n        }\n        \n        \n        addBet(msg.sender, _betType, _selection, _stake, _odds);\n        \n        \n       \n        \n        uint mul = _stake == Stake.OneFinney ? 1 : _stake == Stake.TenFinney ? 10 : _stake == Stake.HundredFinney ? 100 : 1000;\n        \n        if(_betType == BetType.Back){\n            \n            balances[msg.sender] -= mul*10**15;\n            placeBackBet(msg.sender, _selection, _stake, _odds);\n            \n        } else if (_betType == BetType.Lay) {\n            uint amount = mul*(_odds-100)*10**13;\n            balances[msg.sender] -= amount;\n            placeLayBet(msg.sender, _selection, _stake, _odds);\n        }\n        \n        \n\n\n    }\n\n    /// @dev internal function used to place back bets by placeBet\n    /// @param player  Address placing the bet\n    /// @param _selection Bet selection (1 = HOME, 2 = DRAW, 3 = AWAY)\n    /// @param _stake Amount to bet (0 = 0.001 ETH, 1 = 0.01 ETH, 2 = 0.1 ETH, 3 = 1 ETH)\n    /// @param _odds must be > 100 then real odds is _odds /100 e.g 350 correspond to 3.5 odds\n    function placeBackBet( address  player, Selection _selection, Stake _stake, uint _odds) internal {\n        uint map_stake = _stake == Stake.OneFinney ? 0 : _stake == Stake.TenFinney ? 1 : _stake == Stake.HundredFinney ? 2 : 3;\n       \n        backBetsId[_selection][_odds][map_stake].push(betCount);\n       \n            // Check if possible to match the bet\n        if (layBetsAvailable[_selection][_odds][map_stake]>0) {\n\n            uint layId = firstIndexOfLayBet[_selection][_odds][map_stake];\n            uint layBetId = layBetsId[_selection][_odds][map_stake][layId]; // get Id of the lay bet\n            allBets[betCount-1].status = BetStatus.Matched;\n            allBets[layBetId-1].status = BetStatus.Matched;\n            firstIndexOfLayBet[_selection][_odds][map_stake] ++; // increment the index\n            layBetsAvailable[_selection][_odds][map_stake]-=1; // decrement number of laybet available\n            address  layPlayer = allBets[layBetId-1].player;\n            incrementPotentialPayout(player, _odds,  _selection, BetType.Back, _stake);\n            incrementWithStake(player, _odds, BetType.Back, _stake);\n            decrementWithStake(player, _odds, _selection, BetType.Back, _stake);\n            decrementWithStake(layPlayer, _odds, _selection, BetType.Lay, _stake);\n            incrementPotentialPayout(layPlayer, _odds,  _selection, BetType.Lay, _stake);\n            emit BetMatched(player, layPlayer,  _odds,  _selection);\n        \n        }\n           \n\n            else if (layBetsAvailable[_selection][_odds][map_stake] == 0) {\n                backBetsAvailable[_selection][_odds][map_stake]+=1;\n                // do something for first index\n                incrementWithStake(player, _odds,  BetType.Back, _stake);\n                emit unmatchedBetCreated(player,  _odds,  _selection,  BetType.Back);\n            }\n        \n    }\n\n    /// @dev internal function used to place lay bets by placeBet\n    /// @param player  Address placing the bet\n    /// @param _selection Bet selection (1 = HOME, 2 = DRAW, 3 = AWAY)\n    /// @param _stake Amount to bet (0 = 0.001 ETH, 1 = 0.01 ETH, 2 = 0.1 ETH, 3 = 1 ETH)\n    /// @param _odds must be > 100 then real odds is _odds /100 e.g 350 correspond to 3.5 odds\n    function placeLayBet( address  player, Selection _selection, Stake _stake, uint _odds) internal {\n        uint map_stake = _stake == Stake.OneFinney ? 0 : _stake == Stake.TenFinney ? 1 : _stake == Stake.HundredFinney ? 2 : 3;\n        backBetsId[_selection][_odds][map_stake].push(betCount);\n\n\n        // Check if possible to match the bet\n        if (backBetsAvailable[_selection][_odds][map_stake]>0) {\n\n            uint backId = firstIndexOfBackBet[_selection][_odds][map_stake];\n            uint backBetId = backBetsId[_selection][_odds][map_stake][backId]; // get Id of the back bet\n            allBets[betCount-1].status = BetStatus.Matched;\n            allBets[backBetId-1].status = BetStatus.Matched;\n            firstIndexOfBackBet[_selection][_odds][map_stake] ++; // increment the index\n            backBetsAvailable[_selection][_odds][map_stake]-=1; // decrement number of laybet available\n            address  backPlayer = allBets[backBetId-1].player;\n\n            \n            incrementPotentialPayout(player, _odds,  _selection, BetType.Lay, _stake);\n            incrementWithStake(player, _odds,  BetType.Lay, _stake);\n            decrementWithStake(player, _odds, _selection, BetType.Lay, _stake);\n            decrementWithStake(backPlayer, _odds, _selection, BetType.Back, _stake);\n            incrementPotentialPayout(backPlayer, _odds,  _selection, BetType.Back, _stake);\n            emit BetMatched(backPlayer, player,  _odds,  _selection);\n            \n\n        \n        }\n       \n\n        else if (backBetsAvailable[_selection][_odds][map_stake] == 0) {\n            layBetsAvailable[_selection][_odds][map_stake]+=1;\n            incrementWithStake(player, _odds,  BetType.Lay, _stake);\n            emit unmatchedBetCreated(player,  _odds,  _selection,  BetType.Lay);\n        }\n        \n        \n    }\n\n    /// @dev internal function used add the bet to allBets[] array and update different variables\n    /// @param player  Address placing the bet\n    /// @param _betType  Back or Lay (Back = 0, Lay = 1)\n    /// @param _selection Bet selection (1 = HOME, 2 = DRAW, 3 = AWAY)\n    /// @param _stake Amount to bet (0 = 0.001 ETH, 1 = 0.01 ETH, 2 = 0.1 ETH, 3 = 1 ETH)\n    /// @param _odds must be > 100 then real odds is _odds /100 e.g 350 correspond to 3.5 odds\n    function addBet(address  player,BetType _betType, Selection _selection, Stake _stake, uint _odds ) internal {\n        Bet memory playerBet = Bet(player, _betType, _selection, _stake, _odds, BetStatus.Unmatched, betCount);\n        allBets.push(playerBet);\n        playerBets[msg.sender].push(betCount);\n        playerNumberOfBets[msg.sender]++;\n        \n    }  \n\n    /// @param _selection Bet selection (1 = HOME, 2 = DRAW, 3 = AWAY)\n    /// @param _stake Amount to bet (0 = 0.001 ETH, 1 = 0.01 ETH, 2 = 0.1 ETH, 3 = 1 ETH)\n    /// @param _odds must be > 100 then real odds is _odds /100 e.g 350 correspond to 3.5 odds\n    /// @return number of back bets available for particular parameters\n    function getBackBetsAvailable(Selection _selection, uint _odds, Stake _stake) public view returns(uint) {\n        uint map_stake = _stake == Stake.OneFinney ? 0 : _stake == Stake.TenFinney ? 1 : _stake == Stake.HundredFinney ? 2 : 4;\n        uint backbets = backBetsAvailable[_selection][_odds][map_stake];\n        return backbets;\n    }\n\n    /// @param _selection Bet selection (1 = HOME, 2 = DRAW, 3 = AWAY)\n    /// @param _stake Amount to bet (0 = 0.001 ETH, 1 = 0.01 ETH, 2 = 0.1 ETH, 3 = 1 ETH)\n    /// @param _odds must be > 100 then real odds is _odds /100 e.g 350 correspond to 3.5 odds\n    /// @return number of lay bets available for particular parameters\n    function getLayBetsAvailable(Selection _selection, uint _odds, Stake _stake) public view returns(uint) {\n        uint map_stake = _stake == Stake.OneFinney ? 0 : _stake == Stake.TenFinney ? 1 : _stake == Stake.HundredFinney ? 2 : 4;\n        uint laybets = layBetsAvailable[_selection][_odds][map_stake];\n        return laybets;\n    }\n\n    /// @param _player  Address placing the bet\n    /// @return number of bets placed by _player\n    function getPlayerNumberOfBets(address _player) public view returns(uint) {\n        return playerNumberOfBets[_player];\n    }\n\n    /// @param _betNumber the bet number _betNumber placed by the player\n    /// @param _player  Address placing the bet\n    /// @return The bet placed by the player\n    function getPlayerBet(address _player, uint _betNumber) public view isValidBetNumber(_betNumber, _player) returns(Bet memory) {\n        uint _betId = playerBets[_player][_betNumber] -1;\n        return allBets[_betId];\n        \n    }\n\n\n    /// @param _betId Id of the requested bet\n    /// @return The bet with the corresponding Id\n     function getBetStatus(uint _betId)  public view isValidId(_betId) returns(BetStatus)  {\n        return allBets[_betId-1].status;\n    }\n\n\n\n\n    /// PAYOUT SECTION : FUNCTION FOR HANDLING PLAYER POTENTIAL PAYOUT\n\n    /// @dev internal function increments the playerPayout of the player with potential winning ( not counting the stake) for the selection, used when the bet can bet matched\n    /// @param _player  Address placing the bet\n    /// @param _betType  Back or Lay (Back = 0, Lay = 1)\n    /// @param _selection Bet selection (1 = HOME, 2 = DRAW, 3 = AWAY)\n    /// @param _stake Amount to bet (0 = 0.001 ETH, 1 = 0.01 ETH, 2 = 0.1 ETH, 3 = 1 ETH)\n    /// @param _odds must be > 100 then real odds is _odds /100 e.g 350 correspond to 3.5 odds\n    function incrementPotentialPayout(address  _player, uint _odds, Selection _selection, BetType _betType, Stake _stake) internal {\n        uint256 mul = _stake == Stake.OneFinney ? 1 : _stake == Stake.TenFinney ? 10 : _stake == Stake.HundredFinney ? 100 : 1000;\n\n        if (_betType == BetType.Back) {\n            playerPayout[_player][_selection] += mul*(_odds - 100)* 0.001 ether/100;\n        }\n\n        else if (_betType == BetType.Lay) {\n            if(_selection == Selection.Home) {\n                playerPayout[_player][Selection.Draw] += mul*0.001 ether;\n                playerPayout[_player][Selection.Away] += mul*0.001 ether;\n            }\n            else if(_selection == Selection.Draw) {\n                playerPayout[_player][Selection.Home] += mul*0.001 ether;\n                playerPayout[_player][Selection.Away] += mul*0.001 ether;\n            }\n            else if(_selection == Selection.Away) {\n                playerPayout[_player][Selection.Home] += mul*0.001 ether;\n                playerPayout[_player][Selection.Draw] += mul*0.001 ether;\n            }\n        }\n    }\n\n    /// @dev internal function increments the playerPayout of the player with his stake, used when the bet can't be matched\n    /// @param _betType  Back or Lay (Back = 0, Lay = 1)\n    /// @param _stake Amount to bet (0 = 0.001 ETH, 1 = 0.01 ETH, 2 = 0.1 ETH, 3 = 1 ETH)\n    /// @param _odds must be > 100 then real odds is _odds /100 e.g 350 correspond to 3.5 odds\n    function incrementWithStake(address  _player, uint _odds,  BetType _betType, Stake _stake) internal {\n        uint256 mul = _stake == Stake.OneFinney ? 1 : _stake == Stake.TenFinney ? 10 : _stake == Stake.HundredFinney ? 100 : 1000;\n        if (_betType == BetType.Back) {\n            playerPayout[_player][Selection.Draw] += mul*0.001 ether;\n            playerPayout[_player][Selection.Away] += mul*0.001 ether;\n            playerPayout[_player][Selection.Home] += mul*0.001 ether;\n        }\n\n        else if (_betType == BetType.Lay) {\n            playerPayout[_player][Selection.Away] += mul*(_odds -100) * 0.001 ether / 100;\n            playerPayout[_player][Selection.Home] += mul*(_odds -100) * 0.001 ether / 100;\n            playerPayout[_player][Selection.Draw] += mul*(_odds -100) * 0.001 ether / 100;\n\n        }\n    }\n\n    \n    /// @dev internal function decrements player payout with his initial stake, used when the bet can be matched\n    /// @param _player  Address placing the bet\n    /// @param _betType  Back or Lay (Back = 0, Lay = 1)\n    /// @param _selection Bet selection (1 = HOME, 2 = DRAW, 3 = AWAY)\n    /// @param _stake Amount to bet (0 = 0.001 ETH, 1 = 0.01 ETH, 2 = 0.1 ETH, 3 = 1 ETH)\n    /// @param _odds must be > 100 then real odds is _odds /100 e.g 350 correspond to 3.5 odds\n    function decrementWithStake(address  _player, uint _odds, Selection _selection, BetType _betType, Stake _stake) internal {\n        uint256 mul = _stake == Stake.OneFinney ? 1 : _stake == Stake.TenFinney ? 10 : _stake == Stake.HundredFinney ? 100 : 1000;\n\n        if (_betType == BetType.Back) {\n            if(_selection == Selection.Home) {\n                playerPayout[_player][Selection.Draw] -= mul*0.001 ether;\n                playerPayout[_player][Selection.Away] -= mul*0.001 ether;\n            }\n            else if(_selection == Selection.Draw) {\n                playerPayout[_player][Selection.Home] -= mul*0.001 ether;\n                playerPayout[_player][Selection.Away] -= mul*0.001 ether;\n            }\n            else if(_selection == Selection.Away) {\n                playerPayout[_player][Selection.Home] -= mul*0.001 ether;\n                playerPayout[_player][Selection.Draw] -= mul*0.001 ether;\n            }\n        }\n            \n        \n\n        else if (_betType == BetType.Lay) {\n            playerPayout[_player][_selection] -= mul*(_odds -100) * 0.001 ether / 100;\n            \n\n        }\n\n\n    }\n\n    /// @dev internal function that updates players balances when the game is finished, called when admin changes the game status\n    function adminPayout() internal {\n        \n       \n        for(uint i=0; i< players.length; i++) {\n            balances[players[i]] += playerPayout[players[i]][game.winner];\n            \n        }\n          \n        emit Payout(game);\n\n    }\n    \n    /// @dev returns current player current payout for the selection\n    /// @param _player  Address placing the bet\n    /// @param _selection Bet selection (1 = HOME, 2 = DRAW, 3 = AWAY)\n    function getPayout(address  _player, Selection _selection) public view returns(uint) {\n        uint _payout = playerPayout[_player][_selection];\n        return _payout;\n    }  \n\n    \n    /// FALLBACK FUNCTIONS\n    receive() external payable {\n        \n        emit ValueReceived(msg.sender, msg.value);\n        \n    }\n    \n    fallback() external payable {\n        \n        emit ValueReceived(msg.sender, msg.value);\n        \n    }\n\n  \n\n\n}  ",
  "sourcePath": "/Users/baraa/Github/blockchain-developer-bootcamp-final-project/contracts/Game.sol",
  "compiler": {
    "name": "solc",
    "version": "0.8.9+commit.e5eed63a.Emscripten.clang"
  },
  "schemaVersion": "3.4.3",
  "updatedAt": "2021-11-17T17:47:49.510Z",
  "devdoc": {
    "author": "Baraa Elalami",
    "details": "Order matching algorithm is basic allowing users to bet only one of the 4 amounts : 0.001 ETH, 0.01 ETH, 0.1 ETH, 1 ETH",
    "kind": "dev",
    "methods": {
      "changeGameStatus(uint8)": {
        "details": "function that change game status",
        "params": {
          "winner": "of the game ( 1=HOME, 2=DRAW, 3=AWAY)"
        }
      },
      "constructor": {
        "params": {
          "teams": "string describing the Game/Bet e.g Real Madrid vs Inter Milan"
        }
      },
      "deposit(uint256)": {
        "params": {
          "amount": "to deposit "
        }
      },
      "getBackBetsAvailable(uint8,uint256,uint8)": {
        "params": {
          "_odds": "must be > 100 then real odds is _odds /100 e.g 350 correspond to 3.5 odds",
          "_selection": "Bet selection (1 = HOME, 2 = DRAW, 3 = AWAY)",
          "_stake": "Amount to bet (0 = 0.001 ETH, 1 = 0.01 ETH, 2 = 0.1 ETH, 3 = 1 ETH)"
        },
        "returns": {
          "_0": "number of back bets available for particular parameters"
        }
      },
      "getBalance(address)": {
        "params": {
          "_player": "address"
        },
        "returns": {
          "_0": "user balance"
        }
      },
      "getBetStatus(uint256)": {
        "params": {
          "_betId": "Id of the requested bet"
        },
        "returns": {
          "_0": "The bet with the corresponding Id"
        }
      },
      "getLayBetsAvailable(uint8,uint256,uint8)": {
        "params": {
          "_odds": "must be > 100 then real odds is _odds /100 e.g 350 correspond to 3.5 odds",
          "_selection": "Bet selection (1 = HOME, 2 = DRAW, 3 = AWAY)",
          "_stake": "Amount to bet (0 = 0.001 ETH, 1 = 0.01 ETH, 2 = 0.1 ETH, 3 = 1 ETH)"
        },
        "returns": {
          "_0": "number of lay bets available for particular parameters"
        }
      },
      "getPayout(address,uint8)": {
        "details": "returns current player current payout for the selection",
        "params": {
          "_player": "Address placing the bet",
          "_selection": "Bet selection (1 = HOME, 2 = DRAW, 3 = AWAY)"
        }
      },
      "getPlayerBet(address,uint256)": {
        "params": {
          "_betNumber": "the bet number _betNumber placed by the player",
          "_player": "Address placing the bet"
        },
        "returns": {
          "_0": "The bet placed by the player"
        }
      },
      "getPlayerNumberOfBets(address)": {
        "params": {
          "_player": "Address placing the bet"
        },
        "returns": {
          "_0": "number of bets placed by _player"
        }
      },
      "getTeams()": {
        "returns": {
          "_0": "string of the teams/object of the game"
        }
      },
      "owner()": {
        "details": "Returns the address of the current owner."
      },
      "placeBet(uint8,uint8,uint8,uint256)": {
        "details": "callable function that places the bets",
        "params": {
          "_betType": "Back or Lay (Back = 0, Lay = 1)",
          "_odds": "must be > 100 then real odds is _odds /100 e.g 350 correspond to 3.5 odds",
          "_selection": "Bet selection (1 = HOME, 2 = DRAW, 3 = AWAY)",
          "_stake": "Amount to bet (0 = 0.001 ETH, 1 = 0.01 ETH, 2 = 0.1 ETH, 3 = 1 ETH)"
        }
      },
      "renounceOwnership()": {
        "details": "Leaves the contract without owner. It will not be possible to call `onlyOwner` functions anymore. Can only be called by the current owner. NOTE: Renouncing ownership will leave the contract without an owner, thereby removing any functionality that is only available to the owner."
      },
      "transferOwnership(address)": {
        "details": "Transfers ownership of the contract to a new account (`newOwner`). Can only be called by the current owner."
      },
      "withdraw(uint256)": {
        "params": {
          "amount": "to withdraw "
        }
      }
    },
    "stateVariables": {
      "admin": {
        "details": "Admin who decide the outcome of the game"
      }
    },
    "title": "Betting contract for one game",
    "version": 1
  },
  "userdoc": {
    "kind": "user",
    "methods": {
      "allBets(uint256)": {
        "notice": "array the hold all bets"
      },
      "backBetsAvailable(uint8,uint256,uint256)": {
        "notice": "tracks amount of back bets available to match : Selection => Odds => => stake amount"
      },
      "backBetsId(uint8,uint256,uint256,uint256)": {
        "notice": "tracks the Bet id of the backBets : Selection => Odds =>  stake => uint [id] | uint backBetId = backBetsId[_selection][_odds][backId][map_stake]"
      },
      "betCount()": {
        "notice": "trcks the amount of bets"
      },
      "deposit(uint256)": {
        "notice": "deposit function, adds amount to user balance"
      },
      "firstIndexOfBackBet(uint8,uint256,uint256)": {
        "notice": "track Id of first back bet available in the backBetsId[selection][odds][stake],  Selection => Odds=> stake  => Id   uint backId = firstIndexOfBackBet[_selection][_odds][map_stake];"
      },
      "firstIndexOfLayBet(uint8,uint256,uint256)": {
        "notice": "track Id of first lay bet available in the layBetsId[selection][odds][stake],  Selection => Odds=> stake  => Id   uint layId = firstIndexOfBackBet[_selection][_odds][map_stake];"
      },
      "layBetsAvailable(uint8,uint256,uint256)": {
        "notice": "tracks amount of lay bets available to match : Selection => Odds => => stake amount"
      },
      "layBetsId(uint8,uint256,uint256,uint256)": {
        "notice": "tracks the Bet id of the layBets : Selection => Odds =>  stake => uint [id]  | uint layBetId = backBetsId[_selection][_odds][backId][map_stake]"
      },
      "players(uint256)": {
        "notice": "track addresses of all players"
      },
      "withdraw(uint256)": {
        "notice": "withdraw function, substract amount from user balance and send the amount "
      },
      "withdrawAll()": {
        "notice": "withdraw all function, send remaining balance back to user"
      }
    },
    "version": 1
  }
}